:100B0D00120D537F32120F34E4FDFF120E767FD09B
:100B1D00120F347DAA7F55120E767FD0120F347DC1
:100B2D00FFE4FF120E767FD0120F347DFF7FCC12C3
:100B3D000E767FD0120F347DFF7FFF120E767FD0A1
:100B4D00120F34120DA47F40120F34E4FDFF120E6C
:100B5D0076120DF4120F07EF4E60020516531607AD
:100B6D00E516B4080050ED900B7BF8282873020BA6
:100B7D0093020B97020B9B020BA1020BA7020BAD6D
:100B8D00020BB6020BBB7D5580127DAA80027D55EE
:100B9D007F5580107DFFE4FF800A7DAA7FAA800427
:100BAD007DFF7FFF120E7680AB120DA480A6120D75
:030BBD00F480A120
:020FAF00C1007F
:060F3400AE071FEE600E87
:0C0F3A0075080C7509A9D509FDD508FA49
:030F460080EC221A
:100F070030A0107F01120F3430A00820A0FD7E0012
:070F17007F0122E4FEFF222E
:060F7300AD077F057E00C2
:0B0F7900EF1FAC0670011E4C70F6224A
:0F0F9400EF4E600AEF1F70011E3000F480FB2249
:100E4200FF120F25E50F2486FF120F8DAB0BAA0CA4
:100E5200A90D75F020E50AA4250EF582E435F0F51A
:050E620083120EDAFF0F
:0F0E6700120F73D2B0C2B18D90D2B200C2B222BC
:100EAA00E50F24C3FF120FA8AB0BAA0CA90D75F00E
:100EBA0020E50AA4250EF582E435F0F583120EDA50
:010ECA00FF28
:0F0ECB00120F73D2B0C2B18D90D2B300C2B32256
:100F4900AD077F147E00120F79C2B0C2B18D90D265
:050F5900B200C2B2224B
:100F5E00AD077F147E00120F79C2B0C2B18D90D250
:050F6E00B300C2B32234
:070F1E0085090FE50804FF3F
:0F0F2500AB074303B8AF03120F49AF03020F5ED0
:090F8400FF120F25E50F2486FF82
:070F8D00EF547FFF020F4942
:050FA300E50F24C3FF6F
:070FA800EF547FFF020F5E12
:100D5300D2B57F0A120F34C2B57F02120F34D2B557
:100D63007F0A120F347FE2120F497FE2120F5E7F78
:100D7300A4120F497FA4120F5E7FA9120F497FA906
:100D8300120F5E7FA0120F497FA0120F5E7FC01269
:100D93000F497FC0120F5E7FAF120F497FAF020F63
:010DA3005EF1
:040E76008F08AA0532
:100E7A00E4F9AF01120F25E4FF120F8DE4FF120F00
:100E8A00A8E4FBAF08120E67AF02120E67AF021298
:0F0E9A000ECBAF08120ECB0BBB20E809B904D367
:010EA9002226
:060BC0008F088D098B0A6D
:100BC60085090F120F25E509C3943D5042E4F50E41
:100BD600E50FC3943D5007AF0F120E4B8003120E64
:100BE600AA050F050EE50EC3941040E4120F1E75FC
:100BF6000E10E50FC3943D5007AF0F120E4B800346
:100C0600120EAA050F050EE50EC3942040E422E459
:100C1600F50EE50FC3947A5005120EAA800EE5086C
:100C2600D394015007E5082402120E42050F050E63
:100C3600E50EC3941040DB120F1E750E10E50FC3B0
:100C4600947A5005120EAA800EE508D39401500737
:100C5600E5082403120E42050F050EE50EC3942087
:020C660040DB71
:010C68002269
:0609CB008F088D098B0A64
:1009D10085090F120F25E509C3943D4003020A6EF4
:1009E100E4F50EE50FC3943D5018AF0F120F8DAB18
:1009F1000BAA0CA90D75F010E50AA4250E120E5CC8
:100A01008014120FA3AB0BAA0CA90D75F010E50A07
:100A1100A4250E120EC0050F050EE50EC394084065
:100A2100C285090FE50804FF120F25750E08E50FB1
:100A3100C3943D5018AF0F120F8DAB0BAA0CA90D2B
:100A410075F010E50AA4250E120E5C8014120FA396
:100A5100AB0BAA0CA90D75F010E50AA4250E120E18
:100A6100C0050F050EE50EC3941040C222E4F50E39
:100A7100E50FC3947A5016120FA3AB0BAA0CA90D64
:100A810075F010E50AA4250E120EC0801FE508D3EB
:100A910094015018E5082402120F84AB0BAA0CA98B
:100AA1000D75F010E50AA4250E120E5C050F050E5A
:100AB100E50EC3940840B985090FE50804FF120F3C
:100AC10025750E08E50FC3947A5016120FA3AB0BD0
:100AD100AA0CA90D75F010E50AA4250E120EC0800E
:100AE1001FE508D394015018E5082403120F84ABC5
:100AF1000BAA0CA90D75F010E50AA4250E120E5CC7
:0B0B0100050F050EE50EC3941040B96F
:010B0C0022C6
:100DF400E4FDFF120E76E4F517E517C454F0FD7513
:100E04000BFF750C00750D03AB177F02120BC005A9
:100E140017E517C3940740E1E4F517E517C454F048
:100E2400FDE5172407FB750BFF750C00750D03E436
:0E0E3400FF120BC00517E517C3940340DE2222
:100DA400E4FDFF120E76E4F517E51775F008A4FDCF
:100DB400750BFF750C01750D43AB177F021209CB40
:100DC4000517E517C3940C40E0E4F517E51775F033
:100DD40008A4FDE5172410FB750BFF750C01750DB8
:100DE40043E4FF1209CB0517E517C3940B40DD223A
:060CF5008B108A11891228
:100CFB00E4F515F513AF13120F25E4FF120F8DE476
:100D0B00FF120FA8E4F514AB10AA11A91275F07A13
:100D1B00E513A42514120E5C0514E514C3943D4091
:100D2B00E675143DAB10AA11A91275F07AE513A460
:100D3B002514120EC00514E514C3947A40E605136E
:070D4B00E513C3940440AE60
:010D5200227E
:100003000000FC04040404050604040404040400BE
:1000130040300F000000000000000000000000005E
:100023000008088868180FE8080808080800000096
:10003300004021110D41817F010D1121410000007C
:10004300807000FF209840F807407FA090C8000010
:10005300806018070834040504FF04040404040042
:100063004448D07FD04C40A6623AA2222222060006
:1000730040300F003F1008090909FF09090908006A
:10008300242424A4FEA32200244800FF000000002F
:1000930010080601FF000102020202FF0202020031
:1000A300101010FF1010888888FF888888080000C7
:1000B3000444827F01808146281028468180000005
:1000C30004040484E43C2724242424E404040400D6
:1000D30004020100FF0909090949897F00000000A2
:1000E30000FE0222DA0600FE92929292FE000000C7
:1000F30000FF0810080700FF4224081422202000F4
:1001030000008040300C00C0061820408080800032
:100113000101003028242320202830600001000042
:10012300101092929292929292929292FE000000FA
:1001330000003F10101010103F0040807F000000AF
:1001430040C040000040C0400040433C0C0300005E
:100153000080404040408000000F121212120B003A
:1001630008F8804040408000101F100000101F104E
:1001730040C000000040C000000F101010081F1006
:1001830000404CCC000000000010101F10100000B5
:10019300008040404048F800000F101010081F1066
:1001A30000404CCC000000000010101F1010000095
:1001B300008040404040C0000019121212120C008F
:1001C30040C0804040800000407F48101008070076
:1001D300000808FC000000000010101F10100000B1
:1001E3000080404040800000000C1212091F1000E4
:1001F30040C040000040C0400040433C0C030000AE
:1002030000000000000000000018180000000000BB
:1002130000008040404080000007081010100800D4
:100223000080404040408000000F101010100F006D
:1002330040C04040C0404080101F10001F10001FEE
:10024300041C6480641C04000000101F10000000E4
:1002530004FC84808084FC04101F100000101F1015
:1002630004FC444444B80000101F10101008070099
:10027300E0180404041C0000030C1010110F01000B
:1002830000000808FC000000000010101F10100000
:1002930000380404048478000018141211101800A4
:1002A3000038040404847800001814121110180094
:1002B3000018048484443800000C101010110E0040
:1002C3000038040404847800001814121110180074
:1002D3000000E01C70800000101E110101131C10AF
:1002E300008080808080800000000000000000000B
:1002F3000038448484041C00001C101010110E00EC
:100303000080404040408000000F121212120B0088
:100313004040C0804040C00010101F10100000007B
:1003230000404CCC000000000010101F1010000013
:100333000080404040408000000F121212120B0058
:10034300008040404040C0000019121212120C00FD
:100353000038448484041C00001C101010110E008B
:1003630000404CCC000000000010101F10100000D3
:1003730000C0404040C04000001018161110180083
:100383000080404040408000000F121212120B0008
:10039300000000606000000000000018180000006A
:1003A3000038448484443800000E111010110E00EC
:1003B3000000C02018FC000000030212121F1212DA
:1003C3002020C0F8C0202000010100070001010027
:1003D3000000C02018FC000000030212121F1212BA
:1003E3000000C02018FC000000030212121F1212AA
:1003F30004FCFC00FCFC0400101F001F001F100085
:1004030004FCFC00FCFC0400101F001F001F100074
:10041300FFFFFFFFFFFFFFFFFFFFFFFFFFFFFFFFE9
:10042300FFFFFFFFFFFFFFFFFFFFFFFFFFFFFFFFD9
:10043300FFFFFFFFFFFFFFFFFFFFFFFFFFFFFFFFC9
:10044300FFFFFFFFFFFFFFFFFFFFFFFFFFFFFFFFB9
:100453000000000000000000000000000000000099
:100463000000000000000000000000000000000089
:100473000000000000000000000000000000000079
:100483000000000000000000000000000000000069
:100493000000000000000000000000000000000059
:1004A3000000000000000000000000000000000049
:1004B3000000000000000000000000000000000039
:1004C3000000000000000000000000000000000029
:1004D3000000000000000000000000000000000019
:1004E3000000000000000000000000000000000009
:1004F30000000000000000000000000000000000F9
:1005030000000000000000000000000000000000E8
:1005130000000000000000000000000000000000D8
:1005230000000000000000000000000000000000C8
:1005330000000000000000000000000000000000B8
:1005430000000000000000000000000000000000A8
:100553000000000000000000000000000000000098
:100563000000000000000000000000000000000088
:100573000000000000000000000000000000000078
:100583000000000000000000000000000000000068
:100593000000000000000000000000000000000058
:1005A3000000000000000000000000000000000048
:1005B3000000000000000000000000000000000038
:1005C3000000000000000000000000000000000028
:1005D3000000000000000000000000000000000018
:1005E3000000000000000000000000000000000008
:1005F30000000000000000000701010000000000EF
:1006030000000010FE10F000FC242424FC00000075
:1006130000FE222222222222FE0000044464544CC3
:10062300F644C44444040008080808F82A2C28E8BF
:100633000C080000000000000000000080E0787E4D
:10064300FEC0000000000000000000E0F0F8FCFC29
:10065300FEFE7C7C30F82800040606020404040431
:1006630004044CDC60808000C0C0E0E0C080000176
:1006730001070000000000C0C0404040000C030020
:100683000F080B0909090B0C000080CF0404C4C434
:100693004444CF800044440201080F000001024497
:1006A30040080804030008080807000000000000D1
:1006B300000018183C3E3F383330383F3EC000003E
:1006C300000000000003C73F0F0F1F3F7FFFFDF92E
:1006D300FBFB62240C0C3C7CFCFCFEFAFAF7F44CAA
:1006E30038030F7FFF7F7F3F1F00000000000000E3
:1006F300003F3F222222001A3D253F3E0016372DA0
:100703002D3B1A011F3F21003F3F040C1F33203FA5
:100713003F0016372D2D3B1A003F3F003F3F01019D
:100723003F3E005EBFA1A1FF7F000000000000006C
:10073300000000000000E091FEA42424C43C18063D
:10074300F1F8FCFE0F2727376F3E1800000000600A
:10075300584CCC9CFCFCFCF8F0E000000000FF00CF
:10076300000000000000F08080007F444444380013
:100773003C4040407C000438C03804384444447F43
:10078300007D00004854542400FC44444438007F56
:10079300000024545478000438C038040040003862
:1007A300444428003844444438007C040478040456
:1007B3007800000001010FFCB060C1830707070642
:1007C3008287464400400000000002060E0E1F1FF1
:1007D3001F1F0F070080C0701F000000008080E013
:1007E3000000000000000000000000000000000006
:1007F300000000000000F80808F80808F000F88876
:100803008870004482926C00000000F80808F80821
:1008130008F00070A8A8B000708888FE00FA00C82D
:10082300A8A8F800000000F888887000FE00C8A897
:10083300A8F80008708070080070A8A8B000F80835
:10084300080000000000000000000000000000009D
:100853000000000000000000000000000000000095
:1008630000000000000000000000000000E0008025
:1008730080800000000000808380808080000080F2
:100883000000008000000000E08080000000808005
:1008930000008080808000808080C0800000000095
:1008A30000030000000080808080808000000281BF
:1008B300800000E0808000008000000080000000D5
:1008C3000000000000000000000000000000000025
:1008D3000000000000000000000000000000000015
:1008E300000000000000000F000F00000F000000D8
:1008F300000F00000F00000F000027180700000082
:1009030000000F00000F00070A0A0B000C0A0A0F71
:10091300000F00000F0800000000000000000000AE
:100923000F00000F00000F0007080807000F08085A
:100933000700002718070000000000000000000067
:100943000000000000000000000000000000FEFEA8
:10095300387CFE10387CFE00000000FEFE00FEFE28
:100963000000000000FE7C3810FE7C38FEFE000014
:100973000000000000000000FC82827C000004FEF6
:100983000000008800588E8A720084C2B28C00C0B6
:1009930038064482926C00008800588E8A72006C7C
:1009A30092926C00000000007C7C7C7C7C7C7C7CD4
:1009B3007C7C7C7C7C7C7C7C444444444444444434
:0809C300444444444444447CD4
:03000000020C6986
:0C0C6900787FE4F6D8FD758120020CB005
:100EDA00BB010CE58229F582E5833AF583E02250CD
:100EEA0006E92582F8E622BBFE06E92582F8E22217
:0D0EFA00E58229F582E5833AF583E4932231
:100C7500020B0DE493A3F8E493A34003F68001F27D
:100C850008DFF48029E493A3F85407240CC8C33380
:100C9500C4540F4420C8834004F456800146F6DF4F
:100CA500E4800B0102040810204080900FAFE47E21
:100CB500019360BCA3FF543F30E509541FFEE49344
:100CC500A360010ECF54C025E060A840B8E493A30B
:100CD500FAE493A3F8E493A3C8C582C8CAC583CA36
:100CE500F0A3C8C582C8CAC583CADFE9DEE780BEEE
:010FB100003F
:00000001FF
