:020000040800F2
:10000000080400209D0100080B0F0008030F0008E2
:10001000070F0008E5010008CD1A000800000000E5
:10002000000000000000000000000000011A0008AD
:100030000B0200080000000041190008031A000824
:10004000B7010008B7010008B7010008B7010008B0
:10005000B7010008B7010008B7010008B7010008A0
:10006000B7010008B7010008B7010008B701000890
:10007000B7010008B7010008B7010008B701000880
:10008000B7010008B7010008B7010008B701000870
:10009000B7010008B7010008B7010008B701000860
:1000A000B7010008B7010008B7010008B701000850
:1000B000B7010008B7010008B7010008B701000840
:1000C000B7010008B7010008B7010008B701000830
:1000D000B7010008B7010008B7010008B701000820
:1000E000B7010008B7010008B7010008B701000810
:1000F000B7010008B7010008B7010008B701000800
:10010000B7010008B7010008B7010008B7010008EF
:10011000B7010008B7010008B7010008B7010008DF
:10012000B7010008B7010008B7010008B7010008CF
:10013000B7010008B7010008B7010008B7010008BF
:10014000B7010008B7010008B7010008B7010008AF
:10015000B7010008B7010008B7010008B70100089F
:10016000B7010008B7010008B7010008B70100088F
:10017000B7010008B7010008B7010008000000003F
:10018000B7010008B7010008DFF80CD000F018F83C
:1001900000480047FD1A0008080400200648804770
:1001A00006480047FEE7FEE7FEE7FEE7FEE7FEE75C
:1001B000FEE7FEE7FEE7FEE77D1A0008890100087A
:1001C000064C074D06E0E06840F0010394E80700A4
:1001D00098471034AC42F6D3FFF7DAFFBC7800083A
:1001E000DC78000800BFFEE770B504460D46152018
:1001F00001F094FB04F11C01C8B201F088FB05F189
:100200001C01C8B201F083FB70BD704770B5044695
:1002100000F014F906462546681C00B16D1C00BFAD
:1002200000F00CF9801BA842FAD370BD78B50346E4
:100230000022E5E0012696400D6805EA0604002C40
:100240007DD04D68022D02D04D68122D13D1D608F5
:1002500003F1200555F826005507EE0E0F25B54091
:10026000A8435607F60E0D69B5402843D60803F19A
:10027000200545F82600186856000325B540A84318
:100280000D7905F003055600B540284318604D6808
:10029000012D08D04D68022D05D04D68112D02D0DA
:1002A0004D68122D13D1986856000325B540A84318
:1002B0005600CD68B54028439860586801259540A0
:1002C000A8430D79C5F300159540284358600D7972
:1002D00005F00305032D09D1D86A01259540A843EF
:1002E0000D79C5F3C00595402843D862D8685600FB
:1002F0000325B540A84356008D68B5402843D86013
:100300004D6805F08055B5F1805F78D100BF3F4D55
:100310002D6E45F001053D4E356635462D6E05F0D6
:100320000105009500BF00BF4FEAB635960855F8A5
:10033000260095072E0F0F25B540A84300E05EE08C
:10034000B3F1904F01D100251EE0314DAB4201D1F8
:10035000012519E02F4DAB4201D1022514E02E4DAD
:10036000AB4201D103250FE02C4DAB4201D1042556
:100370000AE02B4DAB4201D1052505E0294DAB42EA
:1003800001D1062500E007259607360FB540284322
:10039000254D960845F82600244D2868A0434D6851
:1003A00005F48035B5F5803F00D120431F4D28600E
:1003B0002D1D2868A0434D6805F40035B5F5003FB4
:1003C00000D12043194D2D1D28602D1D2868A04304
:1003D0004D6805F48015B5F5801F00D12043134DFD
:1003E000083528602D1D2868A0434D6805F40015C8
:1003F000B5F5001F00D120430C4D0C352860521C70
:100400000D68D540002D7FF415AF78BD0010024077
:100410000004004800080048000C00480010004894
:100420000014004800180048080001400004014082
:100430000AB1816100E081627047000001480068F4
:10044000704700000400002002480068401C014979
:10045000086070470400002010B50024032000F05D
:1004600065F8002000F008F808B1012401E000F070
:100470001BF8204610BD000070B504460025094851
:1004800000684FF47A71B0FBF1F6304600F01BFDC6
:1004900008B1012504E000222146501E00F005F8B5
:1004A000284670BD0000002070472DE9F05F8046AF
:1004B0000D461646002700F029FD074639462A4614
:1004C000334601F00700C0F1070ABAF1040F02D960
:1004D0004FF0040A01E0C0F1070AD14600F1040A16
:1004E000BAF1070F02D24FF0000A01E0A0F1030AAF
:1004F000D4464FF0010A0AFA09FAAAF1010A0AEAF7
:10050000020A0AFA0CFA4FF0010B0BFA0CFBABF1E2
:10051000010B0BEA030B4AEA0B042146404600F0AC
:10052000FDFC00F000B830BCBDE8C09F00BF00F08B
:100530000702064B19684FF6FF031940044B0B43A3
:1005400043EA0221014B196000BF70470CED00E047
:100550000000FA050246B2F5007F2AD11D48006866
:1005600000F4C060B0F5007F32D01A48006820F473
:10057000C06040F40070174B1860174800683223C1
:100580005843164BB0FBF3F0411C00E0491E1148E4
:10059000406900F48060B0F5806F01D10029F5D189
:1005A0000C48406900F48060B0F5806F10D10320E2
:1005B00070470848006800F4C060B0F5806F07D04D
:1005C0000448006820F4C06040F48060014B18606B
:1005D0000020EDE7007000400000002040420F00C6
:1005E0000248006800F4C0607047000000700040DE
:1005F0002DE9F04104460D4614B90120BDE8F08113
:100600005548006800F00700A8420ED25248006822
:1006100020F007002843504908600846006800F0B1
:100620000700A84201D00120E8E7207800F001008F
:10063000002840D06068032806D14848006800F0D0
:100640000070D8B90120D9E76068022806D1434874
:10065000006800F4003088B90120CFE7606830B945
:100660003E48006800F0020040B90120C6E73B4860
:10067000006800F4806008B90120BFE7374880684F
:1006800020F003006168084334498860FFF7D6FE14
:10069000064608E0FFF7D2FE801B41F2883188420F
:1006A00001D90320AAE72D48806800F00C0061689A
:1006B000B0EB810FEED1207800F00200022807D1C4
:1006C0002648806820F0F000A1680843234988602C
:1006D0002148006800F00700A8420ED91E480068B3
:1006E00020F0070028431C4908600846006800F015
:1006F0000700A84201D0012080E7207800F0040024
:10070000042807D11548806820F4E060E1680843B8
:1007100012498860207800F00800082808D10F48A6
:10072000806820F46050216940EAC1000B4988606C
:1007300000F020F809498968C1F30311084A515CA7
:1007400001F01F01C840074908600020FFF794FE30
:100750000746384652E700000020024000100240E1
:100760004C44000800000020014800687047000069
:10077000000000202DE9F04100240020DFF800C136
:10078000DCF808C00CF00C01DFF8F4C0DCF80CC099
:100790000CF0030719B10C291ED1012F1CD1DFF871
:1007A000E0C0DCF800C00CF0080CBCF1000F06D172
:1007B000DFF8CCC0DCF894C0CCF3032405E0DFF80C
:1007C000C0C0DCF800C0CCF30314DFF8B8C05CF89C
:1007D000244041B9204606E0042901D12A4802E01C
:1007E000082900D129480C2947D1DFF894C0DCF84A
:1007F0000CC00CF00305DFF888C0DCF80CC0CCF3AB
:10080000021C0CF10103012D1FD0022D02D0032D7B
:100810001AD10CE0DFF870C0BCFBF3FCDFF860809D
:10082000D8F80C80C8F306280CFB08F218E0DFF8B3
:100830005CC0BCFBF3FCDFF84880D8F80C80C8F340
:1008400006280CFB08F20BE000BFB4FBF3FCDFF85A
:100850003080D8F80C80C8F306280CFB08F200BFE3
:1008600000BFDFF81CC0DCF80CC0CCF3416C0CF10D
:10087000010C4FEA4C06B2FBF6F0BDE8F081000037
:1008800000100240644400080024F40000127A00C2
:100890002DE9F843044614B90120BDE8F883F8486F
:1008A000806800F00C06F648C06800F00307207866
:1008B00000F01000102875D11EB10C2E74D1012F3C
:1008C00072D1EF48006800F0020018B1A06908B9C1
:1008D0000120E2E7EA48216A006800F0080020B140
:1008E000E748006800F0F00005E0E5489430006853
:1008F00000F47060000981421FD9206A01F022F8DB
:1009000008B10120C9E700BFDD48006840F00800D9
:10091000DB4908600846006820F0F000216A0843BF
:10092000D749086000BF0846406820F47F40E1696D
:1009300040EA0120D24948601EE000BFD04800686C
:1009400040F00800CE4908600846006820F0F0003A
:10095000216A0843CA49086000BF0846406820F47D
:100960007F40E16940EA0120C5494860206A00F003
:10097000E9FF08B1012090E7FFF7FCFEC049896854
:10098000C1F30311BF4A515C01F01F01C840BE49C9
:1009900008600020FFF770FD8046B8F1000F4ED0D0
:1009A00040467AE74BE0FFE7A06980B3B4480068AF
:1009B00040F00100B2490860FFF740FD054606E03F
:1009C000FFF73CFD401B022801D9032065E7AC4836
:1009D000006800F002000028F2D000BFA8480068BC
:1009E00040F00800A64908600846006820F0F000C2
:1009F000216A0843A249086000BF0846406820F405
:100A00007F40E16940EA01209D49486017E0FFE727
:100A10009B48006820F0010099490860FFF70EFD2F
:100A2000054606E0FFF70AFD401B022801D9032016
:100A300033E79348006800F002000028F2D12078E4
:100A400000F0010000285CD0082E03D00C2E0AD143
:100A5000032F08D18A48006800F4003088B360682A
:100A600078BB012019E700BF6068B0F5803F06D170
:100A70008348006840F48030814908601AE060686B
:100A8000B0F5A02F0BD17E48006840F480207C494F
:100A900008600846006840F4803008600AE0784842
:100AA000006820F48030764908600846006820F429
:100AB0008020086000BF606890B1FFF7BFFC05466A
:100AC00007E01EE0FFF7BAFC401B642801D90320B1
:100AD000E3E66B48006800F400300028F2D010E034
:100AE000FFF7ACFC054606E0FFF7A8FC401B6428B6
:100AF00001D90320D1E66248006800F400300028E4
:100B0000F2D1207800F00200022852D1042E03D046
:100B10000C2E14D1022F12D15948006800F48060C5
:100B200018B1E06808B90120B7E65548406820F0E0
:100B3000F850217C40EA01605149486039E0E068A2
:100B400000B34F48006840F480704D490860FFF7DB
:100B500075FC054606E0FFF771FC401B022801D931
:100B600003209AE64648006800F480600028F2D02E
:100B70004348406820F0F850217C40EA0160404939
:100B8000486016E03E48006820F480703C490860E8
:100B9000FFF754FC054606E0FFF750FC401B022817
:100BA00001D9032079E63648006800F48060002807
:100BB000F2D1207800F00800082836D16069D0B161
:100BC0002F489430006840F001002D49C1F894008E
:100BD000FFF734FC054606E0FFF730FC401B022817
:100BE00001D9032059E626489430006800F002003D
:100BF0000028F1D019E022489430006820F001006C
:100C00001F49C1F89400FFF719FC054606E0FFF7FD
:100C100015FC401B022801D903203EE618489430F9
:100C2000006800F002000028F1D1207800F00400F4
:100C3000042870D14FF000091148806D00F08050F9
:100C400078B900BF0E48806D40F080500C4988652F
:100C50000846806D00F08050009000BF00BF4FF04C
:100C600001090A48006800F48070F0B9074800687C
:100C700040F4807005490860FFF7E0FB05460EE090
:100C8000001002404C4400080000002000700040AA
:100C9000FFF7D4FB401B022801D90320FDE57C4867
:100CA000006800F480700028F2D000BFA06801281E
:100CB00008D17848006840F0010076499039C1F8C1
:100CC000900021E0A06805280FD17248006840F02C
:100CD000040070499039C1F890000846D0F890009F
:100CE00040F00100C1F890000EE06A48006820F072
:100CF000010068499039C1F890000846D0F890008A
:100D000020F00400C1F8900000BFA068A0B1FFF778
:100D100095FB054609E02EE0FFF790FB401B41F2F2
:100D20008831884201D90320B7E55A48006800F0AD
:100D300002000028F0D012E0FFF780FB054608E033
:100D4000FFF77CFB401B41F28831884201D9032028
:100D5000A3E55048006800F002000028F0D1B9F186
:100D6000010F07D14B489038806D20F080504949E1
:100D70009039886500BFA06AF0B30C2E74D0A06AC9
:100D8000022853D143489038006820F080704149D0
:100D900090390860FFF752FB054606E0FFF74EFB6F
:100DA000401B022801D9032077E53A4890380068B3
:100DB00000F000700028F1D1206B401E0101606B33
:100DC00041EA0021A06B000941EA4040E16A084382
:100DD000A18F0122C2EB510140EA41514020005D48
:100DE000C2EB500041EA40602A499039C860084689
:100DF000006840F0807000E048E008600846C06885
:100E000040F08070C860FFF719FB054606E0FFF769
:100E100015FB401B022801D903203EE51D489038F0
:100E2000006800F000700028F1D02FE019489038D9
:100E3000006820F080701749903908600846006803
:100E400000F0205020B90846C06820F00300C860B8
:100E500010489038C068104908400E499039C86061
:100E6000FFF7ECFA054607E00EE0FFF7E7FA401B54
:100E7000022801D9032010E506489038006800F0E8
:100E800000700028F1D101E0012006E5002004E512
:100E90000070004090100240FFFFEEFE042808D1D1
:100EA0004FF0E021096941F004014FF0E0221161A7
:100EB00007E04FF0E021096921F004014FF0E02242
:100EC00011617047704770B504462546681EB0F141
:100ED000807F01D301200FE0681E4FF0E0214861C0
:100EE0000F214FF0FF3000F019F800204FF0E02103
:100EF000886107200861002070BD10B5FFF7E2FF90
:100F000010BD00BFFEE700BFFEE770470248006863
:100F1000C0F30220704700000CED00E010B500287F
:100F200007DA0A07140E054A00F00F031B1FD454FA
:100F300003E00A07130E024A135410BD18ED00E037
:100F400000E400E02DE9F05F05460F4614469846A0
:100F5000DDE90A9B04F0030008B1012000E0002055
:100F600000EB94008400600800FB08FA2846E917AB
:100F700005EB9171C1F38705A4082819401EC1B281
:100F80002846FFF731F907EB0800401EC1B238468A
:100F900000F026FD00260EE0BBF1000F06D019F888
:100FA0000610C943C8B200F0B2FC03E019F806000D
:100FB00000F0ADFC761C5645EED300F000B830BC16
:100FC000BDE8C09F2DE9F84F06468846144699466D
:100FD000DDF828B04FF0000A04F0070008B1012046
:100FE00000E0002000EBD400C40004FB09F0C008BE
:100FF00000903046F11706EB9171C1F38706A40803
:101000003019401EC1B23046FFF7EEF808EB090078
:10101000401EC1B2404600F0E3FC002728E0002556
:1010200023E01BF80700002101EB4502012191405C
:10103000084008B14FF0F00A1BF80700012101EB4E
:1010400045029140084008B14AF00F0A0B9828B1B8
:101050006FEA0A01C8B200F05AFC02E0504600F004
:1010600056FC4FF0000A681CC5B2042DD9DB7F1C6A
:1010700000988742D3D300F000B818BCBDE8E08FD9
:101080002DE9F04704460E4615461F46DDF820A020
:10109000A408AD086A1ED1B2E0B2FFF7A5F8781E29
:1010A000C1B2304600F09CFC04F0FF0811E0B146EC
:1010B00009E0504600F02BFC504600F028FC09F1F6
:1010C000010000F0FF09B945F3DB08F1010000F071
:1010D000FF08A845EBD3BDE8F087000000B587B056
:1010E00000BF8048C06C40F001007E49C8640846DB
:1010F000C06C00F00100019000BF00BF00BF0846B7
:10110000C06C40F00800C8640846C06C00F00800DD
:10111000019000BF00BF00BF0846C06C40F0020055
:10112000C8640846C06C00F00200019000BF00BF18
:1011300000BF0846C06C40F00400C8640846C06C9C
:1011400000F00400019000BF00BFB0200290012019
:10115000039004900220059002A94FF09040FFF701
:1011600065F804200290012003900490022005906D
:1011700002A95D48FFF75AF84FF480500290012011
:10118000039004900220059002A95848FFF74EF8FA
:10119000202002900120039004900220059002A9D3
:1011A0005348FFF743F8012248F2B0014FF0904056
:1011B000FFF73EF9012204214B48FFF739F90122DC
:1011C00011034A48FFF734F9012220214848FFF76C
:1011D0002FF9002204214448FFF72AF90A2000F0E1
:1011E00086FC012204214048FFF722F9FD2000F08F
:1011F00095FB122000F08BFBAE2000F08FFBB3209C
:1012000000F08CFB912000F082FBCA2000F086FBEE
:101210003F2000F07CFBA22000F080FB002000F0CB
:1012200076FBA12000F07AFB002000F070FBA020EC
:1012300000F074FB062000F06AFBB52000F06EFBA6
:10124000002000F064FBAB2000F068FB012000F000
:101250005EFBB42000F062FBA02000F058FBFD20F4
:1012600000F055FBC12000F059FBFF2000F04FFBC0
:10127000C72000F053FB0F2000F049FBB92000F01D
:101280004DFBB12000F04AFBE22000F040FBD120F2
:1012900000F044FB822000F03AFB202000F037FBF6
:1012A000BB2000F03BFB1F2000F031FBB62000F01C
:1012B00035FB082000F02BFBBE2000F02FFB0720A1
:1012C00000F025FBA62000F029FB002040239A0017
:1012D00001460090FFF7D4FEAF2000F01FFB07B0DF
:1012E00000BD000000100240000C0048000800484B
:1012F000000400482DE9FF4F87B0054689461C468B
:10130000042005904FF0000A2046E21704EB127209
:1013100012112146E31704EB13731B11A4EB031303
:101320000BB1012300E000231A446243D2B20492BD
:101330000998203800F0FF08AB46EA1705EB9272D7
:101340009210E31704EB537302EBE302521ED1B287
:10135000EA1705EB9272C2F38700CDE90154FEF75C
:1013600043FF09EB0400401EC1B2484600F038FBC1
:1013700000265BE0102C05D12F4800EB0810805DA3
:10138000039010E0182C07D108EB48002B4901EB23
:101390000010805D039006E0202C04D1284800EB6B
:1013A0008810805D0390E11704EB11710911A4EB23
:1013B000011191B12046E11704EB11710911491C8B
:1013C000C9B20691069996FBF1F001FB106010B1CD
:1013D0000220059001E004200590002721E0002074
:1013E00000EB4701012088400399084008B14FF005
:1013F000F00A012000EB470188400399084008B13A
:101400004AF00F0A149828B16FEA0A01C8B200F036
:101410007EFA02E0504600F07AFA4FF0000A781C9B
:10142000C7B205988742DADB701CC6B204988642C0
:10143000A0DB0BB000F006B894440008844A000812
:10144000545C000830BCBDE8C08F2DE9F843074666
:10145000884615461C46089E22E0102C07D12346DC
:101460002A4641463846009600F020F815E0182C30
:1014700007D123462A4641463846009600F0B4F884
:101480000BE0202C07D123462A46414638460096D9
:1014900000F050F901E0BDE8F883AD1C3819C7B27F
:1014A00028780028D9D100BFF5E700002DE9F04FDA
:1014B00085B00546894692461C4600200490204689
:1014C000E21704EB5272D2102146E31704EB537378
:1014D000DB10A4EBC3030BB1012300E000231A448B
:1014E0006243029205200390AB46EA1705EB927225
:1014F0009210E31704EB937302EBA302521ED1B2D6
:10150000EA1705EB9272C2F38700CDE90054FEF7AB
:101510006BFE09EB0400401EC1B2484600F060FAC1
:10152000002655E006EB06102C4911F810009AF839
:101530000010884249D106EB0610284901EB400013
:1015400040789AF8011088423FD14FF0000839E006
:10155000002731E006EB0610204901EB4000801C1B
:1015600010F80800002101EB4702012191400840DA
:1015700008B1F020049006EB0610184901EB40007A
:10158000801C10F80800012101EB4702914008403F
:1015900018B1049840F00F0004900E9828B10499F7
:1015A000C943C8B200F0B3F902E0049800F0AFF903
:1015B00000200490781CC7B2042FCBDB08F1010097
:1015C00000F0FF0802988045C2D300BF701CC6B26D
:1015D00003988642A6D305B000F002B81474000840
:1015E00030BCBDE8C08F00002DE9F04F85B0054646
:1015F000894692461C46002004902046E21704EBE0
:101600005272D2102146E31704EB5373DB10A4EBA4
:10161000C3030BB1012300E000231A44624302928A
:1016200005200390AB46EA1705EB92729210E31780
:1016300004EB937302EBA302521ED1B2EA1705EB3F
:101640009272C2F38700CDE90054FEF7CDFD09EB9D
:101650000400401EC1B2484600F0C2F900265DE019
:1016600006EB860000EB46102F4911F810009AF89F
:10167000001088424FD106EB860000EB46102A4945
:1016800001EB400040789AF80110884243D14FF0B6
:1016900000083DE0002735E006EB860000EB461031
:1016A000214901EB4000801C10F80800002101EBEB
:1016B000470201219140084008B1F020049006EB58
:1016C000860000EB4610184901EB4000801C10F822
:1016D0000800012101EB47029140084018B104982D
:1016E00040F00F0004900E9828B10499C943C8B285
:1016F00000F00DF902E0049800F009F900200490D0
:10170000781CC7B2042FC7DB08F1010000F0FF0806
:1017100002988045BED300BF701CC6B203988642B3
:101720009ED305B000F002B8BE74000830BCBDE81E
:10173000C08F00002DE9F04F85B0054689469246DE
:101740001C46002004902046E21704EB5272D2108F
:101750002146E31704EB5373DB10A4EBC3030BB177
:10176000012300E000231A44624302920520039003
:10177000AB46EA1705EB92729210E31704EB9373F2
:1017800002EBA302521ED1B2EA1705EB9272C2F32A
:101790008700CDE90054FEF727FD09EB0400401E49
:1017A000C1B2484600F01CF9002655E006EB861051
:1017B0002C4911F810009AF80010884249D106EB24
:1017C0008610284901EB400040789AF801108842C1
:1017D0003FD14FF0000839E0002731E006EB8610DA
:1017E000204901EB4000801C10F80800002101EBAB
:1017F000470201219140084008B1F020049006EB17
:101800008610184901EB4000801C10F808000121E7
:1018100001EB47029140084018B1049840F00F00D6
:1018200004900E9828B10499C943C8B200F06FF82B
:1018300002E0049800F06BF800200490781CC7B216
:10184000042FCBDB08F1010000F0FF08029880456F
:10185000C2D300BF701CC6B203988642A6D305B09F
:1018600000F002B83076000830BCBDE8C08F2DE92A
:10187000F84306460F4614461D46DDF820800EE06C
:10188000CDF8008022782B4639463046FFF732FDEE
:10189000641C284605EBD07106EB6101CEB22078BE
:1018A0000028EDD1BDE8F88370B504460022102170
:1018B0004FF09040FEF7BCFD00251FE000222021E4
:1018C0004FF09040FEF7B4FD04F0800030B10122EB
:1018D00080214FF09040FEF7ABFD05E00022802113
:1018E0004FF09040FEF7A4FD012220214FF09040E0
:1018F000FEF79EFD6006040E681CC5B2082DDDDBF8
:10190000012210214FF09040FEF792FD70BD10B5FE
:1019100004462046FFF7C8FF10BD000010B504467E
:10192000002220210548FEF783FD2046FFF7BCFF7B
:10193000012220210148FEF77BFD10BD0004004874
:1019400070470000F8B5044600262348806D00F07B
:10195000805018B1FEF744FE054616E000BF1E4851
:10196000806D40F080501C4988650846806D00F00D
:101970008050009000BF00BFFEF732FE05461648BB
:10198000806D20F0805014498865B5F5007F07D13F
:10199000802C10D9A02C01D902260CE001260AE0E7
:1019A000802C01D9032606E0802C01D1022602E01A
:1019B000702C00D101260948006820F00700304350
:1019C000064908600846006800F00700B04201D0F0
:1019D0000120F8BD0020FCE700100240002002407A
:1019E00070B505460C467520FFF798FF2846FFF7AF
:1019F0008EFF2046FFF78BFF5C20FFF78FFF70BD47
:101A0000704710B5FEF720FDFFF777FA10BD10B54F
:101A100096B0012005900004069002200F9003214B
:101A2000109101211191142112910221149115910B
:101A300005A8FEF72DFF0F20009003200190002045
:101A400002900390049004216846FEF7D1FD4FF404
:101A50000070FEF77FFDFEF787FE4FF47A71B0FB52
:101A6000F1F42046FFF72FFA0420FFF717FA0022BF
:101A70001146501EFEF719FD16B010BD1048006843
:101A800040F470000E4908600E48006840F0010004
:101A90000C49086000208860084600680A49084030
:101AA000084908608814C8600846006820F480204F
:101AB000086000208861C8030149803908607047C8
:101AC00088ED00E000100240FFFFF6EA00BFFEE7ED
:101AD00002E008C8121F08C1002AFAD170477047F7
:101AE000002001E001C1121F002AFBD1704710B590
:101AF00004462046FEF78AFB10BD00001CB5FEF729
:101B0000ABFCFFF784FFFFF7E9FA00224FF48051A6
:101B10003C48FEF78DFC73E000203B4940239A00CF
:101B2000CDE900100146FFF70DFA4FF47A70FFF788
:101B3000DEFF002040239A0001460090FFF7A0FA44
:101B40000020324940239A00CDE900100146FFF7FA
:101B500039FA4FF47A70FFF7CAFF002040239A0049
:101B600001460090FFF78CFA002429E001201021A3
:101B700001EBC401CBB204EB84015822A2EB81013A
:101B80000090C8B222A20021FFF75FFC4FF47A70E8
:101B9000FFF7ADFF0020102101EBC401CBB204EB35
:101BA00084015822A2EB81010090C8B218A2002142
:101BB000FFF74BFC4FF47A70FFF799FF601CC4B23B
:101BC000032CD3DB0020102314A2202100904C20F2
:101BD000FFF74DFE4FF47A70FFF789FF00201023C6
:101BE00012A230210090FFF742FE4FF47A70FFF707
:101BF0007EFF002040239A0001460090FFF740FA44
:101C00008AE70000000800484C1C00084C3C000813
:101C1000D6D0BEB0D4B0B5E7D7D300005A4A5920C9
:101C20004F4C454420544553540000006874747070
:101C3000733A2F2F7A6A792D646973706C61792EEB
:101C400074616F62616F2E636F6D2F00FFFFFFFF86
:101C5000FFFFFFFFFFFFFFFFFFFFFFFFFFFFFFFF94
:101C6000FFFFFFFFFFFFFFFFFFFFFFFFFFFFFFFF84
:101C7000FFFFFFFFFFFFFFFFFFFFFFFFFFFFFFFF74
:101C8000FFFFFFFFFFFFFFFFFFFFFFFFFFFFFFFF64
:101C9000FFFFFFFFFFFFFFFFFFFFFFFFFFFFFFFF54
:101CA000FFFFFFFFFFFFFFFFFFFFFFFFFFFFFFFF44
:101CB000FFFFFFFFFFFFFFFFFFFFFFFFFFFFFFFF34
:101CC000FFFFFFFFFFFFFFFFFFFFFFFFFFFFFFFF24
:101CD000FFFFFFFFFFFFFFFFFFFFFFFFFFFFFFFF14
:101CE000FFFFFFFFFFFFFFFFFFFFFFFFFFFFFFFF04
:101CF000FFFFFFFFFFFFFFFFFFFFFFFFFFFFFFFFF4
:101D0000FFFFFFFFFFFFFFFFFFFE9543346AFFFF6A
:101D1000FFFFFFFFFFFFFFFFFFFFFFFFFFFFFFFFD3
:101D2000FFFFFFFFFFFFFFFFFFFFFFFFFFFFFFFFC3
:101D3000FFFFFFFFFFFFFFFFFFFFFFFFFFFFFFFFB3
:101D4000FFFFFFFFFFFFFFFFFFFFFFFFFFFFFFFFA3
:101D5000FFFFFFFFFFFFFFFFFFFFFFFFFFFFFFFF93
:101D6000FFFFFFFFFFFFFFFFFFFFFFFFFFFFFFFF83
:101D7000FFFFFFFFFFFFFFFFFFFFFFFFFFFFFFFF73
:101D8000FFFFFFFFFFFFFFFFFF80000000001CFFC1
:101D9000FFFFFFFFFFFFFFFFFFFFFFFFFFFFFFFF53
:101DA000FFFFFFFFFFFFFFFFFFFFFFFFFFFFFFFF43
:101DB000FFFFFFFFFFFFFFFFFFFFFFFFFFFFFFFF33
:101DC000FFFFFFFFFFFFFFFFFFFFFFFFFFFFFFFF23
:101DD000FFFFFFFFFFFFFFFFFFFFFFFFFFFFFFFF13
:101DE000FFFFFFFFFFFFFFFFFFFFFFFFFFFFFFFF03
:101DF000FFFFFFFFFFFFFFFFFFFFFFFFFFFFFFFFF3
:101E0000FFFFFFFFFFFFFFFFFA002333333102DF45
:101E1000FFFFFFFFFFFFFFFFFFFFFFFFFFFFFFFFD2
:101E2000FFFFFFFFFFFFFFFFFFFFFFFFFFFFFFFFC2
:101E3000FFFFFFFFFFFFFFFFFFFFFFFFFFFFFFFFB2
:101E4000FFFFFFFFFFFFFFFFFFFFFFFFFFFFFFFFA2
:101E5000FFFFFFFFFFFFFFFFFFFFFFFFFFFFFFFF92
:101E6000FFFFFFFFFFFFFFFFFFFFFFFFFFFFFFFF82
:101E7000FFFFFFFFFFFFFFFFFFFFFFFFFFFFFFFF72
:101E8000FFFFFFFFFFECBDEE800234444443103BF4
:101E9000EDCBCEFFFFFFFFFFFFFFFFFFFFFFFFFFC9
:101EA000FFFFFFFFFFFFFFFFFFFFFFFFFFFFFFFF42
:101EB000FFFFFFFFFFFFFFFFFFFFFFFFFFFFFFFF32
:101EC000FFFFFFFFFFFFFFFFFFFFFFFFFFFFFFFF22
:101ED000FFFFFFFFFFFFFFFFFFFFFFFFFFFFFFFF12
:101EE000FFFFFFFFFFFFFFFFFFFFFFFFFFFFFFFF02
:101EF000FFFFFFFFFFFFFFFFFFFFFFFFFFFFFFFFF2
:101F0000FFFFFFE942000000000244555543200056
:101F100000000025BFFFFFFFFFFFFFFFFFFFFFFFE8
:101F2000FFFFFFFFFFFFFFFFFFFFFFFFFFFFFFFFC1
:101F3000FFFFFFFFFFFFFFFFFFFFFFFFFFFFFFFFB1
:101F4000FFFFFFFFFFFFFFFFFFFFFFFFFFFFFFFFA1
:101F5000FFFFFFFFFFFFFFFFFFFFFFFFFFFFFFFF91
:101F6000FFFFFFFFFFFFFFFFFFFFFFFFFFFFFFFF81
:101F7000FFFFFFFFFFFFFFFFFFFFFFFFFFFFFFFF71
:101F8000FFFFFB10000110000013456665542000A0
:101F90000011100004EFFFFFFFFFFFFFFFFFFFFF37
:101FA000FFFFFFFFFFFFFFFFFFFFFFFFFFFFFFFF41
:101FB000FFFFFFFFFFFFFFFFFFFFFFFFFFFFFFFF31
:101FC000FFFFFFFFFFFFFFFFFFFFFFFFFFFFFFFF21
:101FD000FFFFFFFFFFFFFFFFFFFFFFFFFFFFFFFF11
:101FE000FFFFFFFFFFFFFFFFFFFFFFFFFFFFFFFF01
:101FF000FFFFFFFFFFFFFFFFFFFFFFFFFFFFFFFFF1
:10200000FFFF9001223443210013566776542101CB
:1020100023343321002CFFFFFFFFFFFFFFFFFFFFF3
:10202000FFFFFFFFFFFFFFFFFFFFFFFFFFFFFFFFC0
:10203000FFFFFFFFFFFFFFFFFFFFFFFFFFFFFFFFB0
:10204000FFFFFFFFFFFFFFFFFFFFFFFFFFFFFFFFA0
:10205000FFFFFFFFFFFFFFFFFFFFFFFFFFFFFFFF90
:10206000FFFFFFFFFFFFFFFFFFFFFFFFFFFFFFFF80
:10207000FFFFFFFFFFFFFFFFFFFFFFFFFFFFFFFF70
:10208000FFFC1012344455432123567877643112F3
:10209000445544332004FFFFFFFFFFFFFFFFFFFF16
:1020A000FFFFFFFFFFFFFFFFFFFFFFFFFFFFFFFF40
:1020B000FFFFFFFFFFFFFFFFFFFFFFFFFFFFFFFF30
:1020C000FFFFFFFFFFFFFFFFFFFFFFFFFFFFFFFF20
:1020D000FFFFFFFFFFFFFFFFFFFFFFFFFFFFFFFF10
:1020E000FFFFFFFFFFFFFFFFFFFFFFFFFFFFFFFF00
:1020F000FFFFFFFFFFFFFFFFFFFFFFFFFFFFFFFFF0
:10210000FFF80023445566654223578888653234BA
:10211000566655443200CFFFFFFFFFFFFFFFFFFF72
:10212000FFFFFFFFFFFFFFFFFFFFFFFFFFFFFFFFBF
:10213000FFFFFFFFFFFFFFFFFFFFFFFFFFFFFFFFAF
:10214000FFFFFFFFFFFFFFFFFFFFFFFFFFFFFFFF9F
:10215000FFFFFFFFFFFFFFFFFFFFFFFFFFFFFFFF8F
:10216000FFFFFFFFFFFFFFFFFFFFFFFFFFFFFFFF7F
:10217000FFFFFFFFFFFFFFFFDA754579DFFFFFFF7E
:10218000FFF600234567777764346799987533467F
:10219000777766543100AFFFFFFFFFEB865458BEE0
:1021A000FFFFFFFFFFFFFFFFFFFFFFFFFFFFFFFF3F
:1021B000FFFFFFFFFFFFFFFFFFFFFFFFFFFFFFFF2F
:1021C000FFFFFFFFFFFFFFFFFFFFFFFFFFFFFFFF1F
:1021D000FFFFFFFFFFFFFFFFFFFFFFFFFFFFFFFF0F
:1021E000FFFFFFFFFFFFFFFFFFFFFFFFFFFFFFFFFF
:1021F000FFFFFFFFFFFFFFB30000000014BFFFFF62
:10220000FF900013456788887644689AA9754578D9
:102210008888765420002CFFFFFFF9310000000071
:102220005DFFFFFFFFFFFFFFFFFFFFFFFFFFFFFF60
:10223000FFFFFFFFFFFFFFFFFFFFFFFFFFFFFFFFAE
:10224000FFFFFFFFFFFFFFFFFFFFFFFFFFFFFFFF9E
:10225000FFFFFFFFFFFFFFFFFFFFFFFFFFFFFFFF8E
:10226000FFFFFFFFFFFFFFFFFFFFFFFFFFFFFFFF7E
:10227000FFFFFFFFFFFFE500111000112229FFD92A
:102280006100000135678999986569BDDB866799AA
:102290009988764210000027AEFE622210001110CD
:1022A000008FFFFFFFFFFFFFFFFFFFFFFFFFFFFFAD
:1022B000FFFFFFFFFFFFFFFFFFFFFFFFFFFFFFFF2E
:1022C000FFFFFFFFFFFFFFFFFFFFFFFFFFFFFFFF1E
:1022D000FFFFFFFFFFFFFFFFFFFFFFFFFFFFFFFF0E
:1022E000FFFFFFA49FFFFFFFFFFFFFFFFFFFFFFFB9
:1022F000FFFF85CFFFFD2024467751001225940073
:1023000000122111235789AAABA98ABBBB989AAAAC
:10231000A9986421112221000078422000267654D9
:102320004105FFFFF95AFFFFFFFFFFFFFFFFFFFF20
:10233000FFFFFFF65DFFFFFFFFFFFFFFFFFFFFFF58
:10234000FFFFFFFFFFFFFFFFFFFFFFFFFFFFFFFF9D
:10235000FFFFFFFFFFFFFFFFFFFFFFFFFFFFFFFF8D
:10236000FFFFFFC0025789BCFFFFFDEFFFFFFFFF2C
:10237000FFFF5003BFF4056567889743337710026A
:1023800033444444333579ACEEEC85433357ADEDFB
:10239000B986433344444432100375333589887613
:1023A00056408FF81009FFFFFFFFFFFFFDDFFFFE24
:1023B000CA9864104FFFFFFFFFFFFFFFFFFFFFFF03
:1023C000FFFFFFFFFFFFFFFFFFFFFFFFFFFFFFFF1D
:1023D000FFFFFFFFFFFFFFFFFFFFFFFFFFFFFFFF0D
:1023E000FFFEDFC30011223459EFE35FFFFFFFFF61
:1023F000FFFE401008A457767787677868C60023E9
:1024000044556666654457BDB768963211259BCD25
:10241000D96545666666554432009C67877778774C
:1024200077746B600108FFFFFFFFFFFFE25FFC8531
:10243000432210006EEDFFFFFFFFFFFFFFFFFFFFD6
:10244000FFFFFFFFFFFFFFFFFFFFFFFFFFFFFFFF9C
:10245000FFFFFFFFFFFFFFFFFFFFFFFFFFFFFFC9C2
:102460008765556412346888655CC205DFFFFFFF2D
:10247000FFF8123300477776666666766ED20233CF
:1024800045566778888778A85422674201377535A2
:102490009A8788888776654433106FB57766666655
:1024A000677772013312BFFFFFFFFFFB206E955766
:1024B0008876431256555678ADFFFFFFFFFFFFFFAA
:1024C000FFFFFFFFFFFFFFFFFFFFFFFFFFFFFFFF1C
:1024D000FFFFFFFFFFFFFFFFFFFFFFFFFFFE942255
:1024E000356777874234689AA977631127CFFFFF52
:1024F000FFB2144431378765655678848FE2023322
:102500004556678899AABB86774123311244213406
:1025100049CBAA998876654433105FE6587765669B
:102520005689621344404EFFFFFFEA51114678AAD4
:10253000A975432588776643225BFFFFFFFFFFFFF6
:10254000FFFFFFFFFFFFFFFFFFFFFFFFFFFFFFFF9B
:10255000FFFFFFFFFFFFFFFFFFFFFFFFFE8213569E
:102560007888888986556679ABBA83256557ADFF2B
:10257000FF7155554236865666689856DFF7002239
:102580003445667789ABDB887422311111221145FD
:1025900057CDBA98776554332100BFFB56887656DD
:1025A00065785224555329FFFFC975564249BBAA85
:1025B000876555799888888764214AFFFFFFFFFF68
:1025C000FFFFFFFFFFFFFFFFFFFFFFFFFFFFFFFF1B
:1025D000FFFFFFFFFFFFFFFFFFFFFFFFD403566773
:1025E00076666666777667889ABCB625899866AF00
:1025F000FE636676533665667899868DFFF800002F
:1026000011223445668ABA984101222332221125CB
:1026100077AB9765543322100000CFFFC7789986B7
:1026200066575335776528FFE9578997338CBBA9DF
:1026300087766777666666676665207FFFFFFFFFC0
:10264000FFFFFFFFFFFFFFFFFFFFFFFFFFFFFFFF9A
:10265000FFFFFFFFFFFFFFFFFFFFFFFB3367766713
:10266000776666666677766789BCEA5379ABA97A3E
:10267000FF8477876455667775321112BFB000000A
:10268000011122334568AA84111112333321011339
:10269000799976543322110000002FF81112346713
:1026A0007765555688764BFE989ABA8636CDCA9786
:1026B000766776666666677766676526EFFFFFFF73
:1026C000FFFFFFFFFFFFFFFFFFFFFFFFFFFFFFFF1A
:1026D000FFFFFFFFFFFFFBBFFFFFFFD647887777B6
:1026E00042576676666667776679BD95679BCA745A
:1026F0008EA688887665676421011007FE20001287
:1027000023344566789CB852123444212233321166
:1027100059BCB98765544332210005FF40011013AD
:102720005776666898877CD648BBA8756BDA87664B
:102730007766666676677435777788748FFFFFFFF4
:10274000FACFFFFFFFFFFFFFFFFFFFFFFFFFFFFFCE
:10275000FFFFFFFFFFFFF8029BDDDB52444456778B
:102760002004786444456777888768987789BC70C7
:10277000023469A9877666322443108FF600234419
:1027800056677889AABDB73234410133210013312D
:1027900037BCCAA998776655443100AFF502343288
:1027A000246667789A95321029CA8877997778884D
:1027B00077765444478630048654444337CDDCB79B
:1027C00000CFFFFFFFFFFFFFFFFFFFFFFFFFFFFF48
:1027D000FFFFFFFFFFFFFE3001222123222233559E
:1027E00020003533455777899889877788999BC723
:1027F0002332259A98765434554423CFF501344535
:102800006677777887789732443310010012223246
:1028100036997778887776665443009FF913455444
:1028200033556789A84223239DA998887789988979
:102830008877654434520003643322222212220036
:1028400007FFFFFFFFFFFFFFFFFFFFFFFFFFFFD7B8
:102850007CCCCA8678ACFFD20133445555455566C9
:102860002012112233456887556677888789AACA5E
:1028700044664238A9655446656525EFF90034453C
:10288000566655444456BA43444763001256642280
:1028900048C9644445556665544301DFFB336566AA
:1028A0005455679A62256636BCAA9778887765562C
:1028B000798643322112200465555555544432001F
:1028C0006FFEB97678BCCCB69FFFFFFFFFFFFFF429
:1028D00000111112233469DB20134556677777798D
:1028E00071023433333345434555677899879ACA23
:1028F000546875348965656677756CFFFF401334DD
:10290000433322234579CDA5546885211236874368
:102910007DDB865322223334432008FFFFA56776F0
:102920006556679634677647BBA87899877656537D
:102930003553233334331038877777665544200571
:10294000DD754332211210008FFFFFFFFFFFFFFCF8
:102950001013455667777779A510134556788999EE
:10296000B8102456555554445630499889A978BB17
:1029700065689764577666678996655CFFE3001122
:1029800011111235689AABB98669941001359A878E
:102990009BBBA9764211111110007FFF95657997B5
:1029A0007666677556897648BA789988898204640C
:1029B000444555565531039A999887654421027AC2
:1029C0009677776665542005FFFFFFFFFFFFFFFF47
:1029D000F7003456678888889A8532234456788869
:1029E0009B8212456787777675102479A999A88903
:1029F0007578997667667778A951005FFFFD2000AA
:102A00000012346788998669DC98962002349DDB31
:102A100086789987654321000005FFFFD20026AA2A
:102A20008777667678997658989A99AA9731026648
:102A30006777887653214AB988765544322469A944
:102A400088888776554202AFFFFFFFFFFFFFFFFF39
:102A5000FC51112234567777889A9754445556671B
:102A600078BA42345689988895003334679AAA9880
:102A700076789A987766788BA40112BFFFFF600082
:102A80000234567788764469CEECA8644569CEDB7B
:102A900085456788776542100009FFFFF812006BD3
:102AA000A88766778A9986689AAA997643320179C7
:102AB000889998654226BA87766554444589A988DD
:102AC00077776543211117EFFFFFFFFFFFFFFD84BD
:102AD00022576544344556666665676655455566B2
:102AE0006789A74456679999B600344433457ABA42
:102AF00096579AA9886689A94134429FFFFF5001E1
:102B0000245666776643368AABCB98BCCA8ABBBA72
:102B100097533467776654320008FFFFE624421665
:102B2000AA9767889AA97579BA9654334542028A5A
:102B300099987665459A97766555555567665666B0
:102B400066555434445674235AFFFFFFFFFF90012B
:102B50004566778888776665555566666666655505
:102B60005555798666777899B92024665542258C23
:102B70009435579A98757AA62356645CFFFE200216
:102B80004556666543225789A99757ACB96579AA16
:102B900098742235666665432006FFFF94566523C8
:102BA0007B976799A975436AB7423456653104AA81
:102BB0009887776579865555556666666665555575
:102BC0005666778888776653002CFFFFFFF5003440
:102BD000456666777776555556765544445555661D
:102BE00066666666666777889B50135777664337D5
:102BF000854555569A867A9445788758FFFC002378
:102C000044555543112467888864469998644789D8
:102C100088764212355555443104FFFD6588864358
:102C20005A9669A86455547863356677643017B846
:102C30008877766666666666655554444556666569
:102C4000555677777666655442008FFFFF700134E2
:102C50004566777664433446654322234445567778
:102C600077777776666666788A93034579877655AF
:102C700064357764589769845689997AAAFD101348
:102C800044444321124677887643468988633577E2
:102C900088775421123444443004FDAB879997550A
:102CA00058868974567743564567889754215A98B1
:102CB000776666666777777777654443322234664E
:102CC000644334566677655442100BFFFD30002490
:102CD00056677663112456863112456667887654A6
:102CE00044444556677766556799524567AA988761
:102CF0005224778766886776669AAA9603FF7001E2
:102D0000233210002456777764224678876423564E
:102D10007776653100012332000AFB128A9A9866A1
:102D200067778756787641368889A9765326A865CD
:102D30005566776665444344456888766653211432
:102D40007765311246777665410007FFFD30002632
:102D5000666665201355675113456778976432237B
:102D6000445566677788998765578655668AA99915
:102D70004134578876787677779AAB8313BFF8100B
:102D800000000001345666654212467777642235AA
:102D9000666655431000000003BFF82149BA9877D2
:102DA0007767777887644226A99A9765556864564D
:102DB00088988877766555432223568987765421EB
:102DC0002676542003666666510006FFFF500037E2
:102DD000655551024555740245666898411234663E
:102DE0006778988766667789A975566666789AB80F
:102DF0002145545898788678889ABA63546DFFFEB6
:102E0000A5000012445555542113566776542113DA
:102E1000455555432000017BFFFFA44437BBA878EC
:102E20008678779974455304AAA977666665689A87
:102E30009876666678998776654311259976665403
:102E40001157554310255556620008FFFFB1001376
:102E500043232001223750034455675113456677B9
:102E6000799754332333444568886555677789B823
:102E70002145653369988867999ABA536767BDEFAA
:102E8000FFC20013344444321013566766542101C4
:102E90003444444321005FFFFEDA667537BBA998CE
:102EA00077888985345653049A987776556788765B
:102EB000544333323346898777655420267555430A
:102EC000202762211002223420003EFFFFFB100069
:102ED0000166104567CD40355447A400123444467E
:102EE000984112345556666555567775456788A8DA
:102EF00021466653149A89768AAABA6468987888B3
:102F00009CFB0002333332100013456666542100E7
:102F1000012333331003EFA98877898547BBAA972C
:102F20006899A822456653049A8876446777655560
:102F3000666666544321259854444320007A6445CC
:102F40004108EA76530374000004DFFFFFFFEBAA99
:102F5000BDFECDFFFFFEABFFFEEF9027876778AC8D
:102F6000700245567778888888988888754578A84B
:102F7000314577654149A99768ABBB74679A99AAAF
:102F8000A9BD9100000000000013455555442000E4
:102F900000000000003BDAAAAA99A87548BBBA76DF
:102FA000899A722456764315998654689888898838
:102FB0008888877665431019C9776778602DFEEF9A
:102FC000FEABFFFFFFCCFFCAAACFFFFFFFFFFFFF53
:102FD000FFFFFFFFFFFFFFFFFFFFBBFFFFFFFFFB49
:102FE00011544345677889AAA97666678864458A3B
:102FF0006245787664259899868ABC955679AAAAFE
:10300000BBBBDD95333567400002344444432000A8
:10301000157643347ADDBBBAAAAA97656ACB97784E
:103020009898325668864337A75457887666789AB8
:10303000AA88877653345404EFFFFFFFFEBCFFFFDE
:10304000FFFFFFFFFFFFFFFFFFFFFFFFFFFFFFFF90
:10305000FFFFFFFFFFFFFFFFFFFFFFFFFFFFFFFC83
:10306000DFFFEB8555669A854333344456776447D2
:10307000854568987643467898779BC96677899A9C
:10308000AABBCDEDBBBCEFC8300122111222000457
:10309000ADFDCBABDEDBBAAA99987766ACB8779971
:1030A000776435679986546864467765444333345A
:1030B00059A8655569CEFFFCDFFFFFFFFFFFFFFF4B
:1030C000FFFFFFFFFFFFFFFFFFFFFFFFFFFFFFFF10
:1030D000FFFFFFFFFFFFFFFFFFFFFFFFFFFFFFFF00
:1030E000FFFFFFFFDCCDB3002456666665667654AD
:1030F0007766679A88744677899877AB98888899B5
:10310000AABCCBA99ABDDB97840000000000005840
:103110007ACDCBA99BCCBBAA9888878AB9778987B7
:1031200077545789A976567645776556666665421F
:10313000006CDBCDFFFFFFFFFFFFFFFFFFFFFFFF87
:10314000FFFFFFFFFFFFFFFFFFFFFFFFFFFFFFFF8F
:10315000FFFFFFFFFFFFFFFFFFFFFFFFFFFFFFFF7F
:10316000FFFFFFFFFFFF8345544556788877788639
:103170004577778AA98755778899987899999AAAEF
:10318000BBBBA99ABCDCCA657CC757ADC9759DA6F7
:1031900057BCCDCAA9AABBBBAAA999997789988817
:1031A000865579AA977776546887778887655445D6
:1031B000533BFFFFFFFFFFFFFFFFFFFFFFFFFFFF8F
:1031C000FFFFFFFFFFFFFFFFFFFFFFFFFFFFFFFF0F
:1031D000FFFFFFFFFFFFFFFFFFFFFFFFFFFFFFFFFF
:1031E000FFFFFFFFFFFFFFFFEDCA98766899889801
:1031F00064567778ABA97578898999988888999A5F
:10320000A9999ABCDDCCB7558EFEEDCDDDEDEFC7AB
:10321000558CCCDDCA99999999998888899988980B
:1032200086679AB987776457998898767889BCEFCA
:10323000FFFFFFFFFFFFFFFFFFFFFFFFFFFFFFFF9E
:10324000FFFFFFFFFFFFFFFFFFFFFFFFFFFFFFFF8E
:10325000FFFFFFFFFFFFFFFFFFFFFFFFFFFFFFFF7E
:10326000FFFFFFFFFFFFFFFFFFFFFFFDB86799991B
:10327000975457888ABA97689999899AAA99998987
:1032800099ABCCDDCCCC8557CDA8998A98998BDAAF
:103290006569CCCCDDCBAA9998999AAAA988999905
:1032A0007679AA98876445899998779BEFFFFFFF05
:1032B000FFFFFFFFFFFFFFFFFFFFFFFFFFFFFFFF1E
:1032C000FFFFFFFFFFFFFFFFFFFFFFFFFFFFFFFF0E
:1032D000FFFFFFFFFFFFFFFFFFFFFFFFFFFFFFFFFE
:1032E000FFFFFFFFFFFFFFFFFFFFFFFFFFDB9889EF
:1032F000AA86456899AAA86689999999ABBBBBBB70
:10330000BCCCDCCCCCC8556ACA667557656767BC4F
:103310009656ACCCCCCDCCCBBBBBBBBA99999997CC
:10332000679AAA98764579A9988ABEFFFFFFFFFFA2
:10333000FFFFFFFFFFFFFFFFFFFFFFFFFFFFFFFF9D
:10334000FFFFFFFFFFFFFFFFFFFFFFFFFFFFFFFF8D
:10335000FFFFFFFFFFFFFFFFFFFFFFFFFFFFFFFF7D
:10336000FFFFFFFFFFFFFFFFFFFFFFFFFFFFFFD993
:1033700078AA854579AAA98667899ABBBBBBBBCCCD
:10338000CCCCCCCCDC85569B954552354235547B14
:10339000B86569CCCCCCCCCCCCBBBBBBBAA998654E
:1033A000799AAA975469A9888BEFFFFFFFFFFFFF67
:1033B000FFFFFFFFFFFFFFFFFFFFFFFFFFFFFFFF1D
:1033C000FFFFFFFFFFFFFFFFFFFFFFFFFFFFFFFF0D
:1033D000FFA12AFFFFFFFFFFFFFFC8BDCCCCCCCC75
:1033E000DB79EFFFF7599888888888888889758DF8
:1033F000DBAAA9754689AA98666789ABBBBBCCCC0A
:10340000CCCCCCBBA75569BA6334311331144337E4
:10341000BB86568BBCCCCCCCCCCBBBBBA99876673F
:1034200089AA976458AAABBDFFFFFFFFFFFFFFFF0C
:10343000FFFFFFFFFFFFFFFFFFFFFFFFFFFFFFFF9C
:10344000FFFFFFFFFFFFFFFFFFFFFFFFFFFFFFFF8C
:10345000FFB008FFFFFFFFFFFFFF9006877777773A
:1034600084009FFFF5016666666666798666102DA4
:10347000FFFFFFFC733589AA9765678899AAABBBE4
:10348000BBAA99886557ACA6224420132003432386
:103490008BC965578899AABBBBBAAA998875568902
:1034A000AA975348EFFFFFFFFFFFFFFFFFFFFFFF5C
:1034B000FFFFFFFFFFFFFFFFFFFFFFFFFFFFFFFF1C
:1034C000FFFFFFFFFFFFFFFFFFFFFFFFFFFFFFFF0C
:1034D000FFB00CFFFFFFFFFFFFFFA008A99999991C
:1034E000A602EFFFF506FFFFFFFFFFC7AFFF508FFC
:1034F000FFFFFFFFFC8435789987666667777777EB
:1035000077777766569CDB7324542014310244325B
:1035100049CDB75567777777777777666666789816
:10352000864359DFFFFFFFFFFFFFFFFFFFFFFFFFA6
:10353000FFFFFFFFFFFFFFFFFFFFFFFFFFFFFFFF9B
:10354000FFFFFFFFFFFFFFFFFFFFFFFFFD9CFEDE12
:10355000EFA00AFEDDEE74BFFFFFA008A9999999BC
:10356000A502EFFFF506FF624555551008FF507F95
:10357000FFFFFFFFFFFD8533577888776665555657
:10358000677776557BDEC84346642135521356541F
:10359000359DED96556777666555666677888764CD
:1035A000346AEFFFFFFFFFFFFFFFFFFFFFFFFFFF9B
:1035B000FFFFFFFF95669FFFC9BC9AEFFFFFB9BBF6
:1035C000A9A999CFD9ACA98AEFFFFFFFFD104766E3
:1035D000675005866675004FFFFFA007A889CB9846
:1035E000A501DFFFF506FFCACCCCCCEFFFFF507F73
:1035F000FFFFFFFFFFFFFFC85345667777777777B9
:103600007765568ADEEB844678753357742367876F
:103610005459CEECA765667777777777766543461A
:10362000ADFFFFFFFFFFFFFFFFFFFFFFFFFFFFFFFC
:10363000FFFFFF9007C800AFF6003BFFFFFFC4008D
:103640006BAA6006F9002AA400AFFFFFFE109FFFDF
:10365000FFB00CFFFFFD00AFFFFF9029BB5005AA94
:10366000B605FFFFF506FFFFFFFFFFFFFBDF507F03
:10367000FFFFFFFFFFFFFFFFEB8654444445555516
:1036800056679BDEEDB745789986447996447899DC
:1036900086458BDEECA9766555555444445579CF63
:1036A000FFFFFFFFFFFFFFFFFFFFFFFFFFFFFFFF2A
:1036B000FFFFF900CFFFC00AFE109FFFFFFFFA00D7
:1036C000CFFFFE10DF307FFFA006FFFFFE10AFFF31
:1036D000FFC00CFFFFFD00BFDCCCAADFFFF700BF7F
:1036E000FEEF9008F7026556886578861006407FE1
:1036F000FFFFFFFFFFFFFFFFFFFFEDCB99998889D9
:10370000ABCDDDDCB864689AAA86569AA85579AA2A
:10371000A975569BCDDDCCBA9888999ABCDFFFFF7E
:10372000FFFFFFFFFFFFFFFFFFFFFFFFFFFFFFFFA9
:10373000FFFFC007FFFFF701FF108FFFFFFFFA0039
:10374000CFFFFFD8DF307FFFFA008FFFFE10AFFF03
:10375000FFB00CFFFFFD00CF5145556777897678A4
:1037600075464103C7037597006B3039ABBA307F9C
:10377000FFFFFFFFFFFFFFFFFFFFFFFFFFFFFFDC7C
:10378000DDDDCB97544689ABAA8667ABB97679ABBA
:10379000BA9854468ABCDDDCCEFFFFFFFFFFFFFF77
:1037A000FFFFFFFFFFFFFFFFFFFFFFFFFFFFFFFF29
:1037B000FFFF800BFFFFFB00CF108FFFFFFFFA0022
:1037C000CFFF75EFFE207FFFFF303EFFFE10AFFF03
:1037D000FFC00CFFFFFD00BFFFFFE30676678877A1
:1037E0007204EFFFF506FFFD00DF606FFFFF507F03
:1037F000FFFFFFFFFFFFFFFFFFFFFFFFFFFFFFFCDC
:10380000ABB9853224689AAAA98668ABBA7668AA49
:10381000AAA986322468ABAADFFFFFFFFFFFFFFFE4
:10382000FFFFFFFFFFFFFFFFFFFFFFFFFFFFFFFFA8
:10383000FFFF501DFFFFFD108E208FFFFFFFFA00DE
:10384000BFFD11EFFE207FFFFF600CFFFE205A98A6
:103850008A6006A888A700AFFFFFF305A999999A87
:103860009105FFFFF506FFFA00FF606FFECD607F58
:10387000FFFFFFFFFFFFFFFFFFFFFFFFFFFFFFFE59
:103880008553101246889AA9986568ABBA7557890E
:10389000AA99876421124559FFFFFFFFFFFFFFFF31
:1038A000FFFFFFFFFFFFFFFFFFFFFFFFFFFFFFFF28
:1038B000FFFF402EFFFFFD207D308FFFFFFFFA004E
:1038C0006A9303FFFE207FFFFF700BFFFD007ECC9D
:1038D000CE9009ECCCEA00AFFFFFF209FFFFFFFF3B
:1038E000F20AFFFFF506FFF605FF606FFC37707FF9
:1038F000FFFFFFFFFFFFFFFFFFFFFFFFFFFFFFFFD8
:1039000070000135678999987644689AA97544686A
:10391000899987764200000BFFFFFFFFFFFFFFFF43
:10392000FFFFFFFFFFFFFFFFFFFFFFFFFFFFFFFFA7
:10393000FFFF402EFFFFFD207D308FFFFFFFFA00CD
:10394000BFFD01EFFE207FFFFF700BFFFD79FFFF42
:10395000FFC00CFFFFFE9AFFFFFFF207B985258B22
:10396000A009FFFFF506FFC00BFF606FFB05607F3E
:10397000FFFFFFFFFFFFFFFFFFFFFFFFFFFFFFFF57
:10398000E600124555679987632357999874324624
:10399000799865554320029FFFFFFFFFFFFFFFFF60
:1039A000FFFFFFFFFFFFFFFFFFFFFFFFFFFFFFFF27
:1039B000FFFF601DFFFFFC009E208FFFFFFFFA004E
:1039C000CFFF75EFFE207FFFFF600CFFFFFFFFFFC3
:1039D000FFB00CFFFFFFFFFFFFFFFB439FF506FC5F
:1039E00079CFFFFFF506FE00AFFF70068200008F63
:1039F000FFFFFFFFFFFFFFFFFFFFFFFFFFFFFFFFD7
:103A0000FFFCBBBCCCB76786311367877875212470
:103A100068768BCCCBBBDFFFFFFFFFFFFFFFFFFF15
:103A2000FFFFFFFFFFFFFFFFFFFFFFFFFFFFFFFFA6
:103A3000FFFF900AFFFFFA00CF108FFFFFFFFA0091
:103A4000CFFFFFFFFE207FFFFE304FFFFFFFFFFF96
:103A5000FFB00BFFFFFFFFFFFFFFF7003EF607FC85
:103A60003359EFFFF506A03EFFFFFA7667AB307FD4
:103A7000FFFFFFFFFFFFFFFFFFFFFFFFFFFFFFFF56
:103A8000FFFFFFFFFFFFA5431013555555543002AC
:103A9000446CFFFFFFFFFFFFFFFFFFFFFFFFFFFF84
:103AA000FFFFFFFFFFFFFFFFFFFFFFFFFFFFFFFF26
:103AB000FFFFF305FFFFF603FF108FFFFFF68900FE
:103AC000CFFFFFF58F407FFFF900AFFFFFFFFFFF44
:103AD000FFB00BFFFFFFFFFFFFE6003CFFF506FF17
:103AE000FA1005DFF60005EFCBCBDFFFFFFF407FCD
:103AF000FFFFFFFFFFFFFFFFFFFFFFFFFFFFFFFFD6
:103B0000FFFFFFFFFFFFFA3000048BCDDCA7200092
:103B100005DFFFFFFFFFFFFFFFFFFFFFFFFFFFFFCF
:103B2000FFFFFFFFFFFFFFFFFFFFFFFFFFFFFFFFA5
:103B3000FFFFFC008FFF900CFE108FFFFF808B00BB
:103B4000CFFFFF60AF307FFF8007FFFFFFFFFFFF6A
:103B5000FFB00BFFFFFFFFFE72039FFD536206FFE6
:103B6000FFFC200CF602BC98888888888899207F02
:103B7000FFFFFFFFFFFFFFFFFFFFFFFFFFFFFFFF55
:103B8000FFFFFFFFFFFFFFEB99BEFFFFFFFFDB998A
:103B9000CFFFFFFFFFFFFFFFFFFFFFFFFFFFFFFF65
:103BA000FFFFFFFFFFFFFFFFFFFFFFFFFFFFFFFF25
:103BB000FFFFFFF6025205FFB200267651005400C7
:103BC00037663004A600155004DFFFFFFFFFFFFF3C
:103BD000FFA01DFFFFFFFFFC57EFFFFFD5001CFFFD
:103BE000FFFFE52DF408FFFFFFFFFFFFFFFF609FD2
:103BF000FFFFFFFFFFFFFFFFFFFFFFFFFFFFFFFFD5
:103C0000FFFFFFFFFFFFFFFFFFFFFFFFFFFFFFFFC4
:103C1000FFFFFFFFFFFFFFFFFFFFFFFFFFFFFFFFB4
:103C2000FFFFFFFFFFFFFFFFFFFFFFFFFFFFFFFFA4
:103C3000FFFFFFFFE979EFFFA8BCA88889BCA9CBEB
:103C4000988889BEB8ACA88BFFFFFFFFFFFFFFFF7E
:103C5000FFFFFFFFFFFFFFFFFFFFFFFFFFFFFFFF74
:103C6000FFFFFFFFFFFFFFFFFFFFFFFF0F00000051
:103C70000000000000000000000000000000000044
:103C80000000000000000000000000F0070000003D
:103C90000000000000000000000000000000000024
:103CA0000000000000000000000000E00300000031
:103CB0000000000000000000000000000000000004
:103CC0000000000000000000000000C00100000033
:103CD00000000000000000000000000000000000E4
:103CE00000000000000000000000008001003C7E99
:103CF000F8C31FFE0F00FF8707FC0FFF0780FFC3FD
:103D0000C3FFE1FFF000FC818F0F008001003C3E0B
:103D1000F8C31FFE0F00FF8707FC0FFF0780FFC3DC
:103D2000C3FFE1FFF000FC81CF07008001003C1FD2
:103D3000F8E31FFE0F00FF8707FC0FFF0780FFC39C
:103D4000C3FFE1FFF000FC01CF07008001003C1F32
:103D5000F8E31FFE0F00FF8707FC0FFF0780FFC37C
:103D6000C3FFE1FFF000FC03CF03008001003C0F24
:103D7000F8E31F1E0F008F8707FC0F8F0780C7C354
:103D8000C3E3E1F1F000FC03DF0300800100BC0F9E
:103D9000F8E71F1E0F008F87073C008F0780C7C3FF
:103DA000C3E3E1F1F000DE03FE0300800100BC0785
:103DB000F8E71F1E0F008F87073C008F0780C7C3DF
:103DC000C307E0F1F000DE03FE0100800100FC0704
:103DD000F8E71E1E0F008F8707FC078F0780C7C3F9
:103DE000C31FE0F1F000DE03FE0100800100FC03D0
:103DF000F8E71E1E0F008F8707FC078F0780C7C3D9
:103E0000C37FE0F1F000DE03FC0100800100FC0351
:103E100078F71E1E0F008F8707FC078F0780C7C328
:103E2000C3FFE0FFF000DE07FC0000800100FC079C
:103E300078F71E1E0F008F8707FC078F0780C7C308
:103E400003FFE1FFF0009E07FC0000800100FC077B
:103E500078FF1E1E0F008F8707FC078F0780C7C3E0
:103E600003FCE1FFF0009F07F80000800100FC0F59
:103E7000787F1E1E0F008F87073C008F0780C7C307
:103E800003F0E1FFF000FF07780000800100BC0FA5
:103E9000787F1E1E0F008F87073C008F0780C7C3E7
:103EA000C3E3E17FF000FF07780000800100BC1F42
:103EB000787E1E1E0F008F87073C008F0780C7C3C8
:103EC000C3E3E101F000FF077800008001003C1F20
:103ED000787E1E1E0F008F87FFFC0F8F0780C7C3E1
:103EE000C3E3E101F01FFF0F7800008001003C3FB9
:103EF000787E1EFE0F00FF87FFFC0FFF0780FFC3C9
:103F0000C3FFE101F01FFF0F7800008001003C3E7D
:103F1000783E1EFE0F00FF87FFFC0FFF0780FFC3E8
:103F2000C3FFE101F09F8F0F7800008001003C7E0D
:103F3000783E1EFE0F00FF87FFFC0FFF0780FFC3C8
:103F4000C3FFE101F09F8F0F7800008001003C7CEF
:103F5000783C1EFE0F00FF87FFFC0FFF0780FFC3AA
:103F6000C3FFE101F09F8F0F780000800100000087
:103F70000000000000000000000000000000000041
:103F800000000000000000000000008001000000B0
:103F90000000000000000000000000000000000021
:103FA0000000000000000000000000800100000090
:103FB0000000000000000000000000000000000001
:103FC0000000000000000000000000800100000070
:103FD00000000000000000000000000000000000E1
:103FE0000000000000000000000000800100000050
:103FF00000000000000000000000000000000000C1
:10400000000000000000000000000080FFFFFFFF34
:10401000FFFFFFFFFFFFFFFFFFFFFFFFFFFFFFFFB0
:10402000FFFFFFFFFFFFFFFFFFFFFFFFFFFFFFFFA0
:10403000FFFFFFFFFFFFFFFFFFFFFFFFFFFFFFFF90
:10404000FFFFFFFFFFFFFFFFFFFFFFFF010000007B
:104050000000000000000000000000000000000060
:1040600000000000000000000000008001000000CF
:104070000000000000000000000000000000000040
:1040800000000000000000000000008001000000AF
:104090000000000000000000000000000000000020
:1040A0000000000000000000FEFFFF83C1FFFF7F53
:1040B00000E0FF3FC0FFFF3FC007FC0000F8FB012E
:1040C000007F00800FF80100FEFFFF83C1FFFF7F2C
:1040D00000E0FF3FC07FFF3FC0E7FF1F00F8FB810C
:1040E000FFFFFF80CFFF1F00FEFFFF83C1FFFF7FA9
:1040F00000F0FF7FC07FFF3FF0EFFF1FFCFFFF8757
:10410000FFFFFFE0FFFF1F000E008083C101007072
:1041100000F8FFFFC07F0F3EF0EFFF1FFCFFFF879F
:10412000FFFFFFE0FFFF1F000E008083C101007052
:1041300000F8FFFF001F0F3EF0EFFF1FFCFFFF879F
:10414000FFFFFFE0FFFF1F000E008083C101007032
:1041500000FE01FCC37F0F3EF0EFFF1FFCFFFF8757
:10416000FFFFFFE03FF801008EFF8F83C1F1FF7179
:1041700000FE00F8C37FFF3FF00FFC00FCFFFF07CD
:10418000007F00E03FF801008EFF8F83C1F1FF71D7
:1041900000FE00F8C37FFF3FC007FC0000F80300EB
:1041A000007F0080EFFF3F008EFF8F83C1F1FF7122
:1041B00000FEFFFFC37FFF3FC0E7FF1FE0FFFF8060
:1041C000FFFF7F80EFFF3F008EFF8F83C1F1FF7104
:1041D00000FEFFFF030F0000C0F7FF1FE0FFFF809E
:1041E000FFFF7F80EFFF3F008EFF8F83C1F1FF71E4
:1041F00000FEFFFFC3EFFF7FC0EFFF1FE0FFFF8068
:10420000FFFF7F80FFFF3F008EFF8F83C1F1FF71B3
:1042100000F8FF7FC0EFFF7FF0EFFF1FE0FFFF80A0
:10422000FFFF7FE01FC007008EFF8F83C1F1FF718A
:104230000000FC01C0EFFF7FF0EFFF1FE0FFFF80F9
:10424000FFFF7FE0DFFF3F008EFF8F83C1F1FF7133
:1042500000F8FF7FC0EFFF7FF0EFEF0FE0FBFB0107
:1042600001E07FE0DFFF3F008EFF8F83C1F1FF7130
:1042700000F8FF7FC06FF003F0CFFF07F0FBFB01FA
:10428000FEF31FE0DFFF3F008EFF8F83C1F1FF7160
:1042900000F8FF7FC06FFF3FF087FF07F0FBFB01D7
:1042A000FCFF0FE0CFFF3F008EFF8F83C1F1FF7156
:1042B00000F8FF7FC06FFF3FF007FF03F0FBFB013B
:1042C000F0FF07800FC007008EFF8F83C1F1FF71E1
:1042D00000F8FF7FC06FFF3FC007FE01F0FBFB014E
:1042E000E0FF01808FCF07008EFF8F83C1F1FF7148
:1042F0000000FC01C06FFF3FC007FF01F0FBFB01A6
:10430000E0FF01808FDF07000E008083C101007095
:1043100000FEFFFFC36FF003F0F7FF1FFCFBF38706
:10432000FFFFFF800FDF07000E008083C1010070D8
:1043300000FEFFFFC3EFFF7FF0F7FF1FFCF9F387DD
:10434000FFFFFFE00FC007000E008083C101007077
:1043500000FEFFFFC3EFFF7FF0F7FF1FFCF9F387BD
:10436000FFFFFFE00FFC0700FEFFFF83C1FFFF7FA1
:1043700000FEFFFFC3EFFF7FF0F7EF1FFCF9F387AD
:10438000FFE3FFE00FFC0700FEFFFF83C1FFFF7F9D
:1043900000FEFFFFC3EFFF7FF0F7C71FFCF9F387B5
:1043A000FFC1FFE00FFC0700FEFFFF83C1FFFF7F9F
:1043B00000000000404F00000000000000F8030073
:1043C000000000E00F00000000000080030000007B
:1043D00000000000000000000000000000000000DD
:1043E0000000000000000000000000C00700000006
:1043F00000000000000000000000000000000000BD
:104400000000000000000000000000E01F000000AD
:10441000000000000000000000000000000000009C
:104420000000000000000000000000F8FFFFFFFF98
:10443000FFFFFFFFFFFFFFFFFFFFFFFFFFFFFFFF8C
:10444000FFFFFFFFFFFFFFFFFFFFFFFF0000000078
:104450000000000001020304060708090000000034
:1044600001020304A0860100400D0300801A06002B
:1044700000350C0040420F0080841E0000093D0002
:1044800000127A000024F40000366E010048E801B2
:10449000006CDC02000000000000000000000000D2
:1044A00000000000000000080808080808080000D4
:1044B0001818000000486C241200000000000000E2
:1044C000000000000000002424247F1212127F123A
:1044D000121200000000081C2A2A0A0C1828282A98
:1044E0002A1C080800000022251515152A585454C6
:1044F000542200000000000C1212120A7625291125
:10450000916E000000060604030000000000000099
:1045100000000000004020101008080808080810DB
:10452000102040000002040808101010101010089D
:10453000080402000000000008086B1C1C6B08083F
:104540000000000000000000080808087F080808B4
:104550000800000000000000000000000000000053
:10456000060604030000000000000000FE0000003A
:10457000000000000000000000000000000000003B
:1045800006060000000080404020201010080804AB
:104590000402020000000018244242424242424209
:1045A00024180000000000080E0808080808080881
:1045B000083E00000000003C424242202010080457
:1045C000427E00000000003C424220182040404251
:1045D000221C0000000000203028242422227E20FB
:1045E000207800000000007E0202021A26404042AD
:1045F000221C0000000000382402021A2642424217
:10460000241800000000007E22221010080808086C
:10461000080800000000003C4242422418244242A4
:10462000423C0000000000182442424264584040CE
:10463000241C00000000000000001818000000000A
:104640001818000000000000000000080000000032
:1046500000080804000000402010080402040810AC
:10466000204000000000000000007F0000007F00EC
:104670000000000000000002040810204020100884
:10468000040200000000003C42424640201010009E
:10469000181800000000001C225A555555552D428F
:1046A000221C00000000000808181414243C2242B8
:1046B00042E700000000001F2222221E2242424246
:1046C000221F00000000007C424201010101014262
:1046D000221C00000000001F22424242424242428D
:1046E000221F00000000003F4212121E121202425E
:1046F000423F00000000003F4212121E121202024E
:10470000020700000000003C222201010171212269
:10471000221C0000000000E7424242427E42424228
:1047200042E700000000003E0808080808080808E2
:10473000083E00000000007C101010101010101037
:104740001010110F0000007722120A0E0A12122216
:1047500022770000000000070202020202020202A9
:10476000427F000000000077363636362A2A2A2A91
:104770002A6B0000000000E346464A4A5252526249
:10478000624700000000001C22414141414141417B
:10479000221C00000000003F424242423E02020250
:1047A000020700000000001C2241414141414D53DD
:1047B000321C60000000003F4242423E12122222A0
:1047C00042C700000000007C424202041820404220
:1047D000423E00000000007F490808080808080859
:1047E000081C0000000000E74242424242424242AE
:1047F000423C0000000000E7424222242414141826
:10480000080800000000006B494949495555362207
:1048100022220000000000E7422424181818242453
:1048200042E700000000007722221414080808085C
:10483000081C00000000007E212010100804044223
:10484000423F00000078080808080808080808081F
:10485000080878000000020204040808081010206C
:1048600020204040001E10101010101010101010CA
:1048700010101E000038440000000000000000007E
:104880000000000000000000000000000000000028
:10489000000000FF0006080000000000000000000B
:1048A00000000000000000000000003C427844428C
:1048B00042FC0000000000030202021A26424242AB
:1048C000261A000000000000000000384402020226
:1048D00044380000000000604040407844424242BA
:1048E00064D80000000000000000003C427E02028C
:1048F000423C0000000000F08808087E0808080814
:10490000083E0000000000000000007C22221C0283
:104910003C42423C000000030202023A464242424C
:1049200042E700000000000C0C00000E0808080818
:10493000083E000000000030300000382020202019
:104940002020221E0000000302020272120A161228
:10495000227700000000000E080808080808080870
:10496000083E0000000000000000007F929292923A
:1049700092B70000000000000000003B46424242A7
:1049800042E70000000000000000003C42424242BA
:10499000423C0000000000000000001B2642424292
:1049A000221E02070000000000000078444242423C
:1049B000447840E000000000000000774C0404044C
:1049C000041F0000000000000000007C42023C4088
:1049D000423E0000000000000008083E08080808E9
:1049E0000830000000000000000000634242424224
:1049F00062DC000000000000000000E742242414F4
:104A00000808000000000000000000EB494955556F
:104A10002222000000000000000000762418181870
:104A2000246E000000000000000000E7422424146F
:104A300018080807000000000000007E2210080887
:104A4000447E000000C020202020201020202020B4
:104A50002020C00010101010101010101010101096
:104A600010101010000608080808081008080808A8
:104A7000080806000C32C200000000000000000020
:104A80000000000000000000000000000000000026
:104A90000000000000000000000000000000000016
:104AA0000000000000000000000000000000000006
:104AB0000000000000000000000000006000600036
:104AC0006000600060006000600040002000200086
:104AD0002000000000000000600060006000000096
:104AE000000000000000000060066006300398012E
:104AF00088004400000000000000000000000000EA
:104B000000000000000000000000000000000000A5
:104B10000000000000000000000000001002100271
:104B200010021002FE07FE07080208010801080132
:104B30000801FE07FE07040104010401040100004E
:104B40000000000000000000000040004000F001F4
:104B500058034C03CC034C0058007000E000C00127
:104B6000C00140034C035C034C034801F0004000CB
:104B70004000000000000000000000000E010A01DB
:104B8000910091009100510051003A00AE03A00243
:104B9000500450044804480448048402840300007C
:104BA00000000000000000000000000038006C0061
:104BB0006C006C006C006C002C0098071C011A0142
:104BC000330133016301E300C308C6093C07000059
:104BD00000000000000000000C001C00100010008D
:104BE00008000400000000000000000000000000B9
:104BF00000000000000000000000000000000000B5
:104C0000000000000000000000040002000180001D
:104C100080004000400020002000200020002000F4
:104C200020002000400040008000800000010002C1
:104C30000004000000000000020004000800100052
:104C400010002000200040004000400040004000D4
:104C50004000400020002000100010000800040068
:104C60000200000000000000000000000000000042
:104C70004000C0004000460C4E0FD001F0015E0F16
:104C8000460C400040004000000000000000000012
:104C90000000000000000000000000000000000014
:104CA000000040004000400040004000FE0F400077
:104CB00040004000400040000000000000000000F4
:104CC00000000000000000000000000000000000E4
:104CD00000000000000000000000000000000000D4
:104CE00000000000000000000C001C00100010007C
:104CF00008000400000000000000000000000000A8
:104D0000000000000000000000000000FE0700009E
:104D10000000000000000000000000000000000093
:104D20000000000000000000000000000000000083
:104D30000000000000000000000000000000000073
:104D400000000000000000001C001C001C0000000F
:104D50000000000000000000000400060002000344
:104D60000001000180008000400040006000200041
:104D7000200010001000080008000C0004000600CD
:104D80000200000000000000000000000000F00031
:104D900098010C030C030606060606060606060620
:104DA0000606060606060C030C039801F000000038
:104DB00000000000000000000000000000004000B3
:104DC0007C006000600060006000600060006000C7
:104DD000600060006000600060006000FC03000094
:104DE0000000000000000000000000000000F800CB
:104DF0008401020306030603000300018001C000D2
:104E0000600020001000080204020602FE030000F9
:104E1000000000000000000000000000000078001A
:104E2000C6008601860180018001C00070008001FB
:104E3000000100030003060306038601F8000000DA
:104E400000000000000000000000000000008001E1
:104E50008001C001A001A0019001880188018401A6
:104E60008201FE0F8001800180018001E0070000C7
:104E70000000000000000000000000000000FC0333
:104E800004000400040004000400F4008C01040386
:104E9000000300030603060382018401F8000000FA
:104EA0000000000000000000000000000000E00121
:104EB00018030C030C0004000600E60116030E069E
:104EC00006060606060604060C021803F00000009B
:104ED0000000000000000000000000000000F807D3
:104EE0000C06040204010001000180008000400063
:104EF0004000400060006000600060006000000052
:104F00000000000000000000000000000000F801A8
:104F10000C030606060606060C021C03F000C80178
:104F20000C0306060606060606060C03F001000042
:104F30000000000000000000000000000000F00081
:104F40000C010C03060206060606060606078C067A
:104F500078060006000300030C018C0178000000B5
:104F60000000000000000000000000000000000041
:104F70000000000000000000E000E000E000000091
:104F80000000000000000000E000E000E000000081
:104F90000000000000000000000000000000000011
:104FA0000000000000000000600060000000000041
:104FB00000000000000000000000600060004000F1
:104FC000200020000000000000000000000400029B
:104FD00000018000400020001000080004000800CC
:104FE00010002000400080000001000200040000CA
:104FF00000000000000000000000000000000000B1
:105000000000000000000000FE070000000000009B
:10501000FE0700000000000000000000000000008B
:105020000000000000000000000000000400080074
:105030001000200040008000000100020004000277
:105040000001800040002000100008000400000063
:105050000000000000000000000000000000E0036D
:105060001806040C040C0C0C0C0C0007800140000A
:105070004000400000000000E000E000E000000010
:10508000000000000000000000000000E000180325
:105090000C02CC0564056605A605B604B604B60484
:1050A000B604B602E4010C040C021803F000000080
:1050B0000000000000000000000000000000600090
:1050C00060005000D0009000900088008801080126
:1050D000F801040304030402020202060F0F000099
:1050E0000000000000000000000000000000FE00C2
:1050F0008C030C030C030C030C038C01FC000C034D
:105100000C020C060C060C060C060C03FE0100003B
:105110000000000000000000000000000000E003AC
:1051200018030C060C040404060006000600060022
:105130000600060006040C040C021803F000000030
:1051400000000000000000000000000000007F00E0
:105150008C010C030C030C060C060C060C060C064A
:105160000C060C060C060C030C038C017F000000DF
:105170000000000000000000000000000000FF032D
:10518000060306040604060086008600FE0086006C
:10519000860086000600060406040602FF030000DF
:1051A0000000000000000000000000000000FF03FD
:1051B000060306040604060086008600FE0086003C
:1051C0008600860006000600060006001F0000009C
:1051D0000000000000000000000000000000F000DF
:1051E00018010C020C02040206000600060006006C
:1051F000C60F060306030C030C031803F00000009F
:1052000000000000000000000000000000000F0F80
:10521000060606060606060606060606FE07060635
:105220000606060606060606060606060F0F000018
:105230000000000000000000000000000000FC036F
:10524000600060006000600060006000600060005E
:10525000600060006000600060006000FC0300000F
:105260000000000000000000000000000000F8073F
:10527000C000C000C000C000C000C000C000C0002E
:10528000C000C000C000C000C000C000C000C60018
:1052900066003C0000000000000000000000CF039A
:1052A0008601C60046002600160036002E006E005D
:1052B0004600C60086008601060106038F0700002F
:1052C00000000000000000000000000000001F00BF
:1052D000060006000600060006000600060006009E
:1052E000060006000600060406040602FF0300008E
:1052F00000000000000000000000000000000707A0
:10530000860386038E038E034E034E034A035A031D
:105310005A033A03320332033203120387070000B1
:1053200000000000000000000000000000008E0FE0
:105330000C021C021C0234023402640264024402A5
:10534000C402840284038403040304031F020000D4
:105350000000000000000000000000000000F0005D
:1053600098010C030C02060606060606060606064B
:105370000606060606060C020C039801F000000063
:105380000000000000000000000000000000FF001E
:105390000603060606060606060606068603FE0041
:1053A0000600060006000600060006001F000000BA
:1053B0000000000000000000000000000000F000FD
:1053C00098010C030C0206060606060606060606EB
:1053D0000606060676064C02CC039801F00080070C
:1053E0000003000000000000000000000000FF01BA
:1053F000060306060606060606060603FE00460027
:10540000C600860086010603060306060F0E00008E
:105410000000000000000000000000000000F80292
:105420000C030602060206000E003C00F800E00332
:10543000800300070206020606060C03F0010000C6
:105440000000000000000000000000000000FE0757
:105450006204610861086000600060006000600034
:10546000600060006000600060006000F801000003
:1054700000000000000000000000000000001E0707
:105480000C020C020C020C020C020C020C020C02AC
:105490000C020C020C020C020C021801F0000000BD
:1054A00000000000000000000000000000000F07E6
:1054B0000602040104010C010C0188008800980018
:1054C00098005000500070003000200020000000C4
:1054D0000000000000000000000000000000F70EC7
:1054E000620442044604460464026402E402E402E4
:1054F0009C029C01980198018801880088000000A6
:1055000000000000000000000000000000009E07F6
:105510000C01080118019000B0006000200060003C
:105520006000D00090008801080104038E0700008D
:1055300000000000000000000000000000000F0F4D
:10554000060404020C0208011801B800B000700043
:10555000600060006000600060006000F801000012
:105560000000000000000000000000000000FC0738
:105570000C02060302018001800040004000200070
:1055800020001000180008040C040402FE030000B0
:105590000000000000000000E003200020002000C8
:1055A00020002000200020002000200020002000FB
:1055B00020002000200020002000200020002000EB
:1055C000E0030000000000000000000004000400F0
:1055D000080008001000100010002000200040000B
:1055E0004000C000800080000001000100020002B5
:1055F00000020004000000007C0040004000400069
:10560000400040004000400040004000400040009A
:10561000400040004000400040004000400040008A
:105620007C00000000006000900008010000000005
:10563000000000000000000000000000000000006A
:10564000000000000000000000000000000000005A
:10565000000000000000000000000000000000004A
:10566000000000000000000000000000000000003A
:10567000000000000000000000000000000000002A
:105680000000FF0F00000000180060000000000094
:10569000000000000000000000000000000000000A
:1056A00000000000000000000000000000000000FA
:1056B00000000000000000000000000000000000EA
:1056C0000000000000000000F0010C030C030003C8
:1056D000E0031C030E03060306038E0B7C0E000082
:1056E00000000000000000000000000008000E00A4
:1056F0000C000C000C000C00CC013C031C060C063A
:105700000C060C060C060C060C021C03E40100003F
:105710000000000000000000000000000000000089
:105720000000000000000000F0008C018C018601E8
:1057300006000600060006020C020C01F000000044
:105740000000000000000000000000000002C00394
:10575000000300030003000378038C030C0306031B
:10576000060306030603060304038C077801000002
:105770000000000000000000000000000000000029
:105780000000000000000000E001180308020C0601
:105790000C06FC070C000C0018041802E0010000C5
:1057A0000000000000000000000000000000C00336
:1057B0006006300630003000FE013000300030005E
:1057C000300030003000300030003000FC010000BC
:1057D00000000000000000000000000000000000C9
:1057E0000000000000000000F007D8068C018C01CA
:1057F0008C019801F8000C00FC00CC0306030603A2
:105800008E03F800000000000000000008000E00F9
:105810000C000C000C000C00EC011C030C030C032E
:105820000C030C030C030C030C030C039E07000079
:105830000000000000000000000000000000600008
:1058400060000000000040007C006000600060001C
:10585000600060006000600060006000FC03000009
:105860000000000000000000000000000000C00177
:10587000C001000000000001F001800180018001F2
:105880008001800180018001800180018001800110
:10589000CC007C00000000000000000008000E00AA
:1058A0000C000C000C000C008C038C008C004C00D5
:1058B0006C005C008C008C010C010C039E07000046
:1058C00000000000000000000000000040007C001C
:1058D00060006000600060006000600060006000C8
:1058E000600060006000600060006000FC03000079
:1058F00000000000000000000000000000000000A8
:1059000000000000000000003707EE06660666068D
:10591000660666066606660666066606FF0F0000F1
:105920000000000000000000000000000000000077
:105930000000000000000000EE011C030C030C033B
:105940000C030C030C030C030C030C039E07000058
:105950000000000000000000000000000000000047
:105960000000000000000000F00098010C03060693
:1059700006060606060606060C030C03F0000000E9
:105980000000000000000000000000000000000017
:105990000000000000000000EE011C030C060C06D5
:1059A0000C060C060C060C060C031C03EC010C0088
:1059B0000C003E000000000000000000000000009D
:1059C000000000000000000078028C030C030603B6
:1059D000060306030603060304038C03780300038F
:1059E0000003C007000000000000000000000000ED
:1059F00000000000000000009F0358063806180051
:105A0000180018001800180018001800FF00000007
:105A10000000000000000000000000000000000086
:105A20000000000000000000F0031C030C020C0248
:105A30003800F000C003040304038C03FC010000E1
:105A40000000000000000000000000000000000056
:105A50002000200030003000FE0130003000300017
:105A6000300030003000300030023002E001000031
:105A70000000000000000000000000000000000026
:105A800000000000000008028E030C030C030C034E
:105A90000C030C030C030C030C039C07780100009F
:105AA00000000000000000000000000000000000F6
:105AB00000000000000000001E070C0208010801A1
:105AC00018019000B000B0006000600020000000ED
:105AD00000000000000000000000000000000000C6
