:10084400B9E3B6ABECC7BBD4BFC600BCBCD3D0CFF6
:06085400DEB9ABCBBE00D3
:10052A001207CF7F207E001208147E007F831208F4
:10053A00857A087B447D017F021208ED7A087B4F99
:10054A007D027F021208ED7FF41208707F207E0080
:10055A001208147DAA7F5512070E7FF41208707DC7
:10056A00557FAA12070E7FF41208707DFFE4FF126E
:10057A00070E7FF4120870E4FD7FFF12070E7FF466
:10058A001208707D557F5512070E7FF41208707D90
:10059A00AA7FAA12070E7FF41208707DFF7FFF124E
:0905AA00070E7FF412087080AA0C
:1007F200D6D0CEC4D7D6B7FBCDBCD0CEB5E3D5F3D9
:0E08020000D2BABEA7CFD4CABEC4A3BFE900BD
:03085A0012085D24
:10085D00E4FFE4FEE4FD0DBD33FC0EBE40F60FBF1C
:02086D001EF07B
:01086F002266
:040810007F207E00C7
:100814008E088F09E4F516F515AF09AE081205B375
:09082400E51570F5E51670F122EE
:0405B3008E0C8F0D0E
:1005B700D3E50D9480E50C94004035E51530E0084F
:1005C7007F201208AB1208CF12074BE4E50CB4FFEB
:1005D7000DC374FF950DF50D74FF950CF50CE50C27
:1005E700FF1208AB1208CFAF0DE50D1208AB802341
:1005F70012074BE51530E0111208DE8F0E12074B7C
:10060700AF0E1208ABAF0D8007AF0D1208AB7F20FE
:060617001208AB1208CF2F
:01061D0022BA
:040674008E088F0954
:10067800850982850883E493750A00F50B0509E569
:100688000970020508E50B450A6035C3E50B94803F
:10069800E50A94005009AF0BAE0A1205B380D18564
:1006A8000982850883E493FD7C00E50BFEE42DFFB9
:1006B800EC3EFE1205B30509E50970B4050880B0E3
:0106C800220F
:0D08ED00AC07AF03AE028C158D1602067429
:0606C9008F118C128D134D
:1006CF007F341208BD7F021208BD7F301208BDE5CE
:1006DF00115403C454F04440FF1208BDE4F514E56F
:1006EF0014C394205018851382851283E493FF124C
:0E06FF0008AB05140513E51370E5051280E144
:01070D0022C9
:08061E008F088D098A0A8B0B7D
:1006260085170EE4F50DE50DC39509503D850E17AA
:10063600E4F50CE50CC39508502AE51720E30312F0
:10064600077D850B82850A83E493FF1208AB050BB1
:10065600E50B7002050A7408250CF50C74082517BD
:0D066600F51780CF050D051880BC850E1717
:010673002264
:040885008F828E834D
:0F088900E493FFA3E493FDA3AB82AA8302061EB0
:10074B0053150FE515C313F50FE5167006E50F44AA
:10075B0080801AE516B40106E50F4490800FE5166C
:10076B00B40206E50F44888004E50F4498FF120895
:01077B00BDC0
:01077C00225A
:0F08CF00051553150FE515700505165316032271
:1007CF007F331208BD1208987F301208BD120898A7
:1007DF007F301208BD1208987F011208BD120898C9
:0307EF00020906F6
:10089800E4FFE4FEE4FD0DBD33FC0EBE40F60FBFE1
:0208A80003F05B
:0108AA00222B
:0207A7008F19A8
:1007A900E4F517F51812077DE4F51AAF191208AB2D
:1007B900051AE51AC3941040F20518E518C39440C8
:0507C90040E3E4F51817
:0107CE002208
:10077D007F361208BDE518541F4480FF1208BDE5F1
:10078D0018C39420E517C4540F4004240880004476
:0A079D0080FF1208BD7F300208BD86
:0A0906007F301208BD7F0C0208BD0F
:0A0910007F301208BD7F080208BD09
:0A091A007F361208BD7F300208BDD1
:0A0924007F341208BD7F300208BDC9
:0E08DE0012082DD2B0D2B1D2B200AF90C2B289
:0108EC0022E9
:1008AB008F0F12082D850F90D2B0C2B1D2B200C2F9
:0208BB00B22267
:1008BD008F1012082D851090C2B0C2B1D2B200C2F5
:0208CD00B22255
:10082D007590FFC2B0D2B1D2B2E4FFE59030E704CB
:06083D000FBF14F7C2B268
:010843002292
:100485001207CF1208107A077BF27D01E4FF1208EC
:10049500ED12085A7A087B037D027F021208ED12DD
:1004A500085A751B30AF1B7E0012081412085D0533
:1004B5001BE51BC3943A40ED12081012085D751B2D
:1004C50041AF1B7E001205B312085D051BE51BC37A
:1004D500945B40ED751504E4F51674FFFFFE1205F7
:1004E500B312085D7FFD7EFF1205B312085D751519
:1004F500047516017FFB7EFF1205B312085D7FF9B7
:100505007EFF1205B312085D12085D12081012096C
:100515001AE4F517F5187E007F83120885E4FF12AB
:0505250007A7020924F4
:06087000AE071FEE600E52
:0C08760075080C7509A9D509FDD508FA14
:0308820080EC22E5
:04070E008F088D09BA
:10071200E4F517F50A850A1812077DE4F50BE50AD8
:1007220030E009AF081208ABAF088007AF09120822
:10073200ABAF091208AB050BE50BC3940840DF050C
:080742000AE50AC3944040CD12
:01074A00228C
:10000300000F007F01F003C0070F0E3F1CFE39FCF9
:1000130033FC73FE67FF67E7CFE3CFE1CFE4C006AE
:10002300F000FE000F8003C0F0E0FC707F383F9CBF
:100033003FCC7FCEFFE6E7E6C7F387FF27FF6003EA
:10004300C007FFE7FFE7CFE767E767FF73FF33FF0C
:1000530039FF1CFF0E3F070F03C001F0007F000FA5
:10006300E003E7F3E7F3E7F3E7E6FFE6FFCEFFCCD2
:10007300FF9CFF38FC70F0E003C00F80FE00F0002F
:100083008040FFFFFFFFFFFFFFFFFFFFFFFFFFFFBB
:10009300FFFF8000000000000000000000000000DF
:1000A30000018000000000000000000000000000CC
:1000B30000018000000000000000000000000000BC
:1000C30000018000000000000000000000000000AC
:1000D300000180000000000000000000000000009C
:1000E300000180000000000000000000000000008C
:1000F300000180000000000000000000000000007C
:10010300000180000000000000000000000000006B
:10011300000180000000000000000000000000005B
:10012300000180000000000000000000000000004B
:10013300000180000000000000000000000000003B
:10014300000180000000000000000000000000002B
:10015300000180000000000000000000000000001B
:10016300000180000000000000000000000000000B
:1001730000018000000000000000000000000000FB
:1001830000018000000000000000000000000000EB
:1001930000018000000000000000000000000000DB
:1001A30000018000000000000000000000000000CB
:1001B30000018000000000000000000000000000BB
:1001C30000018000000000000000000000000000AB
:1001D300000180000000000000000000000000009B
:1001E300000180000000000000000000000000008B
:1001F300000180000000000000000000000000007B
:10020300000180000000000000000000000000006A
:10021300000180000000000000000000000000005A
:10022300000180000000000000000000000000004A
:10023300000180000000000000000000000000003A
:10024300000180000000000000000000000000002A
:10025300000180000000000000000000000000001A
:10026300000180000000000000000000000000000A
:1002730000018000000000000000000000000000FA
:1002830000018000000000000000000000000000EA
:1002930000018000000000000000000000000000DA
:1002A30000018000000000000000000000000000CA
:1002B30000018000000000000000000000000000BA
:1002C30000018000000000000000000000000000AA
:1002D300000180000000000000000000000000009A
:1002E300000180000000000000000000000000008A
:1002F300000180000000000000000000000000007A
:100303000001800000000000000000000000000069
:100313000001800000000000000000000000000059
:100323000001800000000000000000000000000049
:100333000001800000000000000000000000000039
:100343000001800000000000000000000000000029
:100353000001800000000000000000000000000019
:100363000001800000000000000000000000000009
:1003730000018000000000000000000000000000F9
:1003830000018000000000000000000000000000E9
:1003930000018000000000000000000000000000D9
:1003A30000018000000000000000000000000000C9
:1003B30000018000000000000000000000000000B9
:1003C30000018000000000000000000000000000A9
:1003D3000001800000000000000000000000000099
:1003E3000001800000000000000000000000000089
:1003F3000001800000000000000000000000000079
:100403000001800000000000000000000000000068
:100413000001800000000000000000000000000058
:100423000001800000000000000000000000000048
:100433000001800000000000000000000000000038
:100443000001800000000000000000000000000028
:100453000001800000000000000000000000000018
:100463000001800000000000000000000000000008
:100473000001FFFFFFFFFFFFFFFFFFFFFFFFFFFF86
:02048300FFFF79
:030000000208FAF9
:0C08FA00787FE4F6D8FD75811B02052A0A
:00000001FF
