:03026E0001570035
:10008F0012033EE4FF1202F2E4F55DE4F55EAD5DAE
:10009F00AF5E120373055EE55ED3940640F0755EA6
:1000AF0007AD5DAF5E120383055EE55ED39414402A
:1000BF00F0055DE55DD3940F40D112030CEF60FAAC
:1000CF000557535701E55714601F0470EDE4F559B8
:1000DF00E559C3942A50E37D01AF591201627D03A4
:1000EF00AF59120162055980E7E4F559E559C394F8
:1000FF002A50C7E4FDAF591201627D02AF591201B8
:05010F0062055980E7C4
:100271000F2CAFA0CBE9E46D6FA8EFEC4007AFE620
:10028100FF0F08FA0ABC9E4ED6F68AFECE4070FADF
:020291006EFFFE
:0402D8007F027E0023
:1002DC00EF1FAA0670011E4A600B7D0AAC051DECCF
:0502EC0060EE0080F748
:0102F10022EA
:1002B9008F3E8E3D8D3C8C3B783B74FF1201BBEC2D
:0F02C9004D4E4F60097FE87E031202DC80EA226F
:10035300D2B1D2B01202D8C2B07F027E000202DC58
:10036300D2B1C2B01202D8D2B07F027E000202DC48
:08020E001203537F7E120294DB
:10021600C2B11202D8D2B17F107E27EF1FAC067092
:10022600011ED39400EC9400400930B0047B018099
:07023600EAE4FBC2B1AF03D3
:01023D00229E
:02029400AB07B6
:100296007908AF0119EF601AC2B1EB30E704D2B0AA
:1002A6008002C2B0EB25E0FB1202D8D2B11202D80E
:0202B60080E0E6
:0102B8002223
:100326008F3B12020EBF01028008AF3B12029412ED
:0803360002161203637F00228E
:10023E008F3B8D3C12020EBF01028018AF3B1202A3
:10024E0094120216BF0102800BAF3C1202941202EE
:10025E0016BF01061203637F01221203637F002281
:080114008F518B528A5389546C
:10011C0012020EBF01028038AF5112029412021665
:10012C00BF0102802BE4F556E556C395555021AB23
:10013C00520554E554AA537002055314F91201A048
:10014C00FF120294120216BF01028004055680D8D9
:05015C001203637F00A7
:01016100227B
:1002F200E4FE743B2EF8A6070EBE1CF67B007A00C5
:0A030200793B755516E4FF02011463
:02016200AE07E6
:10016400EE20E00FA8057401088002C333D8FCF523
:100174003B8010ED2404FFF87401088002C333D8D7
:10018400FCF53BEEC313FF2417F8E6453BF53CF6BC
:0C0194007B007A00793C755501020114D3
:1001D9008F5F8D60E55F20E012C313FFAE60A80654
:1001E9007401088002C333D8FC8014E55FC313FF90
:1001F900E5602404FEF87401088002C333D8FCF4D6
:05020900FD12023E227F
:050393007F800203263B
:050398007F8C0203262A
:05039D00D2B1D2B02234
:10033E0012039D7F8C120326755A047FC01203266A
:05034E007F720203268E
:10030C0020A0147F017E007D007C001202B920A089
:0A031C000630A0FD7F01227F0022C1
:0F037300EDC3940F5009742C2DF8E6FD12023ED5
:010382002258
:0F038300EDC3940F500974082DF8E6FD12023EE9
:010392002248
:03000000020003F8
:0C000300787FE4F6D8FD75816002004AA9
:1001A000BB010689828A83E0225002E722BBFE025D
:0901B000E32289828A83E4932290
:1001B9007401FF3395E0FEFDFC080808E6CF2FF631
:1001C90018E6CE3EF618E6CD3DF618E6CC3CF6220A
:10000F0002008FE493A3F8E493A34003F68001F278
:10001F0008DFF48029E493A3F85407240CC8C333F2
:10002F00C4540F4420C8834004F456800146F6DFC1
:10003F00E4800B010204081020408090026EE47EE1
:10004F00019360BCA3FF543F30E509541FFEE493B6
:10005F00A360010ECF54C025E060A840B8E493A37D
:10006F00FAE493A3F8E493A3C8C582C8CAC583CAA8
:10007F00F0A3C8C582C8CAC583CADFE9DEE780BE60
:01029300006A
:00000001FF
