:03000000021CFAE5
:0C1CFA00787FE4F6D8FD758107021D41DB
:101A95001221657F327E001220DF121BD0E4FDFF8C
:101AA500121C651213F07FDC7E051220DF121277FF
:101AB5007FE87E031220DF7BFF7A0879C312180EB8
:101AC5007FE87E031220DF1213F07FE87E031220E9
:101AD500DF7D0F7FF01218E37FE87E031220DF7DA4
:101AE500CC7F331219BC7FE87E031220DF7DAA7FED
:101AF50055121C657FE87E031220DF1213F07FE884
:101B05007E031220DF7D557F55121C657FE87E031D
:101B15001220DFE4FD7FFF121C657FE87E031220A3
:0F1B2500DF7DFFE4FF121C657FE87E030220DFF7
:100003000000FC04040404050604040404060400BC
:1000130040300F000000000000000000000000005E
:100023000808088868180FE808080888080C0800FA
:10003300004021110D41817F01050931610000005C
:10004300807000FF209840F807407FA090C8000010
:10005300806018070834040504FF04040406040040
:100063004448D07FD04C48A6623AA22232260200EE
:1000730040300F003F1008090909FF09090D080066
:10008300242424A4FEA32200244800FF00800000AF
:1000930010080601FF000102020202FF0101010034
:1000A300101010FF1010888888FF88888C080000C3
:1000B3000444827F018081462810282641C04000E5
:1000C30004040484E43C2724242424F424060400A4
:1000D30004020100FF0909090949897F00000000A2
:1000E30000FE0222DA0600FE92929292FF020000C4
:1000F30000FF0810080700FF4224081422612000B3
:1001030000008040300C00C0061820408080800032
:100113000101003028242320202830600001000042
:100123001010929292929292D29A1202FF020000BF
:1001330000003F10101010103F0040807F000000AF
:1001430000000808FC000000000010101F10100041
:1001530000380404048478000018141211101800E5
:100163000018048484443800000C101010110E0091
:100173000000C02018FC000000030212121F12121C
:1001830000FC444444840400000C101010080700D1
:1001930000F08844444880000007081010100F0046
:1001A300000C0404C4340C000000001F0000000015
:1001B3000038448484443800000E111010110E00DE
:1001C30000F804040488F000000009111108070076
:1001D3002020C0F8C0202000010100070001010019
:1001E30000808080F0808080000000000700000015
:1001F3000000E01C70800000101E110101131C1090
:100203000080404040800000000C1212091F1000C3
:1002130004FC444444B80000101F101010080700E9
:10022300E018040404041C00030C1010100804005C
:1002330004FC04040408F000101F10101008070049
:1002430004FC4444F4040800101F101011100C00A7
:1002530004FC4444F4040800101F100001000000D3
:10026300E0180404041C0000030C1010110F01001B
:1002730004FC84808084FC04101F100000101F10F5
:1002830008F8804040408000101F100000101F102D
:10029300000404FC040400000010101F10100000F0
:1002A30000000404FC040400604040403F000000E0
:1002B30004FC44E0140C0400101F1000131C100075
:1002C30004FC040000000000101F101010101800A0
:1002D30004FCFC00FCFC0400101F001F001F1000A6
:1002E30004FC18608004FC04101F1000030C1F00A2
:1002F300F00804040408F0000708101010080700B1
:1003030004FC848484847800101F10000000000023
:1003130040C0804040800000407F48101008070024
:10032300F00804040408F000070814141828270030
:1003330004FC4444C4443800101F10000106181084
:100343000038448484041C00001C101010110E009B
:100353000C0404FC04040C000000101F1000000037
:10036300004040F0404000000000000F1010080063
:1003730004FC04000004FC04000F101010100F0014
:10038300043CC40000E41C040000031C070000003C
:1003930004FC00FC00FC040000011F001F0100001E
:1003A300040C34C0C0340C041018160101161810C4
:1003B300041C6480641C04000000101F1000000073
:1003C30008040484641C0400101C131010100C0097
:1003D300000000000000000000000000000000001A
:1003E300000000000000000000483800000000008A
:1003F30000000000000000000018180000000000CA
:10040300000708101008070000F008040408F000B3
:100413000008081F00000000000404FC040400009E
:10042300000E101010110E00000C142444840C0054
:10043300000C101111120C00001804040488700041
:1004430000000304081F000000E0202424FC240013
:10045300001F10111110100000988404048870000C
:10046300000708111118000000F0880404887000C8
:10047300001C1010131C1000000000FC0000000002
:10048300000E111010110E0000384484844438000B
:10049300000708101008070000008C444488F0008F
:1004A300FF0101010101010101010101010101013B
:1004B3000101010101010101010101010101010129
:1004C3000101010101010101010101010101010119
:1004D3000101010101010101010101010101010109
:1004E30001010101010101010101010101010101F9
:1004F30001010101010101010101010101010101E9
:1005030001010101010101010101010101010101D8
:1005130001010101010101010101010101010101C8
:10052300010101FFFF0000000000000000000000C7
:1005330000000000000000000000000000000000B8
:1005430000000000000000000000000000000000A8
:100553000000000000000000000000000000000098
:100563000000000000000000000000000000000088
:100573000000000000000000000000000000000078
:100583000000000000000000000000000000000068
:100593000000000000000000000000000000000058
:1005A30000000000000000FFFF000000000000004A
:1005B3000000000000000000000000000000000038
:1005C3000000000000000000000000000000000028
:1005D3000000000000000000000000000000000018
:1005E3000000000000000000000000000000000008
:1005F30000000000000000000000000000000000F8
:1006030000000000000000000000000000000000E7
:1006130000000000000000000000000000000000D7
:100623000000000000000000000000FFFF000000C9
:1006330000000000000000000000000000000000B7
:1006430000000000000000000000000000000000A7
:100653000000000000000000000000000000000097
:100663000000000000000000000000000000000087
:100673000000000000000000000000000000000077
:100683000000000000000000000000000000000067
:100693000000000000000000000000000000000057
:1006A300000000000000000000000000000000FF48
:1006B300FF00000000000000000000000000000038
:1006C3000000000000000000000000000000000027
:1006D3000000000000000000000000000000000017
:1006E3000000000000000000000000000000000007
:1006F30000000000000000000000000000000000F7
:1007030000000000000000000000000000000000E6
:1007130000000000000000000000000000000000D6
:1007230000000000000000000000000000000000C6
:10073300000000FFFF0000000000000000000000B8
:1007430000000000000000000000000000000000A6
:100753000000000000000000000000000000000096
:100763000000000000000000000000000000000086
:100773000000000000000000000000000000000076
:100783000000000000000000000000000000000066
:100793000000000000000000000000000000000056
:1007A3000000000000000000000000000000000046
:1007B30000000000000000FFFF0000000000000038
:1007C3000000000000000000000000000000000026
:1007D3000000000000000000000000000000000016
:1007E3000000000000000000000000000000000006
:1007F30000000000000000000000000000000000F6
:1008030000000000000000000000000000000000E5
:1008130000000000000000000000000000000000D5
:1008230000000000000000000000000000000000C5
:100833000000000000000000000000FFFF80808037
:1008430080808080808080808080808080808080A5
:100853008080808080808080808080808080808095
:100863008080808080808080808080808080808085
:100873008080808080808080808080808080808075
:100883008080808080808080808080808080808065
:100893008080808080808080808080808080808055
:1008A3008080808080808080808080808080808045
:1008B300808080808080808080808080808080FFB6
:1008C300FFFF0303030303030303030303030303FD
:1008D30003030303030303030303030303030303E5
:1008E3000303030383838383C3C3C3C3E3C303E355
:1008F300E3E3E3F3737373737373030373737373D5
:1009030073737333F3F3F3F37373F3F3F3F30303D4
:10091300E3E3E3E3E3E3C3C3C3C3C3838383030324
:100923000303030303030303030303030303030394
:100933000303030303030303030303030303030384
:100943000303FFFFFFFF00000000000000000000A2
:1009530000000000000000000080C0C000F0F0F8BC
:10096300F8FC0000FEFFFFFF070703FFFFFFFF0187
:10097300010000FFFFFFFFFFE0E0F07060400000B8
:10098300FFFFFFFFFF000000FFFFFFFF0000FFFF6F
:10099300FFFF0000FFFFFFFF00010101E1E1E3E3CF
:1009A300030707070F0F0E1E1C3C387870F0E0E0BA
:1009B300C0800000000000000000000000000000F4
:1009C300000000000000FFFFFFFF00000000000028
:1009D3000000000000000080E0F8FCFE1F0F07038A
:1009E30000FFFFFFFFFF00003F3F3F3F0000001FEE
:1009F3001F1F1F808080809F3F7F7F7F707070707C
:100A030070700000717171F1F1F0F0F07F7FFFFF02
:100A1300F0F070707070000001717171707070701F
:100A2300FFFFFFFF70707070707070707070777779
:100A330077777777777777F6F6F0E00000000000B6
:100A430000000000000000000000FFFFFFFF0000A7
:100A530000000000000000000000000F7F7F3F99AE
:100A6300C080000000FFFFFFFFFF0E0EFEFEFEFE34
:100A7300000E0E0E0E0E0EEEFFFFFFFF0E0E0E0EFD
:100A83000E0E0E0E0E0E0000000000FFFFFFFFFF14
:100A93000000FFFFFFFF0000000000000000000057
:100AA300000000003F3F3F3F38383838BFFFFFFFAB
:100AB300FF3838383838383838B8F8FDFFFF3F0783
:100AC3000000000000000000000000000000FFFF25
:100AD300FFFF000000000000000000000000000015
:100AE30000000103070F1F3E3C7F7FFFFFFF000055
:100AF300FFFFFFFF00000000000000FFFFFFFFFFFC
:100B0300000000000000000000000000000000FFE3
:100B1300FFFFFFFF0000FFFFFFFF000000000000DA
:100B2300000E0E0E0E0E0E0E0E0E0E0E0E0E0E0EF0
:100B3300EEFFFFFFFFEEEEFE7E7E3E3E1F0F07033E
:100B430001000000000000000000000000000000A1
:100B53000000FFFFFFFF0000000000000000000096
:100B63000000000000000000000000000000000082
:100B730000010000030307070F0F0E0E1E1C1C1DB0
:100B83001F3F3F3F383838787070707070700000C6
:100B930070787C7F7F7F777370707F7F7F7F7070CB
:100BA3007070707838383838383C1C1C1C1C1E0E8A
:100BB3000E0F0F00070703030101000000000000F0
:100BC3000000000000000000000000000000000022
:100BD300000000000000FFFFFFFF00000000000016
:100BE300000000E0F0F0F038383838B8B8B8B8B8DA
:100BF300B0000000B8B8B838383838383838F0F0B2
:100C0300F0E0000080808080808080800018387849
:100C1300F0E0C0C0E0F0F87838180000B8B8B8B811
:100C2300B8B8B8B8B8B8B8B8B00000F8F8F8F880F1
:100C3300808080808080F8F8F8000000F0F8F800E9
:100C4300000000000000F8F8F8F80000B8B8B8B0E9
:100C530000000000000000000000FFFFFFFFC0C015
:100C6300C0C0C0C0C0C0C0C7CFCFCFCCCCCCDCDDF0
:100C7300DDDDDFDFDFC1C0C0DFDFDFDCDCDCDCDCF0
:100C8300DCDCCFCFCFC7C0C0C1C1C1C1C1C1C1C1ED
:100C9300C0C0C0C0C0DFDFDFDFC1C0C0C0C0C0C0D4
:100CA300DFDFDFDFDDDDDDDDDDDDDDDDDDC0C0DFA1
:100CB300DFDFDFC1C1C1C1C1C1C1DFDFDFC0C0C070
:100CC300C7CFCFCCDCDCDCDCDCDCDFDFDFDFC0C0CC
:100CD300DFDFDFDFC0C0C0C0C0C0C0C0C0C0FFFF17
:100CE30000E010080810E0000007081010080700D3
:100CF300001010F8000000000010101F101000007A
:100D03000030080808887000001814121110180029
:100D13000030088888483000000C101010110E00B5
:100D230000804020F8000000000302121F1212008E
:100D330000F8884848488800000C101010100F0075
:100D430000E0108888980000000F111010100F00A9
:100D530000380808C83808000000001F0000000021
:100D63000070888888887000000E111010110E0022
:100D730000F008080890E0000000191111080700AE
:100D8300101E110000131C100000E01C70800000F6
:100D93000708101010080700F00804040408F00006
:100DA300101F101010100F0004FC848080800000BE
:100DB3000202020202020200202020202020200042
:100DC3000000000000000000000C0C000000000008
:100DD300101E110000131C100000E01C70800000A6
:101707007F49494949490000FF0003FF0023FF00C3
:1017170043FF0063FF0083FF00A3FF00C3FF00E355
:10172700FF0103FF0123FF02C3FF0223FF02D3FFD1
:101737000143FF0163FF0153FF01D3FF0193FF0142
:1017470073FF0393FF0283FF0203FF0363FF034358
:10175700FF0203FF0313FF0313FF01E3FF01B3FFBF
:101767000193FF03D3FF0143FF0163FF0193FF01D0
:1017770053FF0153FF0173FF01C3FF0193FF019360
:10178700FF01C3FF0173FF0263FF0373FF01F3FF51
:1017970002E3FF0263FF0233FF02F3FF02E3FF02EC
:1017A70063FF03B3FF0243FF0273FF0373FF029359
:1017B700FF0353FF0243FF0223FF0273FF02E3FF0E
:1017C70002F3FF02C3FF02F3FF0263FF03B3FF024B
:1017D70023FF02F3FF03F3FF03E3FF02C3FF0353F8
:1017E700FF0233FF0223FF02F3FF03F3FF03E3FFCD
:0817F70002C3FF0353FF02339C
:04216E004100C9194A
:1020FF0020A5127F057E001220DF20A50830A5FD48
:09210F007E007F0122E4FEFF22A4
:1021180020A6127F057E001220DF20A60830A6FD2B
:092128007E007F0122E4FEFF228B
:1021310020A7127F057E001220DF20A70830A7FD0F
:092141007E007F0122E4FEFF2272
:0C215900C2B17F0A7E001220DFD2B1224A
:0F214A00800330A5097F647E001220DF80F4221D
:0420DB007F027E0002
:1020DF00E4FDFCC3ED9FEC9E5015E4FBFA0BBB0037
:0F20EF00010AEB64644A70F50DBD00010C80E43A
:0120FE0022BF
:09216500E4F5A87F32FE0220DF40
:101BD0007F647E001220DFC2B17F321220DFD2B1DB
:101BE0007F641220DF7FE2121FFC7F0A7E0012203A
:101BF000DF7FA2121FFC1220DB7FA0121FFC12202D
:101C0000DB7FC8121FFC1220DB7F25121FFC122075
:101C1000DB7F81121FFC9000C9E0FF121FFC122025
:101C2000DB7F2C121FFC1220DB7F2E121FFC1220E8
:101C3000DB7F2F121FFC1220DB7FF1121FFC122012
:101C4000DBE4FF121FFC1220DB7F60121FFC12205E
:101C5000DB7FA4121FFC1220DB7FAF121FFC7F0270
:051C60007E000220DF00
:0F17FF007D017BFF7E001211D97BFF7A0479A355
:0B180E00900076EBF0A3EAF0A3E9F0F5
:10181900E490007BF0A3F090007A74B0F090007A25
:10182900E0FFC394B45051121FFC7F10121FFCE457
:10183900FF121FFCE4900079F0900076E0FBA3E032
:10184900FAA3E0F990007BE0FEA3E0F5828E831213
:1018590011FFFF1220A190007CE004F070069000B7
:101869007BE004F0900079E004F0E0C3948440C97F
:1018790090007AE004F080A590007A74B4F09000AA
:101889007AE0FFC394B85051121FFC7F10121FFC5D
:10189900E4FF121FFCE4900079F0900076E0FBA3CE
:1018A900E0FAA3E0F990007BE0FEA3E0F5828E83E5
:1018B9001211FFFF1220A190007CE004F070069045
:1018C900007BE004F0900079E004F0E0C3948440E8
:0918D900C990007AE004F080A53A
:0118E20022E3
:0B1B34009000D6EBF0A3EAF0A3E9F06C
:101B3F00E49000DBF0A3F09000DA74B4F09000DAD8
:101B4F00E0FFC394B85032121FFC7F10121FFCE449
:101B5F009000D9F01220369000DCE004F07006906F
:101B6F0000DBE004F09000D9E004F0E0C394804083
:101B7F00E39000DAE004F080C49000DA74B0F090E3
:101B8F0000DAE0FFC394B45037121FFC7F10121F0E
:101B9F00FCE4FF121FFCE49000D9F01220369000F5
:101BAF00DCE004F070069000DBE004F09000D9E078
:101BBF0004F0E0C3948040E39000DAE004F080BFCB
:011BCF0022F3
:081C6500900001EFF0A3EDF087
:101C6D0090000474B0F0900004E0FFC394B45036BB
:101C7D00121FFC7F10121FFCE4FF121FFCE49000EA
:101C8D0003F0900001E0FF1220A1900002E0FF128E
:101C9D0020A1900003E004F0E0C3948040E49000A4
:101CAD0004E004F080C090000474B4F0900004E0EF
:101CBD00FFC394B85036121FFC7F10121FFCE4FFB7
:101CCD00121FFCE4900003F0900001E0FF1220A130
:101CDD00900002E0FF1220A1900003E004F0E0C3A9
:0C1CED00948040E4900004E004F080C00B
:011CF90022C8
:0818E300900001EFF0A3EDF00D
:1018EB0090000574B0F0900005E0FFC394B450581D
:1018FB00121FFC7F10121FFCE4FF121FFCE4900070
:10190B0003F0E4900004F0900001E0FF1220A1909E
:10191B000004E004F0E0C3940440ECE4900004F015
:10192B00900002E0FF1220A1900004E004F0E0C35D
:10193B00940440EC900003E004F0E0C3941140C227
:10194B00900005E004F0809E90000574B4F09000C8
:10195B0005E0FFC394B85058121FFC7F10121FFCF8
:10196B00E4FF121FFCE4900003F0E4900004F090FD
:10197B000001E0FF1220A1900004E004F0E0C3940A
:10198B000440ECE4900004F0900002E0FF1220A170
:10199B00900004E004F0E0C3940440EC900003E0FA
:1019AB0004F0E0C3941140C2900005E004F0809E67
:0119BB002209
:0819BC00900001EFF0A3EDF033
:1019C40090000574B0F0900005E0FFC394B4505843
:1019D400121FFC7F10121FFCE4FF121FFCE4900096
:1019E40003F0E4900004F0900001E0FF1220A190C5
:1019F4000004E004F0E0C3940240ECE4900004F03E
:101A0400900002E0FF1220A1900004E004F0E0C383
:101A1400940240EC900003E004F0E0C3942140C23F
:101A2400900005E004F0809E90000574B4F09000EE
:101A340005E0FFC394B85058121FFC7F10121FFC1E
:101A4400E4FF121FFCE4900003F0E4900004F09023
:101A54000001E0FF1220A1900004E004F0E0C39430
:101A64000240ECE4900004F0900002E0FF1220A198
:101A7400900004E004F0E0C3940240EC900003E022
:101A840004F0E0C3942140C2900005E004F0809E7D
:011A9400222F
:0B1E8C009000CEEFF0A3EDF0A3EBF010
:101E9700E49000D3F0A3F0A3F09000D4F09000D426
:101EA700E0FFC39404504B9000CEE024B0FEEF2E29
:101EB700FF121FFC9000D0E02410FF121FFC9000BF
:101EC700CFE0FF121FFCE49000D5F09000D5E0FDB5
:101ED700C3942050159000D4E075F0209000D112E3
:101EE700208A9000D5E004F080E19000D4E004F06F
:021EF70080ABBE
:011EF90022C6
:0B1EFA0090003EEFF0A3EDF0A3EBF032
:101F0500E4900043F0A3F0A3F0900044F090004467
:101F1500E0FFC39402504B90003EE024B0FEEF2E4C
:101F2500FF121FFC900040E02410FF121FFC9000E0
:101F35003FE0FF121FFCE4900045F0900045E0FDF6
:101F4500C394105015900044E075F01090004112B4
:101F5500208A900045E004F080E1900044E004F020
:021F650080AB4F
:011F67002257
:071E1000540FFDAB077F0535
:0B1E1700900076EFF0A3EDF0A3EBF0DD
:101E2200E490007BF0A3F090007BF090007BE0FF59
:101E3200C394025054900076E024B0FEEF2EFF12BD
:101E42001FFC900078E02410FF121FFC900077E046
:101E5200FF121FFCE490007CF090007CE0FDC39434
:101E620008501E90007BE075F008A47C002DFFEC6A
:101E720035F0FE90007912209390007CE004F0800F
:091E8200D890007BE004F080A27E
:011E8B002234
:101FD6002420FFEF54F0FFE4C4F854F0C8EFC454D3
:101FE6000F484410FF121FFC9000DFA3E075F008B5
:061FF600A42420540FFF9B
:101FFC00C2B0C2B2C2B3E4FEEF30E704D2B4800286
:10200C00C2B40000000000000000D2B300000000C9
:10201C0000000000C2B30000000000000000EF252B
:09202C00E0FF0EEEB408D1D2B0C1
:012035002288
:10208A00A47C002DFFEC35F0FEE0FCA3E02FF582E6
:07209A00EC3EF583E493FF27
:1020A100C2B0D2B2C2B3E4FEEF30E704D2B48002D0
:1020B100C2B40000000000000000D2B30000000024
:1020C10000000000C2B30000000000000000EF2586
:0920D100E0FF0EEEB408D1D2B01C
:0120DA0022E3
:102036009000D6E0FBA3E0FAA3E0F99000DBE0FE17
:0A204600A3E0F5828E831211FFFF64
:10205000D2B0D2B2C2B3E4FEEF30E704D2B4800211
:10206000C2B40000000000000000D2B30000000075
:1020700000000000C2B30000000000000000EF25D7
:09208000E0FF0EEEB408D1D2B06D
:012089002234
:101D86009000DFECF0A3EDF0A3EBF0A3EAF0A3E9FB
:091D9600F09000DDEEF0A3EFF087
:101D9F0044B0FF121FFCA3E0FEA3E07803C333CED1
:101DAF0033CED8F9121FD6E4FD9000E1E0FBA3E09B
:101DBF00FAA3E0F98D827583001211FFFF1220A1A3
:101DCF000DEDB408E49000DDA3E01444B0FF121F42
:101DDF00FCA3E0FEA3E07803C333CE33CED8F912D1
:101DEF001FD67D089000E1E0FBA3E0FAA3E0F98D98
:101DFF00827583001211FFFF1220A10DEDB410E4C4
:011E0F0022B0
:10150B009000C512124640D000007F81121FFC9044
:10151B0000C9E0FF121FFCE0FCE412108BA804A929
:10152B0005AA06AB07E4FFFE7D7C7C42120DE6E4C8
:10153B00FBFA79227843120FE4A804A905AA06AB9B
:10154B0007E4FFFE7D807C3F120DE69000C5E0F8BE
:10155B00A3E0F9A3E0FAA3E0FB120EDB7B667A664D
:10156B0079067840120EDB7BCD7ACC794C783D1224
:10157B000DEA9000CA12123A9000C9E075F064842B
:10158B007E00C4F8540FC868FFEEC454F048FE74D4
:10159B00032FF974043EFA7BFFE4FDFC7F03FE127C
:1015AB001D869000C9E075F06484E5F075F00A843F
:1015BB007E00C4F8540FC868FFEEC454F048FE74A4
:1015CB00032FF974043EFA7BFF7D017F037E00122B
:1015DB001D869000C9E075F00A84AFF07E00EFC461
:1015EB00F8540FC868FFEEC454F048FE74032FF98B
:0F15FB0074043EFA7BFF7D027F037E00021D8693
:101F68002085047F0180027F003084047E01800286
:101F78007E00EE5F603C30871A7F647E001220DFAF
:101F88007F81121FFC9000C9E0FF121FFCE004F0E3
:101F980012150B3086CA7F647E001220DF7F811203
:101FA8001FFC9000C9E0FF121FFCE014F012150B93
:101FB80080AE30850E80032084137F507E0012206F
:0E1FC800DF80F43084077F507E001220DF227D
:1013F00078037C007D017BFF7A17790F7E007F0FD9
:101400001211D978127C007D017BFF7A17791E7E3C
:10141000007F0F1211D978217C007A17792D7F1B5C
:101420001217FFE4900001F0900001E0FFC3940563
:101430005031E0FE75F003A42403F582E43400F596
:1014400083A3E0FAA3E0FD900041EAF0A3EDF0EE03
:101450002408FDEF04FB7F01121EFA900001E00456
:10146000F080C5E4900001F0900001E0FFC3940516
:101470005031E0FE75F003A42412F582E43400F547
:1014800083A3E0FAA3E0FD900041EAF0A3EDF0EEC3
:101490002408FDEF04FB7F03121EFA900001E00414
:0814A000F080C5E4900002F0A9
:1014A80090003C741CF0A37408F0E0FF900002E088
:1014B800FD8FF0A4FF90003CE07A002FFFEA35F0A2
:1014C800FEEF7804CEA2E713CE13D8F8FFED75F03F
:1014D80003A42421F582E43400F583A3E0FAA3E011
:1014E800FD900079EAF0A3EDF0900002E075F008B5
:0614F800A4241C121E10CA
:0C14FE00900002E004F0E0C39409409E5E
:01150A0022BE
:10160A00787E7C007D017BFF7A1779487E007F18FF
:10161A001211D978967C007A1779607F2D1217FFFC
:05162A00E490007DF0DA
:10162F009000C3741EF0A37408F0E0FF90007DE0FB
:10163F00FD8FF0A4FF9000C3E07A002FFFEA35F092
:10164F00FEEF7804CEA2E713CE13D8F8FFED75F0B6
:10165F0003A4247EF582E43400F583A3E0FAA3E02B
:10166F00FD900079EAF0A3EDF090007DE075F008B1
:0D167F00A4241E540FFDAB077F01121E179F
:10168C0090007DE004F0E0C394084097E490007D66
:01169C00F05D
:10169D009000C37406F0A37408F0E0FF90007DE0A5
:1016AD00FD8FF0A4FF9000C3E07A002FFFEA35F024
:1016BD00FEEF7804CEA2E713CE13D8F8FFED75F048
:1016CD0003A42496F582E43400F583A3E0FAA3E0A5
:1016DD00FD900079EAF0A3EDF090007DE075F00843
:0D16ED00A42406540FFDAB077F04121E1746
:0C16FA0090007DE004F0E0C3940F4097E6
:0117060022C0
:1012770078027C007D017BFF7A17798D7E007F2ABB
:101287001211D9782C7C007D017BFF7A1779B77E04
:10129700007F331211D9785F7C007D017BFF7A17BD
:0E12A70079EA7E007F15121805E4900001F030
:1012B5009000747408F0A3F0E0FF900001E0FD8F4A
:1012C500F0A4FF900074E07A002FFFEA35F0FEEFFE
:1012D5007804CEA2E713CE13D8F8FFED75F003A47A
:1012E5002402F582E43400F583A3E0FAA3E0FD903F
:1012F5000079EAF0A3EDF0900001E075F008A42470
:0B13050008540FFDAB077F01121E17FC
:10131000900001E004F0E0C3940E4099E4900001D5
:01132000F0DC
:101321009000747408F0A3F0E0FF900001E0FD8FDD
:10133100F0A4FF900074E07A002FFFEA35F0FEEF91
:101341007804CEA2E713CE13D8F8FFED75F003A40D
:10135100242CF582E43400F583A3E0FAA3E0FD90A8
:101361000079EAF0A3EDF0900001E075F008A42403
:0B13710008540FFDAB077F03121E178E
:10137C00900001E004F0E0C3940E4099E490000169
:01138C00F070
:10138D009000747414F0A37408F0E0FF900001E075
:10139D00FD8FF0A4FF900074E07A002FFFEA35F086
:1013AD00FEEF7804CEA2E713CE13D8F8FFED75F05B
:1013BD0003A4245FF582E43400F583A3E0FAA3E0EF
:1013CD00FD900079EAF0A3EDF0900001E075F008D2
:0613DD00A42414121E10EE
:0C13E300900001E004F0E0C39407409E7D
:0113EF0022DB
:100DE3000210F4E86480F8E933E83360110460F03A
:100DF300ED33EC337009E8FCE9FDEAFEEBFF220476
:100E030060DED3EB9FEA9EE99DE8C2E78CF0C2F770
:100E130095F0400CE8CCF8E9CDF9EACEFAEBCFFB3C
:100E23001210BF85D0F05804700320D5B3E80470C6
:100E3300075002B2D50210FE92D5EC0460F7E4CC61
:100E4300C0E0C398F8603B94186008400DD0E0FB05
:100E53000210D6E4FBFAC9FC8028E830E406E4C9B2
:100E6300FBE4CAFCE830E305E4C9CACBFCE8540759
:100E73006010F8C3E913F9EA13FAEB13FBEC13FC64
:100E8300D8F130F52FC3E49CFCEF9BFFEE9AFEED07
:100E930099FDD0E0FBEF4E4D4C701222DB030210A4
:100EA300FBEC2CFCEF33FFEE33FEED33FDED30E7CF
:100EB300EB0210D6EF2BFFEE3AFEED39FDD0E0FB4F
:100EC30050130BBB00030210FEED13FDEE13FEEFF8
:080ED30013FFEC13FC0210D622
:100EDB00EC4D6011E8497017ED33EC3304600DE411
:100EEB00FCFFFEFD22E933E8330470F80210F41224
:100EFB0010BF58046009E4CC248150062850090225
:100F0B0010FE2840030210FBC0E0EB4A7044B9808E
:100F1B0006D0E0FB0210EAEF4E701CBD8008EBFF21
:100F2B00EAFEE9FD80EBE98DF0A4FEE5F0020FC4CB
:100F3B00E9CDF9EAFEEBFFEF89F0A4FCE5F0CE89F1
:100F4B00F0A42EFFE435F0CD89F0A42DFEE435F0AE
:100F5B008067EF4E7005BD80D780C3EF8BF0A4ACDC
:100F6B00F0EE8BF0A42CFCE435F0F8EF8AF0A42C17
:100F7B00E5F038FCE433CB8DF0A42CFCE5F03BF82A
:100F8B00EE8AF0A42CFCE5F038F8E433CF89F0A41A
:100F9B002CFCE5F038CF3400CE89F0A42FFFE5F020
:100FAB003EFEE433C98DF0A42EFEE5F039CD8AF078
:100FBB00A42FFFE5F03EFEE43DFD33D0E0FB5007F0
:100FCB000BBB000F0210FEEC2CFCEF33FFEE33FEDD
:060FDB00ED33FD0210D60B
:100FE1000210FEEC5D046005E8590470030210F480
:100FF1001210BF580460F6EC4860F2EC7004FDFE7C
:10100100FF22C860DB2481C85009C39860025006E2
:101011000210FB9850CAF582E9294B4A7005AB8250
:101021000210EA75F0007C1A7880C3EF9BEE9AED0E
:1010310099400DC3EF9BFFEE9AFEED99FDE842F05A
:10104100DC23ACF0D0E0FFD0E0FED0E0FDAB8220AD
:10105100E7101BEB60BAEC2CFCEF33FFEE33FEED37
:1010610033FD0210D6E803F830E705C0F075F00053
:10107100EF2FFFEE33FEED33FD40B830E7C280AA1B
:1010810075F020800E75F010800575F0087D007EEA
:10109100007F003392D530D50312122CEC3340106F
:1010A100EF33FFEE33FEED33FDEC33FCD5F0ED22F3
:0E10B100E5F0247EA2D513CC92E7CDCEFF222F
:1010BF00E9D2E7C933E833F892D5EDD2E7CD33EC77
:0710CF0033FC5002B2D522F0
:1010D600EC30E7100FBF000C0EBE00080DBD00047B
:1010E6000BEB6014A2D5EB13FCED92E7FD2274FF27
:1010F600FCFDFEFF22E480F8A2D574FF13FC7D8080
:03110600E480EF93
:101D0600021A95E493A3F8E493A34003F68001F244
:101D160008DFF48029E493A3F85407240CC8C333DE
:101D2600C4540F4420C8834004F456800146F6DFAD
:101D3600E4800B010204081020408090216EE47EAE
:101D4600019360BCA3FF543F30E509541FFEE493A2
:101D5600A360010ECF54C025E060A840B8E493A369
:101D6600FAE493A3F8E493A3C8C582C8CAC583CA94
:101D7600F0A3C8C582C8CAC583CADFE9DEE780BE4C
:01217200006C
:10110900E709F608DFFA8046E709F208DFFA803EC8
:1011190088828C83E709F0A3DFFA8032E309F608B5
:10112900DFFA8078E309F208DFFA807088828C831D
:10113900E309F0A3DFFA806489828A83E0A3F608D1
:10114900DFFA805889828A83E0A3F208DFFA804CAB
:1011590080D280FA80C680D4806980F28033801082
:1011690080A680EA809A80A880DA80E280CA8033EB
:1011790089828A83ECFAE493A3C8C582C8CCC58363
:10118900CCF0A3C8C582C8CCC583CCDFE9DEE78033
:101199000D89828A83E493A3F608DFF9ECFAA9F0B2
:1011A900EDFB2289828A83ECFAE0A3C8C582C8CC08
:1011B900C583CCF0A3C8C582C8CCC583CCDFEADE21
:1011C900E880DB89828A83E493A3F208DFF980CC83
:1011D90088F0EF60010E4E60C388F0ED2402B4047C
:1011E9000050B9F582EB2402B4040050AF23234523
:0611F900822390115973DE
:1011FF00BB010CE58229F582E5833AF583E02250A5
:10120F0006E92582F8E622BBFE06E92582F8E222EE
:0D121F00E58229F582E5833AF583E4932208
:0E122C00C3E49FFFE49EFEE49DFDE49CFC22D3
:0C123A00ECF0A3EDF0A3EEF0A3EFF02227
:10124600A8828583F0D083D08212125D12125D12BD
:10125600125D12125DE473E493A3C583C5F0C583E2
:10126600C8C582C8F0A3C583C5F0C583C8C582C8F2
:011276002255
:00000001FF
