:1003A5004C434D30383031410059654875694469D1
:0203B5007300D3
:1001DB000809150A150A150A150008110A150A153A
:1001EB000A150A00081915151515151515150821E9
:1001FB000A0A0A0A0A0A0A0A08291F001F001F0016
:10020B001F000831001F001F001F001F08390015B9
:06021B000015001500159E
:100003001203721203EC7B007A0079091202BB7FA0
:10001300507E001203387B007A0079111202BB7FF5
:10002300507E001203387B007A0079191202BB7FDD
:10003300507E001203387B007A0079211202BB7FC5
:10004300507E001203387B007A0079291202BB7FAD
:10005300507E001203387B007A0079311202BB7F95
:10006300507E001203387B007A0079391202BB7F7D
:10007300507E001203387F211202227F507E00122D
:1000830003387FA11202227F507E001203387FCEF5
:100093001202597F507E001203381203EC7BFF7A61
:1000A3000379A5E4FDFF1202E47F507E00120338BA
:1000B3007BFF7A0379AEE4FDFF1202E412038CEFB7
:1000C3004E60F91203EC0508E50875F00A8485F023
:1000D30008E508B40A0050E49000E2F82828730207
:1000E30001000201080201100201180201200201AD
:1000F3002802013002013B02013F0201477B007AE3
:10010300007909802E7B007A00791180267B007AA2
:10011300007919801E7B007A00792180167B007A92
:10012300007929800E7B007A00793180067B007A82
:100133000079391202BB80847F2180027FA11202E1
:0C014300220200BF7FFF1202590200BF21
:10038C0020A0127F017E0012033820A00830A0FDAF
:09039C007E007F0122E4FEFF2235
:09032F00C2B18E90D2B2E4FFFECF
:0A033800EF1FAC0670011E4C600EB2
:0C03420075450C7546A9D546FDD545FA59
:03034E0080E82222
:1003B7007590FFC2B0D2B1D2B2AF90C2B2EF20E710
:0103C700F63F
:0103C8002212
:0D03FA00AE071203B7C2B012032FC2B22229
:0D040700AE071203B7D2B012032FC2B2220B
:1003DB00AD071203B7D2B0D2B11203338D90C2B2B4
:0103EB0022EF
:100372007F381203FA7F0C1203FA7F061203FA7F08
:0A038200011203FAE4FFFE02033843
:0E03EC001203B77F011203FAE4FFFE0203388A
:10035100C3ED9414EC94004003E4FCFD5307017ECB
:1003610000EF7005ED44808003ED44C0FF1203FAF5
:010371002269
:1003C9001203B77590FFD2B0D2B1120333AF90C206
:0103D900B271
:0103DA002200
:0C0414007E007C00120351AF03020407BD
:0602E4008B418A428943B0
:1002EA007E007C00120351E4FDAB41AA42A9438D72
:1002FA008275830012028EFF60061204070D80E9E0
:01030A0022D0
:02022200AD0726
:100224007F021203FA7F017E001203387F801203DB
:10023400FAE4FBAF051204070D0BBB28F67FC012CE
:1002440003FAE4FBAF051204070D0BBB28F67F018C
:050254007E00020338EA
:02025900AD07EF
:10025B007F021203FA7F017E001203387F801203A4
:10026B00FAE4FBAF051204070BBB14F77FC01203B4
:10027B00FAE4FBAF051204070BBB14F77F017E00FA
:03028B0002033833
:06030B008B428A43894485
:100311007F401203FAE4FDAB42AA43A9448D8275E2
:0D032100830012028EFF1204070DBD40EA9A
:01032E0022AC
:0702BB0012030BE4FDE4FB5C
:1002C200ED7007EB2480F5418005EB24C0F541AFCA
:0902D200411203FAE4FF120407D3
:0802DB000BBB14E30DBD02DDB5
:0102E30022F8
:0300000002014FAB
:0C014F00787FE4F6D8FD75814602019629
:10028E00BB010CE58229F582E5833AF583E0225025
:10029E0006E92582F8E622BBFE06E92582F8E2226F
:0D02AE00E58229F582E5833AF583E4932289
:10015B00020003E493A3F8E493A34003F68001F2B7
:10016B0008DFF48029E493A3F85407240CC8C333A5
:10017B00C4540F4420C8834004F456800146F6DF74
:10018B00E4800B01020408102040809001DBE47E28
:10019B00019360BCA3FF543F30E509541FFEE49369
:1001AB00A360010ECF54C025E060A840B8E493A330
:1001BB00FAE493A3F8E493A3C8C582C8CAC583CA5B
:1001CB00F0A3C8C582C8CAC583CADFE9DEE780BE13
:0102210000DC
:00000001FF
