:100003001207367F057E001207161206E11206E17B
:100013001206AF7FD07E071207161206E17800742E
:1000230040F27800E2FFD39451501B7D0D7C001207
:1000330006297800E204FF7D0F7C00120629780070
:10004300E22402F280DC78007452F27800E2FFD3FB
:10005300945F501B7D0F7C001206297800E204FF99
:100063007D0D7C001206297800E22402F280DC7FF9
:10007300407E1F12071678007440F27800E2FFD327
:100083009451501AE4FDFC1206297800E204FF7D26
:100093000E7C001206297800E22402F280DD78004B
:1000A3007452F27800E2FFD3945F501A7D0E7C0005
:1000B3001206297800E204FFE4FDFC120629780009
:1000C300E22402F280DD7F407E1F1207167800745F
:1000D30040F27800E2FFD39451501B7D0E7C001256
:1000E30006297800E204FF7D0B7C001206297800C4
:1000F300E22402F280DC78007452F27800E2FFD34B
:10010300945F501B7D0B7C001206297800E204FFEC
:100113007D0E7C001206297800E22402F280DC7F47
:10012300407E1F12071678007440F27800E2FFD376
:100133009451501B7D0A7C001206297800E204FFCB
:100143007D0F7C001206297800E22402F280DC781D
:10015300007452F27800E2FFD3945F501B7D0F7C52
:10016300001206297800E204FF7D0A7C00120629AA
:100173007800E22402F280DC7F407E1F12071678AB
:10018300007440F27800E2FFD39451501B7D037C4E
:10019300001206297800E204FF7D0E7C0012062976
:1001A3007800E22402F280DC78007452F27800E2F4
:1001B300FFD3945F501B7D0E7C001206297800E26A
:1001C30004FF7D037C001206297800E22402F280FA
:1001D300DC7F407E1F12071678007440F27800E23D
:1001E300FFD39451501B7D0B7C001206297800E24B
:1001F30004FF7D0D7C001206297800E22402F280C0
:10020300DC78007452F27800E2FFD3945F501B7DD8
:100213000D7C001206297800E204FF7D0B7C00129E
:1002230006297800E22402F280DC7F407E1F120759
:100233001678007440F27800E2FFD39451501B7D8E
:100243000F7C001206297800E204FF7D0D7C00126A
:1002530006297800E22402F280DC78007452F278F6
:1002630000E2FFD3945F501B7D0D7C0012062978BA
:1002730000E204FF7D0F7C001206297800E22402CD
:10028300F280DC7F407E1F12071678007440F278FC
:1002930000E2FFD39451501AE4FDFC1206297800C2
:1002A300E204FF7D0F7C001206297800E22402F2AB
:1002B30080DD78007452F27800E2FFD3945F501A25
:1002C3007D0F7C001206297800E204FFE4FDFC1296
:1002D30006297800E22402F280DD7F407E1F1207A8
:1002E3001678007440F27800E2FFD39451501B7DDE
:1002F3000F7C001206297800E204FF7D0F7C0012B8
:1003030006297800E22402F280DC78007452F27845
:1003130000E2FFD3945F501B7D0F7C001206297807
:1003230000E204FF7D0F7C001206297800E224021C
:10033300F280DC7F407E1F12071678007440F2784B
:1003430000E2FFD39451501B7D037C0012062978F1
:1003530000E204FF7D0F7C001206297800E22402EC
:10036300F280DC78007452F27800E2FFD3945F509D
:100373001B7D0F7C001206297800E204FF7D037CBD
:10038300001206297800E22402F280DC7F407E1FFF
:0603930012071602001023
:10047800A0C80A405A0A0FFF000000000000000050
:1004880000000000000000405A0006FF00000000C5
:100498000000000000000000000000404A0C0B4F64
:1004A8005D0D06FF00000000000000000000004095
:1004B8004A040F4F5D0F04FF000000000000000019
:1004C800000000404A06064F5D060CFF00000000D1
:1004D80000000000000000404A060D4F5D0B0CFFB5
:1004E8000000000000000000000000404A0E0D4F10
:1004F8005D0B0EFF0000000000000000000000403F
:100508004A00074F5D0E00FF0000000000000000D9
:10051800000000404A0E0F4F5D0F0EFF0000000064
:1005280000000000000000404A06074F5D0E0CFF67
:0B0538000000000000000000000000B8
:100736007F011206707F031206707F291206707FF2
:09074600401206707F09020670E2
:1006E10078D87440F2E478D4F208F278D8E2FFE4E2
:1006F100FDFC12062978D8E204F278D5E22401F251
:1007010018E23400F2C308E2943218E2940040DBAC
:0107110022C5
:1006AF0078D87440F2E478D4F208F278D8E2FF7D7B
:1006BF00FF7C0012062978D8E204F278D5E22401F3
:1006CF00F218E23400F2C308E2943218E2940040C8
:0106DF00DA40
:0106E00022F7
:1005D00078017440F2E478D4F208F27D0112062327
:1005E0001207127D031206231207127801E2FF7D23
:1005F000077C001206291207127801E2FF7D0F7CAA
:10060000001206291207127801E204F278D5E224DA
:1006100001F218E23400F2C308E2943218E29400C6
:0206200040B9DF
:0106220022B5
:10067000C292D291C2900000D290E4FEC291C29088
:100680000000D2900EEEB402F3E4FEEF30E704D2A5
:10069000918002C291C2900000D290EF25E0FF0E3F
:0E06A000EEB408E7D291C2900000D290D29240
:0106AE002229
:060623007801E2FF7C00FB
:10062900C292D291C2900000D290E4FEEF30E7046A
:10063900D2918002C291C2900000D290EF25E0FFD2
:100649000EEEB408E7E4FBED30E004D2918002C27B
:1006590091C2900000D290ECA2E713FCED13FD0BC0
:06066900EBB404E3D292A1
:01066F002268
:040712007FC87E001E
:10071600E4FDFCC3ED9FEC9E5015E4FBFA0BBB0019
:0F072600010AEB646E4A70F50DBD00010C80E412
:0107350022A1
:10039900E47802F208F2E47804F208F2780408E258
:1003A900FF7802E2FC08E2FD75F014A4240A2FF894
:0703B900E2F4700302045599
:1003C000780408E2FF2401F218E23400F2AE05EEF0
:1003D00075F014A4240A2FF8E27806F2780408E2F3
:1003E000FB2401F218E23400F2EE75F014A4240AA2
:1003F0002BF8E27807F2780408E2FF2401F218E211
:100400003400F2AE05EE75F014A4240A2FF8E27859
:1004100008F2780408E2FD2401F218E23400F2EE5A
:1004200075F014A4240A2DF8E27809F27806E2F9AE
:100430007807E2FFE9D39F40030203A5AF0108E27A
:10044000FD7C00120629E904FF08E2FD7C0012068B
:0504500029090980DB11
:100455007FD07E071207167803E22401F218E234F2
:1004650000F2C308E2940A18E26480948050030203
:02047500039FE3
:010477002262
:03000000020544B2
:0C054400787FE4F6D8FD75810702058B76
:10055000020003E493A3F8E493A34003F68001F2BE
:1005600008DFF48029E493A3F85407240CC8C333AC
:10057000C4540F4420C8834004F456800146F6DF7B
:10058000E4800B0102040810204080900478E47E8F
:10059000019360BCA3FF543F30E509541FFEE49370
:1005A000A360010ECF54C025E060A840B8E493A337
:1005B000FAE493A3F8E493A3C8C582C8CAC583CA62
:1005C000F0A3C8C582C8CAC583CADFE9DEE780BE1A
:0105430000B7
:00000001FF
