:1009C500120BD57FE87E03120DE6E4FDFF120D55EF
:1009D5007FE87E03120DE67D557FAA120D557FE84F
:1009E5007E03120DE67DAA7F55120D557FE87E0325
:1009F500120DE67D557F55120D557FE87E03120DCC
:100A0500E67DAA7FAA120D557FE87E03120DE6E466
:100A1500FD7FFF120D557FE87E03120DE67DFFE495
:100A2500FF120D557FE87E03120DE6E4FDFF120D62
:100A3500557FE87E03120DE6120B7B7FE87E0312DD
:100A45000DE6120C6F7FE87E03120DE6120D1E7F78
:090A5500E87E03120DE60209DC43
:10000E000000FC04040404050604040404060400B1
:10001E0040300F0000000000000000000000000053
:10002E000808088868180FE808080888080C0800EF
:10003E00004021110D41817F010509316100000051
:10004E00807000FF209840F807407FA090C8000005
:10005E00806018070834040504FF04040406040035
:10006E004448D07FD04C48A6623AA22232260200E3
:10007E0040300F003F1008090909FF09090D08005B
:10008E00242424A4FEA32200244800FF00800000A4
:10009E0010080601FF000102020202FF0101010029
:1000AE00101010FF1010888888FF88888C080000B8
:1000BE000444827F018081462810282641C04000DA
:1000CE0004040484E43C2724242424F42406040099
:1000DE0004020100FF0909090949897F0000000097
:1000EE0000FE0222DA0600FE92929292FF020000B9
:1000FE0000FF0810080700FF4224081422612000A8
:10010E0000008040300C00C0061820408080800027
:10011E000101003028242320202830600001000037
:10012E001010929292929292D29A1202FF020000B4
:10013E0000003F10101010103F0040807F000000A4
:10014E00041C6480641C04000000101F10000000DA
:10015E000080404040408000000F121212120B002F
:10016E0004FC84808084FC04101F100000101F10FB
:10017E0040C000000040C000000F101010081F10FB
:10018E0000404CCC000000000010101F10100000AA
:10019E0004FC04040408F000101F101010080700DF
:1001AE0000404CCC000000000010101F101000008A
:1001BE00008040404040C0000019121212120C0084
:1001CE0040C0804040800000407F4810100807006B
:1001DE00000808FC000000000010101F10100000A6
:1001EE000080404040800000000C1212091F1000D9
:1001FE0040C040000040C0400040433C0C030000A3
:10020E0000000000000000000018180000000000B0
:10021E0000008040404080000007081010100800C9
:10022E000080404040408000000F101010100F0062
:10023E0040C04040C0404080101F10001F10001FE3
:10024E0004FC040000000000101F10101010180015
:10025E00E018040404041C00030C10101008040021
:10026E0004FCFC00FCFC0400101F001F001F10000B
:10027E0000000808FC000000000010101F10100005
:10028E0000380404048478000018141211101800A9
:10029E000038040404847800001814121110180099
:1002AE000018048484443800000C101010110E0045
:1002BE000038040404847800001814121110180079
:1002CE000000000000000000404040404040404020
:1002DE0000F008040408F0000007081010080700DA
:1002EE0000F804040488F00000000911110807004A
:1002FE00FF010101010101010101010101010101E2
:10030E0001010101010101010101010101010101CF
:10031E0001010101010101010101010101010101BF
:10032E0001010101010101010101010101010101AF
:10033E00010101010101010101010101010101019F
:10034E00010101010101010101010101010101018F
:10035E00010101010101010101010101010101017F
:10036E00010101010101010101FFFF000000000078
:10037E00000000000000000000000000000000006F
:10038E00000000000000000000000000000000005F
:10039E00000000000000000000000000000000004F
:1003AE00000000000000000000000000000000003F
:1003BE00000000000000000000000000000000002F
:1003CE00000000000000000000000000000000001F
:1003DE00000000000000000000000000000000000F
:1003EE00000000FFFF000000000000000000000001
:1003FE0000000000000000000000000000000000EF
:10040E0000000000000000000000000000000000DE
:10041E0000000000000000000000000000000000CE
:10042E0000000000000000000000000000000000BE
:10043E0000000000000000000000000000000000AE
:10044E00000000000000000000000000000000009E
:10045E0000000000000000000000000000FFFF8010
:10046E00808080808080808080808080808080807E
:10047E00808080808080808080808080808080806E
:10048E00808080808080808080808080808080805E
:10049E00808080808080808080808080808080804E
:1004AE00808080808080808080808080808080803E
:1004BE00808080808080808080808080808080802E
:1004CE00808080808080808080808080808080801E
:1004DE0080808080808080FF3F3F03030303000005
:1004EE0000000000000000000000000000000000FE
:1004FE0000000000000000000000000000000000EE
:10050E0000000000000000000000000000000000DD
:10051E0000000000000000000000000000000000CD
:10052E0000000000000000000000000000000000BD
:10053E0000000000000000000000000000000000AD
:10054E000000000000000000000000000303030391
:10055E003F3F00000000000000000000000000000F
:10056E00000000000000000000000000000000007D
:10057E00000000000000000000000000000000006D
:10058E00000000000000000000000000000000005D
:10059E00000000000000000000000000000000004D
:1005AE00000000000000000000000000000000003D
:1005BE00000000000000000000000000000000002D
:1005CE00000000000000000000000000000000001D
:1005DE00000000000000000000000000000000000D
:1005EE0000000000000000000000000000000000FD
:1005FE0000000000000000000000000000000000ED
:10060E0000000000000000000000000000000000DC
:10061E0000000000000000000000000000000000CC
:10062E0000000000000000000000000000000000BC
:10063E0000000000000000000000000000000000AC
:10064E00000000000000FCFCC0C0C0C000000000A4
:10065E00000000000000000000000000000000008C
:10066E00000000000000000000000000000000007C
:10067E00000000000000000000000000000000006C
:10068E00000000000000000000000000000000005C
:10069E00000000000000000000000000000000004C
:1006AE00000000000000000000000000000000003C
:1006BE0000000000000000000000C0C0C0C0FCFC34
:1006CE00000000000000000000000000000000001C
:1006DE00000000000000F80808F80808F000F8888C
:1006EE008870004482926C00000000F80808F80838
:1006FE0008F00070A8A8B000708888FE00FA00C844
:10070E00A8A8F800000000F888887000FE00C8A8AD
:10071E00A8F80008708070080070A8A8B000F8084B
:10072E0008000000000000000000000000000000B3
:10073E0000000000000000000000000000000000AB
:10074E0000000000000000000000000000E000803B
:10075E008080000000000080838080808000008008
:10076E000000008000000000E0808000000080801B
:10077E0000008080808000808080C08000000000AB
:10078E0000030000000080808080808000000281D5
:10079E00800000E0808000008000000080000000EB
:1007AE00000000000000000000000000000000003B
:1007BE00000000000000000000000000000000002B
:1007CE00000000000000000F000F00000F000000EE
:1007DE00000F00000F00000F000027180700000098
:1007EE0000000F00000F00070A0A0B000C0A0A0F88
:1007FE00000F00000F0800000000000000000000C5
:10080E000F00000F00000F0007080807000F080870
:10081E00070000271807000000000000000000007D
:10082E000000000000000000000000000000FEFEBE
:10083E00387CFE10387CFE00000000FEFE00FEFE3E
:10084E000000000000FE7C3810FE7C38FEFE00002A
:10085E000000000000000000FC82827C000004FE0C
:10086E000000008800588E8A720084C2B28C00C0CC
:10087E0038064482926C00008800588E8A72006C92
:10088E0092926C00000000007C7C7C7C7C7C7C7CEA
:10089E007C7C7C7C7C7C7C7C44444444444444444A
:0808AE00444444444444447CEA
:02000600C10037
:03000300020D8962
:100D8900C0E0C0F0C083C082C0D075D0007FB87EFB
:100D99000B120EA520A302B20020A3097FB87E0B77
:100DA900120EA580F4D0D0D082D083D0F0D0E0321A
:0B0EA500EF1FAC0670011E4C70F6221F
:0F0E8A00EF4E600AEF1F70011E3000F480FB2254
:040DE600AA06AB07A7
:100DEA00EB1BAE0270011A4E6012E4FDEDC39405CE
:0C0DFA0050EE7F0A7E00120E8A0D80F081
:010E060022C9
:03000B00020EB032
:090EB000758CFF758A83B2B33220
:100E07007FFFC2B0C2B1C2B4D2B5EF30E709D2B4E6
:090E170000AF90C2B480F3D2B127
:010E200022AF
:100E21007FFFC2B0C2B2C2B4D2B5EF30E709D2B4CB
:090E310000AF90C2B480F3D2B20C
:010E3A002295
:100CAC00FF120E59E5172486FF120E83AB14AA15FA
:100CBC00A91675F020E513A42CF582E435F0F58324
:040CCC00120DB9FF4D
:100CD000AE07120E07D2B0C2B1C2B58E90D2B40028
:070CE000C2B4D2B5D2B1226B
:100CE700E51724C3FF120E9EAB14AA15A91675F0BB
:100CF70020E513A42CF582E435F0F583120DB9FF36
:100D0700AE07120E21D2B0C2B2C2B58E90D2B400D5
:070D1700C2B4D2B5D2B22232
:100E3B00AE07120E07C2B0C2B1C2B58E90D2B400CB
:070E4B00C2B4D2B5D2B122FE
:100E6800C2B0C2B2C2B58F90D2B400C2B4D2B5D2A9
:020E7800B222A4
:070E5200851217E51104FFF2
:0F0E5900AD074305B8AF05120E3BAF05020E689B
:090E7A00FF120E59E5142486FF55
:070E8300EF547FFF020E3B5C
:050E9900E51424C3FF75
:070E9E00EF547FFF020E6814
:100BD500C2B67F027E00120DE6D2B67F0A7E0012F3
:100BE5000DE67FE2120E3B7FE2120E687FA4120E25
:100BF5003B7FA4120E687FA9120E3B7FA9120E68D7
:100C05007FA0120E3B7FA0120E687FC0120E3B7FA5
:0E0C1500C0120E687FAF120E3B7FAF020E685A
:040D5500AC05AB0737
:100D5900E4FAAF02120E59E4FF120E83E4FF120EF9
:100D69009EE4FDAF03120CD0AF04120CD0AF0412F5
:0F0D79000D07AF03120D070DBD20E80ABA04D312
:010D88002248
:100B7B00E4F508750910750A10750B05750C02F56F
:100B8B000F7BFF7A0479E6120C29E4F50DE50DC312
:0E0B9B00950C5035E4F50EE50EC3950B502772
:100BA900E50E850AF0A42509F510E50D25E02508CF
:100BB900FF7514FF75150075160EAB0FAD10120AEF
:030BC9005E050FB7
:080BCC00050E80D2050D80C466
:010BD40022FE
:100D1E00750903750A10750B07750C01120C23E487
:100D2E00F508E508C3950A501DE508850BF0A425C6
:100D3E0009FD7511FF75120175134EAB08AF0C123C
:060D4E0008B6050880DC78
:010D5400227C
:100C6F0075090F750A0B750B08750C10750D0112B0
:100C7F000C23E4F508E508C3950A5020E508850B19
:100C8F00F0A42509FDE50C2508FB7511FF75120170
:0C0C9F0075134EAF0D1208B6050880D981
:010CAB002226
:060A5E008F118D128B13B5
:100A6400851217120E59E512C3943D5036E4FCE585
:100A740017C3943D5007AF17120CB58003120CE74F
:100A840005170CBC10E9120E527C10E517C3943DF7
:100A94005007AF17120CB58003120CE705170CBCF6
:100AA40020E922E4FCE517C3947A5005120CE78090
:100AB4000EE511D394015007E5112402120CAC0584
:100AC400170CBC10E0120E527C10E517C3947A5038
:100AD40005120CE7800EE511D394015007E51124AB
:0A0AE40003120CAC05170CBC20E057
:010AEE0022E5
:0608B6008F0E8D0F8B1068
:1008BC00850F14120E59E50FC3943D5075E4FCE5F9
:1008CC0014C3943D5015AF14120E83AB11AA12A988
:1008DC001375F010E510120CC38011120E99AB11A8
:1008EC00AA12A91375F010E510120CFA05140CBC21
:1008FC0008CD850F14E50E04FF120E597C08E51483
:10090C00C3943D5015AF14120E83AB11AA12A91348
:10091C0075F010E510120CC38011120E99AB11AAD0
:10092C0012A91375F010E510120CFA05140CBC107A
:10093C00CD22E4FCE514C3947A5013120E99AB113A
:10094C00AA12A91375F010E510120CFA801CE50E12
:10095C00D394015015E50E2402120E7AAB11AA1293
:10096C00A91375F010E510120CC305140CBC08C4C7
:10097C00850F14E50E04FF120E597C08E514C39480
:10098C007A5013120E99AB11AA12A91375F010E537
:10099C0010120CFA801CE50ED394015015E50E24B0
:1009AC0003120E7AAB11AA12A91375F010E51012EE
:0809BC000CC305140CBC10C4AF
:0109C4002210
:060C23007BFF7A0279FE5E
:060C29008B118A128913F1
:100C2F00E4FCAF04120E59E4FF120E83E4FF120E20
:100C3F009EE4FDAB11AA12A91375F07AECA42D1244
:100C4F000CC50DBD3DED7D3DAB11AA12A91375F07D
:0F0C5F007AECA42D120CFC0DBD7AED0CBC04C375
:010C6E002263
:03000000020AEF02
:0C0AEF00787FE4F6D8FD758120020B36FC
:100DB900BB010CE58229F582E5833AF583E02250EF
:100DC90006E92582F8E622BBFE06E92582F8E22239
:0D0DD900E58229F582E5833AF583E4932253
:100AFB000209C5E493A3F8E493A34003F68001F243
:100B0B0008DFF48029E493A3F85407240CC8C333FB
:100B1B00C4540F4420C8834004F456800146F6DFCA
:100B2B00E4800B0102040810204080900006E47E54
:100B3B00019360BCA3FF543F30E509541FFEE493BF
:100B4B00A360010ECF54C025E060A840B8E493A386
:100B5B00FAE493A3F8E493A3C8C582C8CAC583CAB1
:100B6B00F0A3C8C582C8CAC583CADFE9DEE780BE69
:0100080000F7
:00000001FF
