:10127E007F147E001218A775A88175B801758801B4
:10128E00D2A112184F1217C87DAA7F551217217FAF
:10129E00587E021218A77D557FAA1217217F587EFD
:1012AE00021218A77D557F551217217F587E021204
:1012BE0018A77DAA7FAA1217217F587E021218A79F
:1012CE00E4FD7FFF1217217F587E021218A77DFFC3
:1012DE00E4FF1217217F587E021218A71216387FCC
:1012EE00F47E011218A71218FEEF60FA900013E0B8
:1012FE0004F0E0D3940840037401F0900013E0145E
:10130E00B4080050E190132175F003A4C58325F0B5
:10131E00C5837302133902133D02134102134702B0
:10132E00134D0213530213590213627DAA800C7DD2
:10133E005580027DAA7FAA80167D557F5580107D2F
:10134E00FFE4FF800AE4FD7FFF80047DFF7FFF1234
:09135E0017218092121638808DCF
:07191100C10042000B0000C1
:10186D007FFFD2B3C2B4C2B0D2B17590FFEF30E7F3
:0A187D0009D2B200AF90C2B280F3AE
:01188700223E
:101888007FFFC2B3D2B4C2B0D2B17590FFEF30E7D8
:0A18980009D2B200AF90C2B280F393
:0118A2002223
:1016E10090000EE054C024C0600924407008121814
:1016F1006D800312188890000EE0543F4440FF9023
:10170100000DE0540744B8C2B0C2B1F590D2B200A6
:0F171100C2B200C2B0C2B18F90D2B200C2B20059
:0117200022A6
:1018D600AE0712186DAF068F90C2B0C2B1D2B20079
:0418E600C2B2002268
:1018EA00AE07121888AF068F90C2B0C2B1D2B2004A
:0418FA00C2B2002254
:1018BE001216E1D2B0D2B17590FF00D2B200AF9045
:0718CE00C2B200C2B3C2B4B4
:0118D50022F0
:10182300900003E02FFF900002E034008F82F583E5
:041833001217F6FF93
:10183700AD071216E1D2B0C2B1AF058F90D2B20098
:08184700C2B200C2B3C2B42218
:1017C800E490000DF0A3F090000DF0E490000EF00E
:1017D800E4FF12183790000EE004F0E0C394804054
:0E17E800EF90000DE004F0E0C3940840DE2214
:10184F007F3F1218D67F3F1218EA7FC01218D67F3B
:0E185F00C01218EA7F3F1218D67F3F0218EA27
:10172100AC05AB07E490000DF0A3F090000DF0E4E0
:1017310090000EF0AF0312183790000EE004F0AFE6
:101741000412183790000EE004F0E0C3948040E4E6
:0D17510090000DE004F0E0C3940840D322A6
:0B15DB00900001EBF0A3EAF0A3E9F0A0
:1015E600E4A3F0A3F090000DF0A3F090000DF0E45A
:1015F60090000EF0900001E0FBA3E0FAA3E0F9A34F
:10160600E0FEA3E0F5828E83121833900005E00415
:10161600F07006900004E004F090000EE004F0E0A4
:10162600C3948040CF90000DE004F0E0C3940840DE
:01163600BEF5
:011637002290
:0B157900900006EBF0A3EAF0A3E9F0FD
:10158400E4A3F0A3F090000DF0A3F090000DF0E4BC
:1015940090000EF0900006E0FBA3E0FAA3E0F9A3AC
:1015A400E0FEA3E0F5828E831217F6F4FF121837DB
:1015B40090000AE004F07006900009E004F0900046
:1015C4000EE004F0E0C3948040CA90000DE004F003
:0615D400E0C3940840B9D9
:0115DA0022EE
:06175E007BFF7A00790612
:10176400E4900010F0ED75F008A4F0E490000FF0A0
:1017740090000FE0FFC39408501AA3E0FDEF2DF58D
:1017840082E43312183190000EE004F090000FE070
:0417940004F080DC01
:01179800222E
:061500007BFF7A00791E5A
:10150600E4900001F0A3F0A3F0ED75F020A4FF90A5
:101516000002E5F0F0A3EFF0E4900001F090000186
:10152600E0FFC39410501112182390000EE004F04F
:10153600900001E004F080E590000EE024F0F090C9
:10154600000DE004F09000017410F0900001E0FF3F
:10155600C39420501112182390000EE004F090005E
:1015660001E004F080E590000DE014F07F507E006D
:031576000218A7B1
:1013F300E4900012F090000EF0FC90000DECF0E48D
:10140300900011F07BFF7A007906E4FD12176490D7
:101413000011E004F0E0C3941040E9E490000EF002
:101423000CECB408D51218A3E4FC90000DECF0E426
:10143300900011F07D0112175E900011E004F0E0BE
:10144300C3941040EFE490000EF00CECB408DB12F0
:1014530018A3E4FC90000DECF0E4900011F07D0281
:1014630012175E900011E004F0E0C3941040EFE423
:0914730090000EF00CECB408DB53
:01147C00224D
:10163800E4900000F07BFF7A02797E1215DB9000BF
:101648000D7402F0E4A3F0900000F0900000E0FDBB
:10165800C39408500B121500900000E004F080EBD2
:1016680090000D7404F0E4A3F09000007408F0906A
:101678000000E0FDC39410500B121500900000E02C
:0416880004F080EBFF
:01168C00223B
:0418A3007FF47E014F
:1018A700EF4E600F7D027CF6DCFEDDFAEF1F70F075
:0618B7001E80ED2000FD83
:0118BD002208
:0300030002179948
:101799000000000000000000000000000000000040
:1017A9000000000000000000000000000000000030
:0F17B90000000000000020A102B20030A1FD32AC
:1018FE0020A00D7F017E001218A730A0FD7F0122CF
:03190E007F002235
:10147D0090000BE0FEA3E0FFEE7054EFB4080050B7
:10148D004E901495F82828730214AD0214B102146D
:10149D00B50214BB0214C10214C70214CD0214D636
:1014AD007DAA80067D5580087D557F5580167DAAC5
:1014BD007FAA8010E4FD7FFF800A7DFFE4FF80049A
:1014CD007DFF7FFF12172180031216381218A3908B
:1014DD00000CE004F0700690000BE004F0D39000D7
:1014ED000CE0940790000BE0648094804004E4F0DD
:0214FD00A3F05A
:0114FF0022CA
:10168D00900014E004F0E075F00684E5F0F0121718
:10169D00C8900014E014601614601914601C1460D6
:1016AD001F1460252405702BE4FD7FFF80167DAA95
:1016BD007F5580107D557F55800A7DFFE4FF8004A6
:1016CD007DAA7FAA12172180031216387FE87E03A8
:0316DD001218A739
:0116E00022E7
:10000600000066998181423C00007E42427E0000EB
:100016000018244242241800202827E43CA4262461
:1000260020FC848484FE0400040201FC54545754CA
:10003600545554FE04010000001010101010FF105B
:1000460010101010F8100000008080806018070063
:10005600204080403F0000004040424458C0407F5E
:1000660040C0504846644000008040201807000009
:10007600003F40404040700000F848484848FF486C
:10008600484848FC080000000007020202023F42FE
:1000960042424247407000000000FE2222FF42A07A
:1000A6009E828282BFA2200080403F0242FF8040A3
:1000B600432C182846C14000804020F88740B08E67
:1000C6008080879820602000000000FF0040300FED
:1000D6004080403F0000000004040484E43C2724E0
:1000E600242424F42406040004020100FF0909095B
:1000F6000949897F0000000000FE0222DA0600FEA0
:1001060092929292FF02000000FF0810080700FF7B
:10011600422408142261200000008040300C00C0F8
:10012600061820408080800001010030282423200A
:100136002028306000010000101092929292929254
:10014600D29A1202FF02000000003F101010101099
:100156003F0040807F00000000000004FCFC04001B
:100166000000000000000000000000203F3F2020AB
:100176002020203038000000000000E0F0180C04B9
:1001860004040C1818000000000000070F183020A7
:100196002020301008000000000004FC1C70E080E5
:1001A6000080E010FCFC04000000203F2000010756
:1001B6001C0700203F3F200000000000000008F858
:1001C600FC00000000000000000000000000203FCE
:1001D6003F200000000000000000000030380C0442
:1001E600040CF8F000000000000000002030382C5D
:1001F6002623213800000000000000003078CC845F
:1002060084CC783000000000000000000E1F312072
:1002160020311F0E0000000000000000F0F88C44A2
:1002260044CC981000000000000000000F1F302092
:1002360020301F0F000000000000000080C0701872
:10024600FCFE000000000000000000060705042474
:100256003F3F2404000000000000000000806018FA
:100266000C78E08000000000000000203C2702021D
:100276000202273F3C2000003F3F03030303000028
:100286000000000000000000000000000000000068
:100296000000000000000000000000000000000058
:1002A6000000000000000000000000000000000048
:1002B6000000000000000000000000000000000038
:1002C6000000000000000000000000000000000028
:1002D6000000000000000000000000000000000018
:1002E6000000000000000000000000000000000008
:1002F6000000030303033F3F00000000000000006E
:1003060000000000000000000000000000000000E7
:1003160000000000000000000000000000000000D7
:1003260000000000000000000000000000000000C7
:1003360000000000000000000000000000000000B7
:1005F6000000000000000000FCFCC0C0C0C00000FD
:1006060000000000000000000000000000000000E4
:1006160000000000000000000000000000000000D4
:1006260000000000000000000000000000000000C4
:1006360000000000000000000000000000000000B4
:1006460000000000000000000000000000000000A4
:100656000000000000000000000000000000000094
:100666000000000000000000000000000000000084
:100676000000C0C0C0C0FCFCFF010101010101C1B6
:10068600F1FDFD810101010101010101C1E1F1F964
:10069600F9FDFDF9F961F15101090D0D0509090988
:1006A60009090999B9C10101018181C1C18101010C
:1006B6000101010101010101FF0101010101010126
:1006C6000101010101010101010101010101010114
:1006D60001010101E1F1F1F1E1C1010101010101B4
:1006E6000101F10101010101010101010101010104
:1006F60001010101010101FFFF003030787C7F71AB
:100706006660717F7C80000000000000078F7F1FFD
:100716001F3F7FFEFEFAF3F6F6C448181878F8F87D
:10072600F8FCF4F4EFE89971061FFFFFFFFF7F3E28
:100736000000000000000000FF00000000000000B4
:1007460000000000E0FCFEFEFC78202010100808E7
:10075600080C040407070F0F0F0F1F10102020406E
:10076600C080FF0000000000000000000000000044
:1007760000000000000000FFFF0000000000000075
:1007860000000000C0237C48488878300CE3F0F86D
:10079600FC1E4E4E6FDF7D3101000000C0B09899FF
:1007A60039F9F9F9F1E1C000000000FF000000008E
:1007B6000000000000000000FF0000000000000034
:1007C6000000C070080703010080808484000800D0
:1007D60000000201C0F0F8FCFEFEFFFFFFFFFFFF76
:1007E600FFFFFF7E7C7C3060C00000000000000040
:1007F60000000000000000FFFF00000000000000F5
:100806000000000007081810103FF860C083070FAB
:100816000F0E0C040E8C88008000000000040C1DD6
:100826001D3F3F3F3F1F0F000080E03F00000000DC
:100836000000000000000000FF00000000000000B3
:10084600E0FEF1FCFCFEFFFFFFFFFFFFFFFFFF7E68
:100856007E7C38201F3FFFFFCFC7E7E3F3F3F1F9B4
:10086600F9FCFCFCFE7E3F00011FF00000000000CA
:1008760000000000000000FFFF0000000000000074
:100886000000000000000000000001031C7183024C
:10089600E4FC7839111010102020202020E0E0E040
:1008A60070303078F8FCE40201010000000000001E
:1008B6000000000000000000FF0000000000000033
:1008C6003FCF3FFFFFC7E7E3F3F3F1F9F8FCFCFC8A
:1008D600FEFE7F1F03000001030307070707070744
:1008E6000707030101804020180F010000000000E7
:1008F60000000000000000FFFF00000000000000F4
:100906000000000000000000000000000000F11FD1
:1009160001000000000000000000000000010301CB
:100926000410600000030718E0000000000000004B
:100936000000000000000000FF00000000000000B2
:10094600000106081131234347C7878787830303BE
:10095600010000040484A08080C0C020201010087C
:100966000804FEC2C1E0F0700000000000000000B4
:1009760000000000000000FFFF0000000000000073
:100986000000000000000000000000000000FF80E2
:100996000000000000000000000000000000E0E091
:1009A6008080830E0E8C8400008080808000000092
:1009B600808000808080E0E00FA0A0000080808022
:1009C60080000080808080800000E0E0000181815E
:1009D60081078783030707878707070707878787AF
:1009E600070707878783810000808080808080805A
:1009F60080800000000000FFFF8080808080808073
:100A060080808080808080808080808080808087D9
:100A160090A0A0C0C1C2C2A6B6A2C0C0C0809F9FFF
:100A260090909F8F808F9F90909F9FC0C7FFB89F89
:100A360087808F9F90909F9F809F9F808B9B96968D
:100A46009D8D80FFFF90909F8F809F9F808D9E92AF
:100A56009F9FC0C7FFB89F87809898808F9F909967
:100A660089808F9F90909F8F809F9F80809F9F807F
:100A7600809F9F80808080FFFF01010101010101AD
:100A86000101010101010101010101010181C1F120
:100A9600F9FDF10181C1818181810101010101011C
:100AA6000101010101010101010101010101010130
:100AB6000101010101010101010101010101010120
:100AC600010181F1F9FFFDC10101010101010101EE
:100AD600C1E1F1F9F9FDFDF9F1E1E1B111191D1DD0
:100AE6000D09191919090939F9D98101010101817C
:100AF60081818101010101FFFF000000000000006B
:100B0600000000000000000000000000033FFFFF9F
:100B1600FFFFFFE001FFFFFF03030707070F0F0EAD
:100B26001E1E1E3C3C3C7C7878F8F8F8F0F0F0008D
:100B3600000000000000000000000000006060707F
:100B4600787E7B6F4D7B73FFF0000000000000078E
:100B56001F3FFF3F1FFFFFFFFFF7F7F6ECDCF83004
:100B660030F0F8F8F8F8E8ECEFFBFBF30E3F7FFF08
:100B7600FFFFFFFF3C0000FFFF0000000000000039
:100B86000C3CF8F8F8F0F0F0E0E0C0C0C080810F4F
:100B9600FFFFFFFF80007FFFFC0000000000000059
:100BA60000000000000000000000F8FFFF1F00002A
:100BB600000000000000000000000000000000002F
:100BC6000000000000000080C37FF8D09090F0780D
:100BD600DEE3F0F8F8FCBCDF5FFFFF7B01010000FD
:100BE600C0F0F17B7BFBF7F7E3E3C301000000FFF6
:100BF600F9010100000000FFFF00000000000000F6
:100C0600000000071F7FF8C1010103030307070760
:100C160000073FFFFF00003FFFF00000000000005C
:100C26000000000000000000C0FFFF1F01000000E0
:100C360000000000000000000000000000000000AE
:100C460000000000000000071C38302377FFFFC0BB
:100C5600870F1F1F1F1F1D0C1E39190000000000E3
:100C66000319193B387F7F7F3F3F1F020080C0FF7B
:100C76003E000000000000FFFF00000000808080B2
:100C860080808000000001071E00000000000000B8
:100C9600000000031F3F80000F0F8E8E8E8E8E8EFB
:100CA6000E0E0E0E8E8E0E0E0F0F010000000000AF
:100CB600808000000000000000000000000000002E
:100CC6000000000000000000000000000000071EF9
:100CD60079E3860CC8F8F1732323236361604040EF
:100CE6004060E0E0E060E0F0F0F8CC0C06030100C4
:100CF60000000000000000FFFF00000000FFFF886A
:100D0600888888000064F29A8AFEFC00004CDE9A0D
:100D1600B2F66400027FFF820000FFFF0808187F1A
:100D2600E7800000FEFE00004CDE9AB2F66400008A
:100D3600FEFE0000FEFE0402FEFC00007CFE824475
:100D4600FEFE0000000000000000000000000000A1
:100D56000000FB3F03000000000000000000000050
:100D6600000007070C38E04001030F38F040000090
:100D760000000000000000FFFF000CEC8C8C8C0CC7
:100D86000C8C0C0C0C8C0C8C0C0C0C8C0C0C8C8C9D
:100D96008CEC0CAC0C0C0C8C8C8C0C8C8C8C8C0C0D
:100DA6000CEC0C0C8C8C8C0C0C8C0C0C0C8C0C0C1D
:100DB6000C0C8C8C0C0C0C8C8C8C0C0C8D8E8E0E66
:100DC6008F8D0C0C000000000000000000000000E9
:100DD6000000FFC00000000000000000000000004E
:100DE600000000000000C3FE3E1C0C0603000000CD
:100DF60000000000000000FFFF80808F8888888741
:100E060080878888888F80A0A79887808087888831
:100E1600888F808F8080898A8A8480BF8888888727
:100E2600808F8080848A8A8F80A0A7988780808818
:100E36008087888885808788888887808F80808F4C
:100E460080808F808080808080808080808080808D
:100E56008080819FB8E0C0C0C2C2C6E6FEC6C0C0E0
:100E66008080C0C0E0FC9F80808080808080808001
:100E760080808080808080FF0000000000C000E04D
:100E860000F000FC0000000004061212FEEC00F860
:100E9600FC060222E6E40000000000000000F090DC
:100EA6009C04F404F4F404F4F40404FC00000000CC
:100EB600000000000000000000000000000000002C
:100EC600000000000000000000000000000000001C
:100ED600000000000000000000000000000000000C
:100EE60000000000000000000000000000000000FC
:100EF60000000000000000000000000300030003E3
:100F060000030003000000000103020203010000C9
:100F160001030202030100000000000000000000BF
:100F260003020202020202020202020300000000A1
:100F360000000000000000000000000000000000AB
:100F4600000000000000000000000000000000009B
:100F5600000000000000000000000000000000008B
:100F6600000000000000000000000000000000007B
:100F7600000000000000000000000000000000006B
:100F8600008080C0C0E0F0F8FEFFFFFFFFFF00001A
:100F9600000000000000000080F0F8FCFEFE7F3F2D
:100FA6001F1F1F3F7FFEFEFCFCF0E000000000005C
:100FB6000000000000000000000000000000C0F07B
:100FC600F8FCFEFE7F3F1F1F1F3FFEFEFCFCF0E00D
:100FD60000000000000000000000000080E0F0FCBF
:100FE600FFFFFFFFFFFF0000000000000000000001
:100FF60000000000000000000000000000000000EB
:101006001F1F0F0F07070301FFFFFFFFFFFF000072
:1010160000000000000000000103030303030000BA
:101026000080C0E0F8FFFFFFFF3F0F000000000058
:10103600003F3F3F3F3F3F00000000000000000030
:101046000001010100E0F0F0F8FCFFFFBF9F0F0375
:101056000000000000000080E0F8FCFFFF3F1F07D3
:10106600FFFFFFFFFFFF0000000000000000000080
:10107600000000000000000000000000000000006A
:101086000000000000000000FFFFFFFFFFFF000060
:101096000000000000000000000080C0E0F8FCFE38
:1010A600FF3F3F1F0F070301000000000000000084
:1010B60000000000000000000000000000C0C0E0CA
:1010C600E0E0E08000010101010307FFFFFFFFFEF2
:1010D600F8000000F8FCFFFFFFFFF7F1F0F0F0F07A
:1010E600FFFFFFFFFFFFF0F0F0F000000000000040
:1010F60000000000000000000000000000000000EA
:1011060000000000000000007F7F7F7F7F7F0000DF
:1011160000000000000000707C7F7F7F7F7F7F7F64
:101126007E7E7E7E7E7E7E7E7E7E7E00000000004F
:10113600007E7E7E7E7E7E00000000000000030FA3
:101146001F3F3F3F7E7C7C7C7C7E3F3F1F1F0F07FF
:10115600010000000101010101010101010101017C
:101166007F7F7F7F7F7F010101010000000000007B
:101176000000000000000000000000000000000069
:101186000000000000000000000000004060202079
:10119600E0C00080E06020202000000000C0E020C9
:1011A60020E0C00080C020206040000000004060B9
:1011B6002020E0C000C0E02020E0C0000080C0E0A9
:1011C600E000000080C0E0E00000000000C0E02079
:1011D600202060400000808080800080C0E0800089
:1011E60000000000000000000000000000000000F9
:1011F60000000000000000000000000000000000E9
:1012060000000000000000000000000030382C261E
:10121600232100133321213F1E003030001F3F20C1
:10122600203F1F001F3F21213F1E00303000303875
:101236002C262321001F3F20203F1F000001003FD6
:101246003F00000001003F3F000000000011332373
:1012560027263E1C00193C26223F3F001F3F200048
:101266000000000000000000000000000000000078
:08127600000000000000000070
:0300000002136781
:0C136700787FE4F6D8FD7581200213AEFB
:1017F600BB010CE58229F582E5833AF583E02250A8
:1018060006E92582F8E622BBFE06E92582F8E222F1
:0D181600E58229F582E5833AF583E493220B
:1013730002127EE493A3F8E493A34003F68001F200
:1013830008DFF48029E493A3F85407240CC8C3337B
:10139300C4540F4420C8834004F456800146F6DF4A
:1013A300E4800B0102040810204080901911E47EB0
:1013B300019360BCA3FF543F30E509541FFEE4933F
:1013C300A360010ECF54C025E060A840B8E493A306
:1013D300FAE493A3F8E493A3C8C582C8CAC583CA31
:1013E300F0A3C8C582C8CAC583CADFE9DEE780BEE9
:0119180000CE
:00000001FF
