:03000000021AB928
:0C1AB900787FE4F6D8FD75810702179DC8
:100AE600FF030101010101010101010101010101F0
:100AF60001010101010101010101010101010101E0
:100B060001010101010101010101010101010101CF
:100B160001010101010101010101010101010101BF
:100B260001010101010101010101010101010101AF
:100B3600010101010101010101010101010101019F
:100B4600010101010101010101010101010101018F
:100B5600010101010101010101010101010103FF7F
:100B6600FF0000000080C0603018CCCC9C3870E0DC
:100B7600C08000000000000000000000000000C06F
:100B8600E03018CCE6F2E2861CF8E0800000008037
:100B96008080000000000000000808FF88488A42A4
:100BA600320E224242221E00000000000000808019
:100BB6008000000080E0F81C86E2F2E6CC1830E007
:100BC600C00000000000000000000000000080C01F
:100BD600E070389CCCCC183060C08000000000FF6C
:100BE600FF0000E0DC0700001E1F1F9F9F9E808005
:100BF60043872F4E0E0E0E0E0E0E0E0E0E4E278332
:100C060040808F8F8F8F0F0F000003FFF233F1119B
:100C1600F101E3270EFC60000011211F0000003FD8
:100C260011111111113F00000060FC0E27E301F1C4
:100C360011F133F2FF0300000F0F8F8F8F8F80406B
:100C460083274E0E0E0E0E0E0E0E0E0E4E2F8743E1
:100C560080809E9F9F1F1F1E000007DCE00000FF94
:100C6600FFF8FF0F000000000000384492BABA9265
:100C760045380000000000000000000000000038B9
:100C86004592BABA92443800000000010FFCE10018
:100C9600010000000EFFC00000FE4A4A4AFE00089E
:100CA6000808C838FF08080000C0FF0E0000000151
:100CB60000E1FC0F0100000000384492BABA9245E8
:100CC6003800000000000000000000000000384569
:100CD60092BABA9244380000000000000FFFF8FFF5
:100CE600FF1FFFFCC00004A8484848484848484839
:100CF6004890000000000038FCF83838000000007A
:100D06000048242424A4A4A4A4A45200807F1F0085
:100D160000180000F8FDFF5C00231A02020B3004E5
:100D2600021120201F0000005CFFFDF800001800E3
:100D3600001F7F800052A4A4A4A4A4242424480055
:100D4600000000003838F8FC380000000000904829
:100D56004848484848484848A80400C0FCFF1FFFC8
:100D6600FF000001070FFEF8F1E1C1C18101010298
:100D76002234303018180E030100030408183030EE
:100D860030808281C1C0E0E0F0F07C3E03000000CC
:100D960000000000F03D070000242C9256E904C430
:100DA600445FC4445FC4040000073DF00000000037
:100DB600000000033E7CF0F0E0E0C0C1818280309C
:100DC6003030180804030001030E1818303034229E
:100DD60002010181C1C1E1F1F8FE0F07010000FF28
:100DE600FF000000303E070103070F0F0F0F3F1FE4
:100DF6003F3E3E3E3E3E3E3E3E3E3F3F3F3F3F1F26
:100E06003F3F3F3F1F1F3F3F3F1E000000000000C7
:100E160000003E3F3600000000090914221F003F73
:100E260012121F12123F0000000000363F3E000063
:100E36000000000000001E3F3F3F1F1F3F3F3F3F97
:100E46001F3F3F3F3F3F3E3E3E3E3E3E3E3E3E3FD5
:100E56001F3F0F0F0F0F070301073E30000000FF73
:100E6600FFC08080808080808080808080808080BD
:100E7600808080808080808080808080808080806C
:100E8600808080808080808080808080808080805C
:100E9600808080808080808080808080808080804C
:100EA600808080808080808080808080808080803C
:100EB600808080808080808080808080808080802C
:100EC600808080808080808080808080808080801C
:100ED6008080808080808080808080808080C0FF4D
:100EE60000000000000000000000000000000000FC
:100EF600000000000000000000000000000000806C
:100F0600E0000000000000000000000000020202F5
:100F1600020203030707070E0E1E1E3E7CFCF8F8AE
:100F2600F0E0E0800000000000000000000000008B
:100F360000000000000000000000000000000000AB
:100F4600000000000000000000000000000000009B
:100F5600000000000000000000000000000000008B
:100F6600000000000000000000000000000000007B
:100F76000000000000000000000000000206071F3D
:100F86003F0F060202000000000000000000000003
:100F96000000000000000000000000000000010347
:100FA6000F3FFFFFFFFEF8E000000000000000001A
:100FB600000000000000000000000000000000002B
:100FC600000000000000000000000000000000001B
:100FD600000000000000000000000000000000000B
:100FE60000000000000000000000000000000000FB
:100FF60000000000000000000000000000000000EB
:1010060000000000000000000000000000000000DA
:1010160000000000000000000000000000000000CA
:101026000000010707070707060000000000000090
:1010360000000000000000000000000000000000AA
:10104600000000000000000000000000000000009A
:10105600000000000000000000000000000000008A
:10106600FEFEFEFE000000000000000000FEFEFE88
:10107600FE000000000000C0F0F8F87C3C1E1E1EBA
:101086001E1E0E0E0E0E0E000000000000FEFEFEDE
:10109600FE1E1E1E1E1E1E1E1C3C7CFCF8F0E000E2
:1010A6000000000000FEFEFEFE0000000000000042
:1010B6000000000000000080E0F8F8FC3C1C1E1E4A
:1010C6001E1E0E0E0E0E0E0C0000000000FEFEFE92
:1010D600FE1E0E0E0E0E1E1E1C3C7CFCF8F0E08062
:1010E600FFFFFFFF1E1E1E1E1E1E1E1E1EFFFFFFF3
:1010F600FF00000000000CFFFFFFFFDE1C1C1C1C95
:101106001C1C1C1C1C1C1C000000000000FFFFFF18
:10111600FF00000000000000000080FFFFFFFF3F0F
:101126000000000000FFFFFFFF00000000000000BD
:1011360000000000000000FFFFFFFFE100000000CC
:1011460000000000000000000000000000FFFFFF9C
:10115600FF00000000000000000080FFFFFFFF7F8F
:101166001F1F1F1F0000000000000000001F1F1FA0
:101176001F0000000000000003070F0F0F1E1E1EB9
:101186001E1E1E1E1E1E1E0000000000001F1F1F2A
:101196001F1E1E1E1E1E1E1E1E9F8F8F87878100EE
:1011A60000000000000103070F0F1E1E1E1C1C1C62
:1011B6001C1C1C000000000003070F0F0F1E1E1E44
:1011C6001E1E1E1E1E1E1E0C00000000001F1F1FDE
:1011D6001F1E1C1C1C1C1C1E1E1E0F0F0F070300AF
:1011E60000000000000000000000000000000000F9
:1011F600001820C080000000000000000000000071
:101206000000000000000000000000000000008058
:1012160080C0E0F0F0F8FC7E7F3F1F0F0701000062
:1012260000000000000000000000000000000000B8
:1012360000000000000000000000000000000000A8
:101246000000000000000000000000000000000098
:101256000000000000000000000000000000000088
:101266000000000000000000000000000000000078
:10127600000000000103060C1C18383878707070E6
:101286007070F0F070787878787C3C3E3E1F1F1FB7
:101296000F07070303010000000000000000000024
:1012A6000000000000000000000000000000000038
:1012B6000000000000000000000000000000000028
:1012C6000000000000000000000000000000000018
:1012D6000000000000000000000000000000000008
:10179D001217EE1218DC7F2C7E011219CA121AAC28
:1017AD0012191D7FE87E031219CA121AAC7BFF7A3B
:1017BD000A79E6E490002BF0FD1216F37FE87E0324
:1017CD001219CA121AAC7BFF7A0E79E6E490002B3F
:1017DD00F0FD12169B7FE87E031219CA1217EE80D8
:0117ED00AF4C
:100003003132382A363420446F74730049433A53EB
:100013005437353635520057686174734170703AFE
:10002300002B3836313336203232343920363639E4
:100033003400537570706F727420382D42697420C8
:10004300706172616C6C656C004275732028383086
:100053003830206F722036383030204D6F64652978
:10006300002053657269616C2042757320496E7478
:100073006572666163650000000000000000000017
:1000830000000000000000000038FCFC3800000005
:1000930000000D0D000000000E1E00001E0E0000EB
:1000A3000000000000000020F8F820F8F82000020B
:1000B3000F0F020F0F0200387C444747CC98000310
:1000C30006041C1C07030030300080C06030000CA5
:1000D300060301000C0C0080D87CE4BCD840000768
:1000E3000F0808070F080000101E0E000000000094
:1000F300000000000000000000F0F80C0400000005
:100103000003070C0800000000040CF8F0000000D6
:1001130000080C0703000080A0E0C0C0E0A080003E
:1001230002030101030200008080E0E08080000000
:1001330000000303000000000000000000000000B6
:1001430000101E0E000000808080808080800000F0
:10015300000000000000000000000000000000009C
:1001630000000C0C00000000000080C06030000C98
:1001730006030100000000F8FC04C424FCF8000797
:100183000F0908080F0700001018FCFC000000000E
:1001930008080F0F080800080C84C4643C18000EFC
:1001A3000F0908080C0C00080C444444FCB8000474
:1001B3000C0808080F0700C0E0B098FCFC800000A2
:1001C3000000080F0F08007C7C4444C4C48400046E
:1001D3000C0808080F0700F0F84C4444C0800007DF
:1001E3000F0808080F07000C0C0484C47C3C0000B3
:1001F300000F0F00000000B8FC444444FCB80007A3
:100203000F0808080F0700387C444444FCF800003A
:100213000808080C0703000000003030000000004D
:10022300000006060000000000003030000000005F
:1002330000080E060000000080C0603018080000AF
:10024300000103060C0800404040404040400002CB
:10025300020202020202000008183060C08000009F
:10026300080C0603010000181C04C4E43C18000039
:1002730000000D0D000000F0F808C8C8F8F00007F2
:100283000F080B0B0B0100E0F0988C98F0E0000FC7
:100293000F0000000F0F0004FCFC4444FCB80008EE
:1002A3000F0F08080F0700F0F80C04040C180003E4
:1002B300070C08080C060004FCFC040CF8F000080A
:1002C3000F0F080C07030004FCFC44E40C1C00089B
:1002D3000F0F08080C0E0004FCFC44E40C1C00087F
:1002E3000F0F0800000000F0F80C84848C980003C2
:1002F300070C0808070F00FCFC404040FCFC000F03
:100303000F0000000F0F00000004FCFC04000000BD
:1003130000080F0F08000000000004FCFC040007A5
:100323000F08080F07000004FCFCC0F03C0C000899
:100333000F0F00010F0E0004FCFC04000000000876
:100343000F0F08080C0E00FCFC387038FCFC000F83
:100353000F0000000F0F00FCFC3870E0FCFC000FE6
:100363000F0000000F0F00F0F80C040CF8F000036E
:10037300070C080C07030004FCFC44447C38000809
:100383000F0F0800000000F8FC040404FCF8000749
:100393000F080E3C3F270004FCFC44C4FC38000853
:1003A3000F0F00000F0F00183C6444C49C18000694
:1003B3000E0808080F0700001C0CFCFC0C1C0000B6
:1003C30000080F0F080000FCFC000000FCFC000705
:1003D3000F0808080F0700FCFC000000FCFC0001EC
:1003E30003060C06030100FCFC008000FCFC000378
:1003F3000F0E030E0F03000C3CF0C0F03C0C000C7E
:100403000F0300030F0C00003C7CC0C07C3C0000C9
:1004130000080F0F0800001C0C84C4643C1C000E71
:100423000F0908080C0E000000FCFC040400000087
:10043300000F0F080800003870E0C08000000000C3
:1004430000000103070E0000000404FCFC00000090
:100453000008080F0F0000080C0603060C08000034
:100463000000000000000000000000000000002069
:10047300202020202020200000030704000000008B
:100483000000000000000000A0A0A0E0C0000007E2
:100493000F0808070F080004FCFC2060C080000858
:1004A3000F0708080F0700C0E02020206040000766
:1004B3000F0808080C040080C06024FCFC0000073F
:1004C3000F0808070F0800C0E0A0A0A0E0C00007C5
:1004D3000F0808080C040040F8FC440C180000083E
:1004E3000F0F0800000000C0E02020C0E02000271C
:1004F3006F48487F3F000004FCFC4020E0C0000838
:100503000F0F00000F0F00000020ECEC00000000B4
:1005130000080F0F0800000000000020ECEC0000B2
:10052300307040407F3F0004FCFC80C06020000826
:100533000F0F01030E0C00000004FCFC0000000080
:1005430000080F0F080000E0E060C060E0C0000F8B
:100553000F000F000F0F0020E0C02020E0C00000BC
:100563000F0F00000F0F00C0E0202020E0C00007A5
:100573000F0808080F070020E0C02020E0C000405B
:100583007F7F48080F0700C0E02020C0E02000075D
:100593000F08487F7F400020E0C0602060C0000853
:1005A3000F0F080000000040E0A02020604000047E
:1005B3000C09090B0E04002020F8FC202000000089
:1005C30000070F080C0400E0E00000E0E000000773
:1005D3000F0808070F080000E0E00000E0E000005B
:1005E30003070C0C070300E0E0000000E0E0000755
:1005F3000F0C070C0F07002060C080C060200008AC
:100603000C0703070C0800E0E0000000E0E00047EF
:100613004F4848683F1F00606020A0E06020000C46
:100623000E0B09080C0C00004040F8BC0404000049
:100633000000070F080800000000BCBC0000000019
:1006430000000F0F000000000404BCF8404000004D
:1006530008080F07000000080C040C080C04000035
:100663000000000000000080C0603060C080000710
:1006730007040404070700000000000000005F00F7
:10068300000007000700147F147F14242E7B2A1216
:100693002313086462364956205000040301000006
:1006A3001C2241000041221C0022147F142208084E
:1006B3007F08084030100000080808080800606040
:1006C300000020100804023E5149453E00427F408D
:1006D3000062514949462141494D331814127F1094
:1006E30027454545393C4A494931017109050336D6
:1006F30049494936464949291E00363600004036E5
:10070300360000081422410014141414140041226A
:10071300140802015905023E415D555E7C12111217
:100723007C7F494949363E414141227F4141413E17
:100733007F494949417F090909013E415151727F6E
:100743000808087F00417F41002040413F017F08A6
:100753001422417F404040407F020C027F7F040807
:10076300107F3E4141413E7F090909063E41512127
:100773005E7F09192946264949493201017F010152
:100783003F4040403F1F2040201F7F2018207F63B1
:1007930014081463030478040361514945437F7FBC
:1007A30041410002040810200041417F7F04027F81
:1007B3000204081C2A0808000001020424545438C7
:1007C300407F284444383844444408384444287F0C
:1007D3003854545408087E09090298A4A4A4787FC5
:1007E30008040478000079000000808879007F10F5
:1007F30028444000417F400078047804780478045A
:1008030004783844444438FC242424181824242429
:10081300FC04780404084854545424043F444424F6
:100823003C40403C401C2040201C3C403C403C445D
:10083300281028449CA0A0907C4464544C4408365F
:10084300410000000077000000004136080804085A
:100853001008552A552A550000FC04040404050613
:100863000404040406040040300F000000000000EC
:10087300000000000000000808088868180FE80856
:10088300080888080C0800004021110D41817F01F0
:1008930005093161000000807000FF209840F807CF
:1008A300407FA090C8000080601807083404050446
:1008B300FF0404040604004448D07FD04C48A662D9
:1008C3003AA2223226020040300F003F10080909E5
:1008D30009FF09090D0800242424A4FEA3220024EF
:1008E3004800FF0080000010080601FF000102021B
:1008F3000202FF01010100101010FF101088888808
:10090300FF88888C0800000444827F018081462888
:1009130010282641C0400004040484E43C27242416
:100923002424F42406040004020100FF0909090930
:1009330049897F0000000000FE0222DA0600FE92D1
:10094300929292FF02000000FF0810080700FF4286
:100953002408142261200000008040300C00C006EF
:1009630018204080808000010100302824232020AB
:10097300283060000100001010929292929292D25D
:100983009A1202FF02000000003F10101010103FE7
:100993000040807F00000000008040300C00C00653
:1009A300182040808080000101003028242320206B
:1009B300283060000100001010929292929292D21D
:1009C3009A1202FF02000000003F10101010103FA7
:1009D3000040807F000000000008090AFE080808A4
:1009E3000CFA0B0888000001018141310F0101015C
:1009F30001FF010101010000003C24242424FF2401
:100A03002424243E840000001F0909090909FF0961
:100A1300090909091F01000000FC0404040404047B
:100A2300040404FE04000000003F10101010101016
:100A33001010103F000000101091D63010FE02027B
:100A4300FA0202FF020000020100FF018247300C9C
:100A5300033E40474070000000FE020A1222428219
:100A63004222121B02000000007F404844424140E2
:100A73004142464C6040000000C04040407F48482F
:100A83004848E84C080000804037041464041424E8
:100A930064041720C0000000FE225A860484E49FE9
:100AA30084F484C486040000FF04080708080808C7
:100AB30008FF08080C0800FFFF00FFFF00AAAA5563
:100AC30055AA5555AAFF085AFF087AFF089AFF0846
:100AD300BAFF08DAFF08FAFF091AFF093AFF095AB1
:030AE300FF097A8E
:0419A4007F057E003D
:1019A800D3EF9411EE94004018EE13FEEF1324F7D2
:1019B800FFEE34FFFE4F6009EF1F70011E144E70DA
:0219C800F72204
:0419CA00AC06AD07B3
:1019CE00ED1DAE0470011C4E60177A007B04EB1BFC
:1019DE00AE0270011A4E60E87FFA7E001219A880DE
:0119EE00ED0B
:0119EF0022D5
:101A9800E4F5A8C2B37F32FE1219CAD2B37F327EF0
:041AA800000219CA55
:0B195200E0FFAD02121A387DFF7F019C
:10195D00C2B0EF24FF92B2D2B4C2B5AF058F907F63
:0F196D00027E001219A8D2B57F027E000219A8CF
:101A1000AC07EC540FFDE4FF12195DAF04EFC454A2
:091A20000F4410FDE4FF02195D02
:091ACF00EF24B0FDE4FF02195DF3
:101A42008F828E83AF05121ACFAF03121A10AF82A4
:071A5200AD077F0102195DE1
:0F1A2900EBF0A3EAF0A3E9F0A3EDF0FFA3E0FDDB
:0A1A3800AC05121ACFAF04021A1019
:04197C00AB05A90707
:10198000E4FAAF02E4FD121A38E4FCAD017F011263
:10199000195DAD037F0112195D0CECB440ED0AEA4C
:0319A000B408DFA9
:0119A3002221
:0D1AAC00E4FDFF12197C7F047E000219A8E2
:0A1AC5007FC87E001219CA021AAC95
:1018DC00E4900027F0900027E0FE25E024BAF58282
:1018EC00E4340AF583E493FFEE25E024BBF582E4AF
:1018FC00340AF583E493FD12197C7F207E031219C0
:10190C00CA121AC5900027E004F0E0C3940740C542
:01191C0022A8
:10174900E4FBE4FAEA6003B47F05AF03121954EB32
:101759007019EAD394004013EA947F500EAF03AD99
:1017690002121A387D017F0112195DEB64077019A5
:10177900EAD394004013EA947F500EAF03AD0212EE
:101789001A387D807F0112195D0AEAB480B60BEB25
:03179900B408AFE2
:01179C00222A
:10161900E490003AF0A37407F0E4F97B7F90003B73
:10162900E0FF90003AE0D39F5067E99B5063AA011D
:10163900EAD39B500990003A1219520A80F2AA0182
:10164900EAD39B500990003B1219520A80F290008C
:101659003AE0FA90003BE0FFEAD39F500AAF02ADAF
:10166900011219560A80EC90003AE0FA90003BE02A
:10167900FFEAD39F500AAF02AD031219560A80EC54
:1016890090003AE004F0A3E014F009091B1B0216CC
:01169900262A
:01169A00222D
:03158F0090001FAA
:10159200121A2990001FE0FBA3E0FAA3E0F912134C
:1015A200DC607324E0FFE434FFFEEFC4F8540FC89C
:1015B20068FFEEC454F048900025F0A3EFF0E4FA7F
:1015C200EA54077006900023E0A3F0900025E4752A
:1015D200F00112141DFE747A25F0F58274003EF5B6
:1015E20083E493FF7E00EA131313541FFD9000223D
:1015F200E02DFD900024E0FB04F0121A420AEAB446
:1016020010BE900023E02408F0900020E475F00161
:06161200121407021595F9
:0116180022AF
:0F14F300900027EBF0A3EAF0A3E9F0A3EDF0FFE0
:10150200021585900027E0FBA3E0FAA3E0F912138D
:10151200DC607924E0FFE434FFFE7C007D051213D9
:10152200F590002CEEF0A3EFF0E4FA90002CE475B5
:10153200F00112141DFE747A25F0F58274063EF550
:1015420083E493FF7E0090002AE0FDA3E0FB04F019
:10155200121A420AEAB405D3900028E475F0011287
:10156200140790002BE0FFC374809FC3940650932E
:1015720090002AE004F0E4A3F090002AE0FFC39474
:0C158200085080A3E0FD121A3802150585
:01158E00223A
:0E188E0090002EEBF0A3EAF0A3E9F0A3EDF03A
:10189C00E4900033F0900033E0FFC394025030909A
:1018AC000031E02F121A34E4FC90002EE0FBA3E48C
:1018BC0075F00112141DA9F0FA1213DCFD7F011250
:0F18CC00195D0CECB410E2900033E004F080C61C
:0118DB0022EA
:0E183F00900034EBF0A3EAF0A3E9F0A3EDF083
:10184D00E4900039F0900039E0FFC39402503190DC
:10185D000037E02F121A34E4FC900034E0FBA3E4CF
:10186D0075F00112141DA9F0FA1213DCF4FD7F01BD
:10187D0012195D0CECB410E1900039E004F080C554
:01188D002238
:0316F3009000273D
:1016F600121A29E4A3F0E490002DF0900027E0FBF5
:10170600A3E475F00112141DA9F0FA1213DCFF7E92
:101716000090002CE0FD90002AE02DFD90002DE0C9
:10172600FC90002BE02CFB121A4290002DE004F0F6
:10173600E0C3948040C590002CE004F0E0C3940818
:0217460040B4AD
:01174800227E
:03169B0090002795
:10169E00121A29E4A3F0E490002DF0900027E0FB4D
:1016AE00A3E475F00112141DA9F0FA1213DCF4FF75
:1016BE00E4F4FE90002CE0FD90002AE02DFD900059
:1016CE002DE0FC90002BE02CFB121A4290002DE036
:1016DE0004F0E0C3948040C390002CE004F0E0C31B
:0416EE00940840B26A
:0116F20022D5
:1017EE00C2B07590FF121A987DE2E4FF12195D7D6A
:1017FE00A2E4FF12195D7DA0E4FF12195D7DC8E41D
:10180E00FF12195D7D2FE4FF12195D7D25E4FF1295
:10181E00195D7D81E4FF12195D7D17E4FF12195DDC
:10182E007D40E4FF12195D7DAFE4FF12195D021ACF
:01183E00ACFD
:101A590020A50E1219A420A50830A5FD7E007F013E
:051A690022E4FEFF2253
:101A6E0020A60E1219A420A60830A6FD7E007F0126
:051A7E0022E4FEFF223E
:101A830020A70E1219A420A70830A7FD7E007F010E
:051A930022E4FEFF2229
:1014330078017C007D017BFF7A0A79C87E007F0FEB
:101443001213B678107C007D017BFF7A0A79D77E70
:10145300007F0F1213B6E4900000F0900000E0FF4D
:10146300C39405502DEF75F003A42401F582E434F1
:1014730000F583E0FBA3E0FAA3E0F9EFC454F02402
:1014830014900038F0E4FD12183F900000E004F0DF
:1014930080C9E4900000F0900000E0FFC394055081
:1014A3002DEF75F003A42410F582E43400F583E0F6
:1014B300FBA3E0FAA3E0F9EFC454F024149000383E
:1014C300F07D0212183F900000E004F080C97BFF1A
:1014D3007A0079039000237414F07D0412158F7B36
:1014E300FF7A00790F9000237419F07D0602158F9F
:1019F0007BFF7A00791AE4900023F07D0212158FA4
:101A00007BFF7A007924E4900023F07D0602158F95
:10191D001217497BFF7A00793590002B740AF07D00
:10192D00021214F37BFF7A00794C90002B740AF0AD
:10193D007D041214F37BFF7A00796490002B7406FA
:05194D00F0FD0214F39F
:1012E600E709F608DFFA8046E709F208DFFA803EEA
:1012F60088828C83E709F0A3DFFA8032E309F608D7
:10130600DFFA8078E309F208DFFA807088828C833E
:10131600E309F0A3DFFA806489828A83E0A3F608F2
:10132600DFFA805889828A83E0A3F208DFFA804CCC
:1013360080D280FA80C680D4806980F280338010A3
:1013460080A680EA809A80A880DA80E280CA80330C
:1013560089828A83ECFAE493A3C8C582C8CCC58384
:10136600CCF0A3C8C582C8CCC583CCDFE9DEE78054
:101376000D89828A83E493A3F608DFF9ECFAA9F0D3
:10138600EDFB2289828A83ECFAE0A3C8C582C8CC29
:10139600C583CCF0A3C8C582C8CCC583CCDFEADE42
:1013A600E880DB89828A83E493A3F208DFF980CCA4
:1013B60088F0EF60010E4E60C388F0ED2402B4049D
:1013C6000050B9F582EB2402B4040050AF23234544
:0613D60082239013367320
:1013DC00BB010689828A83E0225002E722BBFE020F
:0913EC00E32289828A83E4932242
:1013F500EF8DF0A4A8F0CF8CF0A428CE8DF0A42E0C
:02140500FE22C5
:10140700C5F0F8A3E028F0C5F0F8E5821582700270
:061417001583E038F0220D
:10141D00A3F8E0C5F025F0F0E58215827002158382
:06142D00E0C838F0E822DF
:00000001FF
