:03000000021D7A64
:0C1D7A00787FE4F6D8FD758107021DC1DA
:1013F0001221E57F057E0012215F121CE6E4FDFF4D
:10140000121C511215107FD07E0712215F12127725
:101410007FD07E0712215F7BFF7A0879C312192ED5
:101420007FD07E0712215F7D0F7FF0121A037FD0DD
:101430007E0712215F7DCC7F33121ADC7FD07E07BE
:1014400012215F7DAA7F55121C517FD07E07122189
:101450005F7D557F55121C517FD07E0712215FE4BE
:10146000FD7FFF121C517FD07E0712215F7DFFE4BC
:10147000FF121C517FD07E0712215F12217FEF4E99
:1014800060F9900000E004F0E075F00B84AFF0EF3D
:10149000F0B40B0050E590149DF82828730214BE98
:1014A0000214C90214CE0214D70214E00214E4029A
:1014B00014EA0214F00214F60214FC0215067BFF73
:1014C0007A0879C312192E80B212151080AD7DCC26
:1014D0007F33121ADC80A47D0F7FF0121A03809BE9
:1014E0007DAA801A7D557FAA8016E4FD7FFF8010BB
:1014F0007DFFE4FF800A7DFF7FFF80047D557F55DF
:10150000121C5102147B7DAA7FAA121C5102147B6B
:100003000000FC04040404050604040404060400BC
:1000130040300F000000000000000000000000005E
:100023000808088868180FE808080888080C0800FA
:10003300004021110D41817F01050931610000005C
:10004300807000FF209840F807407FA090C8000010
:10005300806018070834040504FF04040406040040
:100063004448D07FD04C48A6623AA22232260200EE
:1000730040300F003F1008090909FF09090D080066
:10008300242424A4FEA32200244800FF00800000AF
:1000930010080601FF000102020202FF0101010034
:1000A300101010FF1010888888FF88888C080000C3
:1000B3000444827F018081462810282641C04000E5
:1000C30004040484E43C2724242424F424060400A4
:1000D30004020100FF0909090949897F00000000A2
:1000E30000FE0222DA0600FE92929292FF020000C4
:1000F30000FF0810080700FF4224081422612000B3
:1001030000008040300C00C0061820408080800032
:100113000101003028242320202830600001000042
:100123001010929292929292D29A1202FF020000BF
:1001330000003F10101010103F0040807F000000AF
:1001430000000808FC000000000010101F10100041
:1001530000380404048478000018141211101800E5
:100163000018048484443800000C101010110E0091
:100173000000C02018FC000000030212121F12121C
:1001830000FC444444840400000C101010080700D1
:1001930000F08844444880000007081010100F0046
:1001A300000C0404C4340C000000001F0000000015
:1001B3000038448484443800000E111010110E00DE
:1001C30000F804040488F000000009111108070076
:1001D3002020C0F8C0202000010100070001010019
:1001E30000808080F0808080000000000700000015
:1001F3000000E01C70800000101E110101131C1090
:100203000080404040800000000C1212091F1000C3
:1002130004FC444444B80000101F101010080700E9
:10022300E018040404041C00030C1010100804005C
:1002330004FC04040408F000101F10101008070049
:1002430004FC4444F4040800101F101011100C00A7
:1002530004FC4444F4040800101F100001000000D3
:10026300E0180404041C0000030C1010110F01001B
:1002730004FC84808084FC04101F100000101F10F5
:1002830008F8804040408000101F100000101F102D
:10029300000404FC040400000010101F10100000F0
:1002A30000000404FC040400604040403F000000E0
:1002B30004FC44E0140C0400101F1000131C100075
:1002C30004FC040000000000101F101010101800A0
:1002D30004FCFC00FCFC0400101F001F001F1000A6
:1002E30004FC18608004FC04101F1000030C1F00A2
:1002F300F00804040408F0000708101010080700B1
:1003030004FC848484847800101F10000000000023
:1003130040C0804040800000407F48101008070024
:10032300F00804040408F000070814141828270030
:1003330004FC4444C4443800101F10000106181084
:100343000038448484041C00001C101010110E009B
:100353000C0404FC04040C000000101F1000000037
:10036300004040F0404000000000000F1010080063
:1003730004FC04000004FC04000F101010100F0014
:10038300043CC40000E41C040000031C070000003C
:1003930004FC00FC00FC040000011F001F0100001E
:1003A300040C34C0C0340C041018160101161810C4
:1003B300041C6480641C04000000101F1000000073
:1003C30008040484641C0400101C131010100C0097
:1003D300000000000000000000000000000000001A
:1003E300000000000000000000483800000000008A
:1003F30000000000000000000018180000000000CA
:10040300000708101008070000F008040408F000B3
:100413000008081F00000000000404FC040400009E
:10042300000E101010110E00000C142444840C0054
:10043300000C101111120C00001804040488700041
:1004430000000304081F000000E0202424FC240013
:10045300001F10111110100000988404048870000C
:10046300000708111118000000F0880404887000C8
:10047300001C1010131C1000000000FC0000000002
:10048300000E111010110E0000384484844438000B
:10049300000708101008070000008C444488F0008F
:1004A300FF0101010101010101010101010101013B
:1004B3000101010101010101010101010101010129
:1004C3000101010101010101010101010101010119
:1004D3000101010101010101010101010101010109
:1004E30001010101010101010101010101010101F9
:1004F30001010101010101010101010101010101E9
:1005030001010101010101010101010101010101D8
:1005130001010101010101010101010101010101C8
:10052300010101FFFF0000000000000000000000C7
:1005330000000000000000000000000000000000B8
:1005430000000000000000000000000000000000A8
:100553000000000000000000000000000000000098
:100563000000000000000000000000000000000088
:100573000000000000000000000000000000000078
:100583000000000000000000000000000000000068
:100593000000000000000000000000000000000058
:1005A30000000000000000FFFF000000000000004A
:1005B3000000000000000000000000000000000038
:1005C3000000000000000000000000000000000028
:1005D3000000000000000000000000000000000018
:1005E3000000000000000000000000000000000008
:1005F30000000000000000000000000000000000F8
:1006030000000000000000000000000000000000E7
:1006130000000000000000000000000000000000D7
:100623000000000000000000000000FFFF000000C9
:1006330000000000000000000000000000000000B7
:1006430000000000000000000000000000000000A7
:100653000000000000000000000000000000000097
:100663000000000000000000000000000000000087
:100673000000000000000000000000000000000077
:100683000000000000000000000000000000000067
:100693000000000000000000000000000000000057
:1006A300000000000000000000000000000000FF48
:1006B300FF00000000000000000000000000000038
:1006C3000000000000000000000000000000000027
:1006D3000000000000000000000000000000000017
:1006E3000000000000000000000000000000000007
:1006F30000000000000000000000000000000000F7
:1007030000000000000000000000000000000000E6
:1007130000000000000000000000000000000000D6
:1007230000000000000000000000000000000000C6
:10073300000000FFFF0000000000000000000000B8
:1007430000000000000000000000000000000000A6
:100753000000000000000000000000000000000096
:100763000000000000000000000000000000000086
:100773000000000000000000000000000000000076
:100783000000000000000000000000000000000066
:100793000000000000000000000000000000000056
:1007A3000000000000000000000000000000000046
:1007B30000000000000000FFFF0000000000000038
:1007C3000000000000000000000000000000000026
:1007D3000000000000000000000000000000000016
:1007E3000000000000000000000000000000000006
:1007F30000000000000000000000000000000000F6
:1008030000000000000000000000000000000000E5
:1008130000000000000000000000000000000000D5
:1008230000000000000000000000000000000000C5
:100833000000000000000000000000FFFF80808037
:1008430080808080808080808080808080808080A5
:100853008080808080808080808080808080808095
:100863008080808080808080808080808080808085
:100873008080808080808080808080808080808075
:100883008080808080808080808080808080808065
:100893008080808080808080808080808080808055
:1008A3008080808080808080808080808080808045
:1008B300808080808080808080808080808080FFB6
:1008C300FFFF0303030303030303030303030303FD
:1008D30003030303030303030303030303030303E5
:1008E3000303030383838383C3C3C3C3E3C303E355
:1008F300E3E3E3F3737373737373030373737373D5
:1009030073737333F3F3F3F37373F3F3F3F30303D4
:10091300E3E3E3E3E3E3C3C3C3C3C3838383030324
:100923000303030303030303030303030303030394
:100933000303030303030303030303030303030384
:100943000303FFFFFFFF00000000000000000000A2
:1009530000000000000000000080C0C000F0F0F8BC
:10096300F8FC0000FEFFFFFF070703FFFFFFFF0187
:10097300010000FFFFFFFFFFE0E0F07060400000B8
:10098300FFFFFFFFFF000000FFFFFFFF0000FFFF6F
:10099300FFFF0000FFFFFFFF00010101E1E1E3E3CF
:1009A300030707070F0F0E1E1C3C387870F0E0E0BA
:1009B300C0800000000000000000000000000000F4
:1009C300000000000000FFFFFFFF00000000000028
:1009D3000000000000000080E0F8FCFE1F0F07038A
:1009E30000FFFFFFFFFF00003F3F3F3F0000001FEE
:1009F3001F1F1F808080809F3F7F7F7F707070707C
:100A030070700000717171F1F1F0F0F07F7FFFFF02
:100A1300F0F070707070000001717171707070701F
:100A2300FFFFFFFF70707070707070707070777779
:100A330077777777777777F6F6F0E00000000000B6
:100A430000000000000000000000FFFFFFFF0000A7
:100A530000000000000000000000000F7F7F3F99AE
:100A6300C080000000FFFFFFFFFF0E0EFEFEFEFE34
:100A7300000E0E0E0E0E0EEEFFFFFFFF0E0E0E0EFD
:100A83000E0E0E0E0E0E0000000000FFFFFFFFFF14
:100A93000000FFFFFFFF0000000000000000000057
:100AA300000000003F3F3F3F38383838BFFFFFFFAB
:100AB300FF3838383838383838B8F8FDFFFF3F0783
:100AC3000000000000000000000000000000FFFF25
:100AD300FFFF000000000000000000000000000015
:100AE30000000103070F1F3E3C7F7FFFFFFF000055
:100AF300FFFFFFFF00000000000000FFFFFFFFFFFC
:100B0300000000000000000000000000000000FFE3
:100B1300FFFFFFFF0000FFFFFFFF000000000000DA
:100B2300000E0E0E0E0E0E0E0E0E0E0E0E0E0E0EF0
:100B3300EEFFFFFFFFEEEEFE7E7E3E3E1F0F07033E
:100B430001000000000000000000000000000000A1
:100B53000000FFFFFFFF0000000000000000000096
:100B63000000000000000000000000000000000082
:100B730000010000030307070F0F0E0E1E1C1C1DB0
:100B83001F3F3F3F383838787070707070700000C6
:100B930070787C7F7F7F777370707F7F7F7F7070CB
:100BA3007070707838383838383C1C1C1C1C1E0E8A
:100BB3000E0F0F00070703030101000000000000F0
:100BC3000000000000000000000000000000000022
:100BD300000000000000FFFFFFFF00000000000016
:100BE300000000E0F0F0F038383838B8B8B8B8B8DA
:100BF300B0000000B8B8B838383838383838F0F0B2
:100C0300F0E0000080808080808080800018387849
:100C1300F0E0C0C0E0F0F87838180000B8B8B8B811
:100C2300B8B8B8B8B8B8B8B8B00000F8F8F8F880F1
:100C3300808080808080F8F8F8000000F0F8F800E9
:100C4300000000000000F8F8F8F80000B8B8B8B0E9
:100C530000000000000000000000FFFFFFFFC0C015
:100C6300C0C0C0C0C0C0C0C7CFCFCFCCCCCCDCDDF0
:100C7300DDDDDFDFDFC1C0C0DFDFDFDCDCDCDCDCF0
:100C8300DCDCCFCFCFC7C0C0C1C1C1C1C1C1C1C1ED
:100C9300C0C0C0C0C0DFDFDFDFC1C0C0C0C0C0C0D4
:100CA300DFDFDFDFDDDDDDDDDDDDDDDDDDC0C0DFA1
:100CB300DFDFDFC1C1C1C1C1C1C1DFDFDFC0C0C070
:100CC300C7CFCFCCDCDCDCDCDCDCDFDFDFDFC0C0CC
:100CD300DFDFDFDFC0C0C0C0C0C0C0C0C0C0FFFF17
:100CE30000E010080810E0000007081010080700D3
:100CF300001010F8000000000010101F101000007A
:100D03000030080808887000001814121110180029
:100D13000030088888483000000C101010110E00B5
:100D230000804020F8000000000302121F1212008E
:100D330000F8884848488800000C101010100F0075
:100D430000E0108888980000000F111010100F00A9
:100D530000380808C83808000000001F0000000021
:100D63000070888888887000000E111010110E0022
:100D730000F008080890E0000000191111080700AE
:100D8300101E110000131C100000E01C70800000F6
:100D93000708101010080700F00804040408F00006
:100DA300101F101010100F0004FC848080800000BE
:100DB3000202020202020200202020202020200042
:100DC3000000000000000000000C0C000000000008
:100DD300101E110000131C100000E01C70800000A6
:101827007F49494949490000FF0003FF0023FF00A2
:1018370043FF0063FF0083FF00A3FF00C3FF00E334
:10184700FF0103FF0123FF02C3FF0223FF02D3FFB0
:101857000143FF0163FF0153FF01D3FF0193FF0121
:1018670073FF0393FF0283FF0203FF0363FF034337
:10187700FF0203FF0313FF0313FF01E3FF01B3FF9E
:101887000193FF03D3FF0143FF0163FF0193FF01AF
:1018970053FF0153FF0173FF01C3FF0193FF01933F
:1018A700FF01C3FF0173FF0263FF0373FF01F3FF30
:1018B70002E3FF0263FF0233FF02F3FF02E3FF02CB
:1018C70063FF03B3FF0243FF0273FF0373FF029338
:1018D700FF0353FF0243FF0223FF0273FF02E3FFED
:1018E70002F3FF02C3FF02F3FF0263FF03B3FF022A
:1018F70023FF02F3FF03F3FF03E3FF02C3FF0353D7
:10190700FF0233FF0223FF02F3FF03F3FF03E3FFAB
:0819170002C3FF0353FF02337A
:0421EE004100C932B1
:10217F0020A5127F057E0012215F20A50830A5FD46
:09218F007E007F0122E4FEFF2224
:1021980020A6127F057E0012215F20A60830A6FD2A
:0921A8007E007F0122E4FEFF220B
:1021B10020A7127F057E0012215F20A70830A7FD0E
:0921C1007E007F0122E4FEFF22F2
:0C21D900C2907F0A7E0012215FD290228B
:0F21CA00800330A5097F647E0012215F80F4221C
:04215B007F027E0081
:10215F00E4FDFCC3ED9FEC9E5015E4FBFA0BBB00B6
:0F216F00010AEB64644A70F50DBD00010C80E4B9
:01217E00223E
:0921E500E4F5A87F32FE02215F3F
:101CE6007F0A7E0012215FC2907F1412215FD2907C
:101CF6007F0A12215F7FE212207C7F0A7E0012217A
:101D06005F7FA212207C12215B7FA012207C122111
:101D16005B7FC812207C12215B7F2712207C122158
:101D26005B7F8112207C9000C9E0FF12207C12218B
:101D36005B7F2C12207C12215B7F2E12207C1221CD
:101D46005B7F2F12207C12215B7FF112207C1221F7
:101D56005B0F12207C12215B7F4012207C12215BDC
:101D66007FA412207C12215B7FAF12207C7F027E33
:041D76000002215FE7
:0F191F007D017BFF7E001211D97BFF7A0479A333
:0B192E00900076EBF0A3EAF0A3E9F0D4
:10193900E490007BF0A3F090007A74B0F090007A04
:10194900E0FFC394B4505112207C7F1012207CE434
:10195900FF12207CE4900079F0900076E0FBA3E090
:10196900FAA3E0F990007BE0FEA3E0F5828E8312F2
:1019790011FFFF12212190007CE004F07006900015
:101989007BE004F0900079E004F0E0C3948440C95E
:1019990090007AE004F080A590007A74B4F0900089
:1019A9007AE0FFC394B8505112207C7F1012207C3A
:1019B900E4FF12207CE4900079F0900076E0FBA32C
:1019C900E0FAA3E0F990007BE0FEA3E0F5828E83C4
:1019D9001211FFFF12212190007CE004F0700690A3
:1019E900007BE004F0900079E004F0E0C3948440C7
:0919F900C990007AE004F080A519
:011A020022C1
:0B1BB5009000D6EBF0A3EAF0A3E9F0EB
:101BC000E49000DBF0A3F09000DA74B4F09000DA57
:101BD000E0FFC394B8503212207C7F1012207CE4C6
:101BE0009000D9F01220B69000DCE004F07006906E
:101BF00000DBE004F09000D9E004F0E0C394804002
:101C0000E39000DAE004F080C49000DA74B0F09061
:101C100000DAE0FFC394B4503712207C7F1012200A
:101C20007CE4FF12207CE49000D9F01220B69000F2
:101C3000DCE004F070069000DBE004F09000D9E0F6
:101C400004F0E0C3948040E39000DAE004F080BF49
:011C50002271
:081C5100900001EFF0A3EDF09B
:101C590090000474B0F0900004E0FFC394B45036CF
:101C690012207C7F1012207CE4FF12207CE490007B
:101C790003F0900001E0FF122121900002E0FF1221
:101C89002121900003E004F0E0C3948040E4900037
:101C990004E004F080C090000474B4F0900004E003
:101CA900FFC394B8503612207C7F1012207CE4FFC9
:101CB90012207CE4900003F0900001E0FF12212142
:101CC900900002E0FF122121900003E004F0E0C33C
:0C1CD900948040E4900004E004F080C01F
:011CE50022DC
:081A0300900001EFF0A3EDF0EB
:101A0B0090000574B0F0900005E0FFC394B45058FB
:101A1B0012207C7F1012207CE4FF12207CE49000CB
:101A2B0003F0E4900004F0900001E0FF12212190FC
:101A3B000004E004F0E0C3940440ECE4900004F0F4
:101A4B00900002E0FF122121900004E004F0E0C3BB
:101A5B00940440EC900003E004F0E0C3941140C206
:101A6B00900005E004F0809E90000574B4F09000A7
:101A7B0005E0FFC394B8505812207C7F1012207CD5
:101A8B00E4FF12207CE4900003F0E4900004F0905B
:101A9B000001E0FF122121900004E004F0E0C39468
:101AAB000440ECE4900004F0900002E0FF122121CE
:101ABB00900004E004F0E0C3940440EC900003E0D9
:101ACB0004F0E0C3941140C2900005E004F0809E46
:011ADB0022E8
:081ADC00900001EFF0A3EDF012
:101AE40090000574B0F0900005E0FFC394B4505822
:101AF40012207C7F1012207CE4FF12207CE49000F2
:101B040003F0E4900004F0900001E0FF1221219022
:101B14000004E004F0E0C3940240ECE4900004F01C
:101B2400900002E0FF122121900004E004F0E0C3E1
:101B3400940240EC900003E004F0E0C3942140C21E
:101B4400900005E004F0809E90000574B4F09000CD
:101B540005E0FFC394B8505812207C7F1012207CFB
:101B6400E4FF12207CE4900003F0E4900004F09081
:101B74000001E0FF122121900004E004F0E0C3948E
:101B84000240ECE4900004F0900002E0FF122121F6
:101B9400900004E004F0E0C3940240EC900003E001
:101BA40004F0E0C3942140C2900005E004F0809E5C
:011BB400220E
:0B1F0C009000CEEFF0A3EDF0A3EBF08F
:101F1700E49000D3F0A3F0A3F09000D4F09000D4A5
:101F2700E0FFC39404504B9000CEE024B0FEEF2EA8
:101F3700FF12207C9000D0E02410FF12207C90003C
:101F4700CFE0FF12207CE49000D5F09000D5E0FDB3
:101F5700C3942050159000D4E075F0209000D11262
:101F6700210A9000D5E004F080E19000D4E004F06D
:021F770080AB3D
:011F79002245
:0B1F7A0090003EEFF0A3EDF0A3EBF0B1
:101F8500E4900043F0A3F0A3F0900044F0900044E7
:101F9500E0FFC39402504B90003EE024B0FEEF2ECC
:101FA500FF12207C900040E02410FF12207C90005E
:101FB5003FE0FF12207CE4900045F0900045E0FDF5
:101FC500C394105015900044E075F0109000411234
:101FD500210A900045E004F080E1900044E004F01F
:021FE50080ABCF
:011FE70022D7
:071E9000540FFDAB077F05B5
:0B1E9700900076EFF0A3EDF0A3EBF05D
:101EA200E490007BF0A3F090007BF090007BE0FFD9
:101EB200C394025054900076E024B0FEEF2EFF123D
:101EC200207C900078E02410FF12207C900077E0C4
:101ED200FF12207CE490007CF090007CE0FDC39433
:101EE20008501E90007BE075F008A47C002DFFECEA
:101EF20035F0FE90007912211390007CE004F0800E
:091F0200D890007BE004F080A2FD
:011F0B0022B3
:102056002420FFEF54F0FFE4C4F854F0C8EFC45452
:102066000F484410FF12207C9000DFA3E075F008B3
:06207600A42420540FFF1A
:10207C00C291C292C2B6E4FEEF30E704D2B780023E
:10208C00C2B70000000000000000D2B60000000043
:10209C0000000000C2B60000000000000000EF25A8
:0920AC00E0FF0EEEB408D1D29160
:0120B5002208
:10210A00A47C002DFFEC35F0FEE0FCA3E02FF58265
:07211A00EC3EF583E493FFA6
:10212100C291D292C2B6E4FEEF30E704D2B7800288
:10213100C2B70000000000000000D2B6000000009D
:1021410000000000C2B60000000000000000EF2502
:09215100E0FF0EEEB408D1D291BA
:01215A002262
:1020B6009000D6E0FBA3E0FAA3E0F99000DBE0FE97
:0A20C600A3E0F5828E831211FFFFE4
:1020D000D291D292C2B6E4FEEF30E704D2B78002CA
:1020E000C2B70000000000000000D2B600000000EF
:1020F00000000000C2B60000000000000000EF2554
:09210000E0FF0EEEB408D1D2910B
:0121090022B3
:101E06009000DFECF0A3EDF0A3EBF0A3EAF0A3E97A
:091E1600F09000DDEEF0A3EFF006
:101E1F0044B0FF12207CA3E0FEA3E07803C333CECF
:101E2F0033CED8F9122056E4FD9000E1E0FBA3E099
:101E3F00FAA3E0F98D827583001211FFFF122121A1
:101E4F000DEDB408E49000DDA3E01444B0FF1220C0
:101E5F007CA3E0FEA3E07803C333CE33CED8F912D0
:101E6F0020567D089000E1E0FBA3E0FAA3E0F98D96
:101E7F00827583001211FFFF1221210DEDB410E4C2
:011E8F002230
:10162B009000C512124640D000007F8112207C90A2
:10163B0000C9E0FF12207CE0FCE412108BA804A987
:10164B0005AA06AB07E4FFFE7D7C7C42120DE6E4A7
:10165B00FBFA79227843120FE4A804A905AA06AB7A
:10166B0007E4FFFE7D807C3F120DE69000C5E0F89D
:10167B00A3E0F9A3E0FAA3E0FB120EDB7B667A662C
:10168B0079067840120EDB7BCD7ACC794C783D1203
:10169B000DEA9000CA12123A9000C9E075F064840A
:1016AB007E00C4F8540FC868FFEEC454F048FE74B3
:1016BB00032FF974043EFA7BFFE4FDFC7F03FE125B
:1016CB001E069000C9E075F06484E5F075F00A849D
:1016DB007E00C4F8540FC868FFEEC454F048FE7483
:1016EB00032FF974043EFA7BFF7D017F037E00120A
:1016FB001E069000C9E075F00A84AFF07E00EFC4BF
:10170B00F8540FC868FFEEC454F048FE74032FF969
:0F171B0074043EFA7BFF7D027F037E00021E06F0
:101FE8002085047F0180027F003084047E01800206
:101FF8007E00EE5F603C30871A7F647E0012215FAE
:102008007F8112207C9000C9E0FF12207CE004F060
:1020180012162B3086CA7F647E0012215F7F8112E0
:10202800207C9000C9E0FF12207CE014F012162BEF
:1020380080AE30850E80032084137F507E001221ED
:0E2048005F80F43084077F507E0012215F22FB
:1015100078037C007D017BFF7A18792F7E007F0F96
:101520001211D978127C007D017BFF7A18793E7EFA
:10153000007F0F1211D978217C007A18794D7F1B1A
:1015400012191FE4900001F0900001E0FFC3940520
:101550005031E0FE75F003A42403F582E43400F575
:1015600083A3E0FAA3E0FD900041EAF0A3EDF0EEE2
:101570002408FDEF04FB7F01121F7A900001E004B4
:10158000F080C5E4900001F0900001E0FFC39405F5
:101590005031E0FE75F003A42412F582E43400F526
:1015A00083A3E0FAA3E0FD900041EAF0A3EDF0EEA2
:1015B0002408FDEF04FB7F03121F7A900001E00472
:0815C000F080C5E4900002F088
:1015C80090003C741CF0A37408F0E0FF900002E067
:1015D800FD8FF0A4FF90003CE07A002FFFEA35F081
:1015E800FEEF7804CEA2E713CE13D8F8FFED75F01E
:1015F80003A42421F582E43400F583A3E0FAA3E0F0
:10160800FD900079EAF0A3EDF0900002E075F00893
:06161800A4241C121E9028
:0C161E00900002E004F0E0C39409409E3C
:01162A00229D
:10172A00787E7C007D017BFF7A1879687E007F18BD
:10173A001211D978967C007A1879807F2D12191F98
:05174A00E490007DF0B9
:10174F009000C3741EF0A37408F0E0FF90007DE0DA
:10175F00FD8FF0A4FF9000C3E07A002FFFEA35F071
:10176F00FEEF7804CEA2E713CE13D8F8FFED75F095
:10177F0003A4247EF582E43400F583A3E0FAA3E00A
:10178F00FD900079EAF0A3EDF090007DE075F00890
:0D179F00A4241E540FFDAB077F01121E97FE
:1017AC0090007DE004F0E0C394084097E490007D45
:0117BC00F03C
:1017BD009000C37406F0A37408F0E0FF90007DE084
:1017CD00FD8FF0A4FF9000C3E07A002FFFEA35F003
:1017DD00FEEF7804CEA2E713CE13D8F8FFED75F027
:1017ED0003A42496F582E43400F583A3E0FAA3E084
:1017FD00FD900079EAF0A3EDF090007DE075F00822
:0D180D00A42406540FFDAB077F04121E97A4
:0C181A0090007DE004F0E0C3940F4097C4
:01182600229F
:1012770078027C007D017BFF7A1879AD7E007F2A9A
:101287001211D9782C7C007D017BFF7A1879D77EE3
:10129700007F331211D9785F7C007D017BFF7A19BB
:0E12A700790A7E007F15121925E4900001F0EF
:1012B5009000747408F0A3F0E0FF900001E0FD8F4A
:1012C500F0A4FF900074E07A002FFFEA35F0FEEFFE
:1012D5007804CEA2E713CE13D8F8FFED75F003A47A
:1012E5002402F582E43400F583A3E0FAA3E0FD903F
:1012F5000079EAF0A3EDF0900001E075F008A42470
:0B13050008540FFDAB077F01121E977C
:10131000900001E004F0E0C3940E4099E4900001D5
:01132000F0DC
:101321009000747408F0A3F0E0FF900001E0FD8FDD
:10133100F0A4FF900074E07A002FFFEA35F0FEEF91
:101341007804CEA2E713CE13D8F8FFED75F003A40D
:10135100242CF582E43400F583A3E0FAA3E0FD90A8
:101361000079EAF0A3EDF0900001E075F008A42403
:0B13710008540FFDAB077F03121E970E
:10137C00900001E004F0E0C3940E4099E490000169
:01138C00F070
:10138D009000747414F0A37408F0E0FF900001E075
:10139D00FD8FF0A4FF900074E07A002FFFEA35F086
:1013AD00FEEF7804CEA2E713CE13D8F8FFED75F05B
:1013BD0003A4245FF582E43400F583A3E0FAA3E0EF
:1013CD00FD900079EAF0A3EDF0900001E075F008D2
:0613DD00A42414121E906E
:0C13E300900001E004F0E0C39407409E7D
:0113EF0022DB
:100DE3000210F4E86480F8E933E83360110460F03A
:100DF300ED33EC337009E8FCE9FDEAFEEBFF220476
:100E030060DED3EB9FEA9EE99DE8C2E78CF0C2F770
:100E130095F0400CE8CCF8E9CDF9EACEFAEBCFFB3C
:100E23001210BF85D0F05804700320D5B3E80470C6
:100E3300075002B2D50210FE92D5EC0460F7E4CC61
:100E4300C0E0C398F8603B94186008400DD0E0FB05
:100E53000210D6E4FBFAC9FC8028E830E406E4C9B2
:100E6300FBE4CAFCE830E305E4C9CACBFCE8540759
:100E73006010F8C3E913F9EA13FAEB13FBEC13FC64
:100E8300D8F130F52FC3E49CFCEF9BFFEE9AFEED07
:100E930099FDD0E0FBEF4E4D4C701222DB030210A4
:100EA300FBEC2CFCEF33FFEE33FEED33FDED30E7CF
:100EB300EB0210D6EF2BFFEE3AFEED39FDD0E0FB4F
:100EC30050130BBB00030210FEED13FDEE13FEEFF8
:080ED30013FFEC13FC0210D622
:100EDB00EC4D6011E8497017ED33EC3304600DE411
:100EEB00FCFFFEFD22E933E8330470F80210F41224
:100EFB0010BF58046009E4CC248150062850090225
:100F0B0010FE2840030210FBC0E0EB4A7044B9808E
:100F1B0006D0E0FB0210EAEF4E701CBD8008EBFF21
:100F2B00EAFEE9FD80EBE98DF0A4FEE5F0020FC4CB
:100F3B00E9CDF9EAFEEBFFEF89F0A4FCE5F0CE89F1
:100F4B00F0A42EFFE435F0CD89F0A42DFEE435F0AE
:100F5B008067EF4E7005BD80D780C3EF8BF0A4ACDC
:100F6B00F0EE8BF0A42CFCE435F0F8EF8AF0A42C17
:100F7B00E5F038FCE433CB8DF0A42CFCE5F03BF82A
:100F8B00EE8AF0A42CFCE5F038F8E433CF89F0A41A
:100F9B002CFCE5F038CF3400CE89F0A42FFFE5F020
:100FAB003EFEE433C98DF0A42EFEE5F039CD8AF078
:100FBB00A42FFFE5F03EFEE43DFD33D0E0FB5007F0
:100FCB000BBB000F0210FEEC2CFCEF33FFEE33FEDD
:060FDB00ED33FD0210D60B
:100FE1000210FEEC5D046005E8590470030210F480
:100FF1001210BF580460F6EC4860F2EC7004FDFE7C
:10100100FF22C860DB2481C85009C39860025006E2
:101011000210FB9850CAF582E9294B4A7005AB8250
:101021000210EA75F0007C1A7880C3EF9BEE9AED0E
:1010310099400DC3EF9BFFEE9AFEED99FDE842F05A
:10104100DC23ACF0D0E0FFD0E0FED0E0FDAB8220AD
:10105100E7101BEB60BAEC2CFCEF33FFEE33FEED37
:1010610033FD0210D6E803F830E705C0F075F00053
:10107100EF2FFFEE33FEED33FD40B830E7C280AA1B
:1010810075F020800E75F010800575F0087D007EEA
:10109100007F003392D530D50312122CEC3340106F
:1010A100EF33FFEE33FEED33FDEC33FCD5F0ED22F3
:0E10B100E5F0247EA2D513CC92E7CDCEFF222F
:1010BF00E9D2E7C933E833F892D5EDD2E7CD33EC77
:0710CF0033FC5002B2D522F0
:1010D600EC30E7100FBF000C0EBE00080DBD00047B
:1010E6000BEB6014A2D5EB13FCED92E7FD2274FF27
:1010F600FCFDFEFF22E480F8A2D574FF13FC7D8080
:03110600E480EF93
:101D86000213F0E493A3F8E493A34003F68001F270
:101D960008DFF48029E493A3F85407240CC8C3335E
:101DA600C4540F4420C8834004F456800146F6DF2D
:101DB600E4800B01020408102040809021EEE47EAE
:101DC600019360BCA3FF543F30E509541FFEE49322
:101DD600A360010ECF54C025E060A840B8E493A3E9
:101DE600FAE493A3F8E493A3C8C582C8CAC583CA14
:101DF600F0A3C8C582C8CAC583CADFE9DEE780BECC
:0121F20000EC
:10110900E709F608DFFA8046E709F208DFFA803EC8
:1011190088828C83E709F0A3DFFA8032E309F608B5
:10112900DFFA8078E309F208DFFA807088828C831D
:10113900E309F0A3DFFA806489828A83E0A3F608D1
:10114900DFFA805889828A83E0A3F208DFFA804CAB
:1011590080D280FA80C680D4806980F28033801082
:1011690080A680EA809A80A880DA80E280CA8033EB
:1011790089828A83ECFAE493A3C8C582C8CCC58363
:10118900CCF0A3C8C582C8CCC583CCDFE9DEE78033
:101199000D89828A83E493A3F608DFF9ECFAA9F0B2
:1011A900EDFB2289828A83ECFAE0A3C8C582C8CC08
:1011B900C583CCF0A3C8C582C8CCC583CCDFEADE21
:1011C900E880DB89828A83E493A3F208DFF980CC83
:1011D90088F0EF60010E4E60C388F0ED2402B4047C
:1011E9000050B9F582EB2402B4040050AF23234523
:0611F900822390115973DE
:1011FF00BB010CE58229F582E5833AF583E02250A5
:10120F0006E92582F8E622BBFE06E92582F8E222EE
:0D121F00E58229F582E5833AF583E4932208
:0E122C00C3E49FFFE49EFEE49DFDE49CFC22D3
:0C123A00ECF0A3EDF0A3EEF0A3EFF02227
:10124600A8828583F0D083D08212125D12125D12BD
:10125600125D12125DE473E493A3C583C5F0C583E2
:10126600C8C582C8F0A3C583C5F0C583C8C582C8F2
:011276002255
:00000001FF
