:0300000002158F57
:0C158F00787FE4F6D8FD7581290215D69E
:10095B004F4C45445F322E343227004F4C454432C6
:10096B002E3234496E6368000003050911FF1189AB
:10097B0005C300E000F000F8000000000000004498
:10098B0028FF11AA44000000000000000000000036
:10099B00000000000000000000000000000000004C
:1009AB00000000000000000000000000000000003C
:1009BB00000000000000000000000000000000002C
:1009CB00000083013844829292740183000000007E
:1009DB000000007C44FF017D7D7D017D7D7D7D01DF
:1009EB007D7D7D7D7D01FF00000000000001000189
:1009FB0000010001000100010000000000000000E8
:100A0B0000010100000000000000000000000000D9
:100A1B0000000000000000000000000000000000CB
:100A2B0000000000000000000000000000000000BB
:100A3B0000000000000000000000000000000000AB
:100A4B000000010100000000000001010000000097
:100A5B000000000000010101010101010101010180
:100A6B000101010101010100000000000000000074
:100A7B00000000000000000000000000000000006B
:100A8B00000000003F3F0303F3131111111111116B
:100A9B0001F1116181010101816111F1010101017B
:100AAB004141F10101010101C1211111111121C1BB
:100ABB00010101014141F1010101010101010101AB
:100ACB00011111111111D33303033F3F000000003B
:100ADB00000000000000000000000000000000000B
:100AEB0000000000000000000000000000000000FB
:100AFB0000000000000000000000000000000000EB
:100B0B0000000000E0E000007F0101010101010095
:100B1B00007F0000010618060100007F00000000A6
:100B2B0040407F40400000001F2040404040201FBD
:100B3B000000000040407F404000000000600000CB
:100B4B00000040300C0300000000E0E0000000005B
:100B5B00000000000000000000000000000000008A
:100B6B00000000000000000000000000000000007A
:100B7B00000000000000000000000000000000006A
:100B8B00000000000707060606060404048444441C
:100B9B0044840404844444448404040484C404044A
:100BAB0004048444444484040404040484444444FA
:100BBB0084040404040484444444840404844444AA
:100BCB00448404040404060606060707000000001C
:100BDB00000000000000000000000000000000000A
:100BEB0000000000000000000000000000000000FA
:100BFB0000000000000000000000000000000000EA
:100C0B00000000000000000000000000001018149D
:100C1B00121100000F1010100F000000101F100019
:100C2B000000081012120D00001800000D12121215
:100C3B000D000018000010181412110000101814E9
:100C4B001211000000000000000000000000000076
:100C5B000000000000000000000000000000000089
:100C6B000000000000000000000000000000000079
:100C7B000000000000000000000000000000000069
:100C8B000000000000000000000000000000000059
:100C9B000000000000000000000000000000000049
:100CAB000000000080808080808080800000000039
:100CBB000000000000000000000000000000000029
:100CCB000000000000000000000000000000000019
:100CDB000000000000000000000000000000000009
:100CEB000000000000000000007F030C300C037FAD
:100CFB0000003854545800007C04047800003C4039
:100D0B00407C00000000000000000000000000001C
:100D1B0000000000000000000000000000000000C8
:100D2B0000000000FFAAAAAA280800FF000000008C
:100D3B0000000000000000000000000000000000A8
:100D4B000000000000000000000000000000000098
:100D5B00007F030C300C037F000026494949320009
:100D6B00007F020408107F00FF0101010101010156
:100D7B000101010101010101010101010101010158
:100D8B000101010101010101010101010101010148
:100D9B000101010101010101010101010101010138
:100DAB000101010101010101010101010101010128
:100DBB000101010101010101010101010101010118
:100DCB000101010101010101010101010101010108
:100DDB0001010101010101010101010101010101F8
:100DEB0001010101010101FFFF00000000000000F3
:100DFB0000000000000000000000000000000000E8
:100E0B0000000000000000000000000000000000D7
:100E1B0000000000000000000000000000000000C7
:100E2B0000000000000000000000000000000000B7
:100E3B0000000000000000000000000000000000A7
:100E4B000000000000000000000000000000000097
:100E5B000000000000000000000000000000000087
:100E6B0000000000000000FFFF0000000000000079
:100E7B000000000000000000000000000000000067
:100E8B000000000000000000000000000000000057
:100E9B000000000000000000000000000000000047
:100EAB000000000000000000000000000000000037
:100EBB000000000000000000000000000000000027
:100ECB000000000000000000000000000000000017
:100EDB000000000000000000000000000000000007
:100EEB0000000000000000FFFF00000000000000F9
:100EFB0000000000000000000000000000000000E7
:100F0B0000000000000000000000000000000000D6
:100F1B0000000000000000000000000000000000C6
:100F2B0000000000000000000000000000000000B6
:100F3B0000000000000000000000000000000000A6
:100F4B000000000000000000000000000000000096
:100F5B000000000000000000000000000000000086
:100F6B0000000000000000FFFF0000000000000078
:100F7B000000000000000000000000000000000066
:100F8B000000000000000000000000000000000056
:100F9B000000000000000000000000000000000046
:100FAB000000000000000000000000000000000036
:100FBB000000000000000000000000000000000026
:100FCB000000000000000000000000000000000016
:100FDB000000000000000000000000000000000006
:100FEB0000000000000000FFFF00000000000000F8
:100FFB0000000000000000000000000000000000E6
:10100B0000000000000000000000000000000000D5
:10101B0000000000000000000000000000000000C5
:10102B0000000000000000000000000000000000B5
:10103B0000000000000000000000000000000000A5
:10104B000000000000000000000000000000000095
:10105B000000000000000000000000000000000085
:10106B0000000000000000FFFF0000000000000077
:10107B000000000000000000000000000000000065
:10108B000000000000000000000000000000000055
:10109B000000000000000000000000000000000045
:1010AB000000000000000000000000000000000035
:1010BB000000000000000000000000000000000025
:1010CB000000000000000000000000000000000015
:1010DB000000000000000000000000000000000005
:1010EB0000000000000000FFFF8080808080808077
:1010FB0080808080808080808080808080808080E5
:10110B0080808080808080808080808080808080D4
:10111B0080808080808080808080808080808080C4
:10112B0080808080808080808080808080808080B4
:10113B0080808080808080808080808080808080A4
:10114B008080808080808080808080808080808094
:10115B008080808080808080808080808080808084
:08116B0080808080808080FFFD
:10117300750820121438E4FF121930E4FF1218879F
:10118300750C40750DFF750E09750F737B80E4FDBB
:10119300FF1217307F5A7E00121916750C40750D19
:1011A300FF750E0D750F737B80E4FDFF121730750D
:1011B3000C10E4FB7D017F1212161B750C107B01D2
:1011C3007D017F2412161B750C107B027D017F3677
:1011D30012161B750C107B037D017F4812161B75BD
:1011E3000C107B047D017F5A12161B750C107B05B6
:1011F3007D037F1212161B750C107B067D037F2463
:1012030012161B750C107B077D037F3612161B7598
:101213000C107B087D037F4812161B750C107B098D
:101223007D037F5A12161B7BFF7A09795B750E10BB
:101233007D057F161217987F5A7E001219167F5567
:101243007E001217E17F5A7E001219167FAA7E00D4
:101253001217E17F5A7E00121916E4FDFC7FFFFE90
:101263001218567F5A7E001219167DFF7C00E4FF88
:10127300FE1218567F5A7E001219167DAA7C007F33
:10128300557E001218567F5A7E001219167D557C22
:10129300007FAA7E001218567F5A7E00121916127A
:1012A30018D17F01121930750C40750DFF750E09A9
:1012B300750F737B80E4FDFF1217307F5A7E001297
:1012C3001916750C40750DFF750E0D750F737B8028
:1012D300E4FDFF121730750C10E4FB7D017F121241
:1012E300161B750C107B017D017F2412161B750CD8
:1012F300107B027D017F3612161B750C107B037D5C
:10130300017F4812161B750C107B047D017F5A1256
:10131300161B750C107B057D037F1212161B750CB3
:10132300107B067D037F2412161B750C107B077D33
:10133300037F3612161B750C107B087D037F481242
:10134300161B750C107B097D037F5A12161B7BFF3E
:101353007A097966750E107D057F131217987F5AE7
:051363007E00121916C6
:03136800021173FC
:100003000000000000000000002F000000000700B7
:10001300070000147F147F1400242A7F2A12006231
:1000230064081323003649552250000005030000DD
:1000330000001C224100000041221C000014083E65
:1000430008140008083E0808000000A0600000082B
:10005300080808080000606000000020100804027F
:10006300003E5149453E0000427F4000004261513D
:100073004946002141454B31001814127F100027D7
:1000830045454539003C4A4949300001710905039A
:1000930000364949493600064949291E00003636CB
:1000A300000000005636000000081422410000142E
:1000B300141414140000412214080002015109060B
:1000C30000324959513E007C1211127C007F49498C
:1000D3004936003E41414122007F4141221C007FBD
:1000E30049494941007F09090901003E4149497ACB
:1000F300007F0808087F0000417F41000020404145
:100103003F01007F08142241007F40404040007FB0
:10011300020C027F007F0408107F003E4141413EF4
:10012300007F09090906003E4151215E007F09193C
:1001330029460046494949310001017F0101003F39
:100143004040403F001F2040201F003F4038403FB9
:10015300006314081463000708700807006151491D
:10016300454300007F41410000552A552A550000B0
:1001730041417F000004020102040040404040402E
:10018300000001020400002054545478007F4844C6
:10019300443800384444442000384444487F0038FD
:1001A3005454541800087E0901020018A4A4A47C26
:1001B300007F080404780000447D400000408084F0
:1001C3007D00007F102844000000417F4000007C38
:1001D30004180478007C0804047800384444443844
:1001E30000FC242424180018242418FC007C080490
:1001F300040800485454542000043F444020003C69
:100203004040207C001C2040201C003C4030403CEF
:10021300004428102844001CA0A0A07C004464547F
:100223004C441414141414140000000000000000C3
:100233000000000000000000000000F800000000C3
:10024300000000333000000000100C06100C060004
:10025300000000000000000040C07840C07840006B
:10026300043F04043F040400007088FC08300000CD
:10027300001820FF211E0000F008F000E018000025
:1002830000211C031E211E0000F0088870000000DE
:100293001E2123241927211010160E000000000030
:1002A3000000000000000000000000E0180402004D
:1002B300000000071820400000020418E0000000BE
:1002C3000040201807000000404080F080404000BC
:1002D3000202010F01020200000000F00000000012
:1002E3000101011F010101000000000000000000E6
:1002F30080B070000000000000000000000000005B
:1003030000010101010101010000000000000000E3
:10031300003030000000000000000000806018047E
:10032300006018060100000000E010080810E0005B
:10033300000F102020100F00001010F80000000024
:100343000020203F2020000000700808088870006B
:1003530000302824222130000030088888483000EB
:100363000018202020110E000000C02010F800000B
:1003730000070424243F240000F8088888080800A4
:100383000019212020110E0000E0108888180000B9
:10039300000F112020110E0000380808C83808008B
:1003A3000000003F0000000000708808088870000B
:1003B300001C222121221C0000E010080810E0008C
:1003C3000000312222110F00000000C0C000000015
:1003D300000000303000000000000080000000003A
:1003E3000000806000000000000080402010080032
:1003F30000010204081020004040404040404000FB
:1004030004040404040404000008102040800000D5
:100413000020100804020100007048080808F000DA
:100423000000003036010000C030C828E810E000AA
:100433000718272423140B000000C038E000000035
:10044300203C23020227382008F88888887000009F
:10045300203F202020110E00C03008080808380073
:10046300071820202010080008F808080810E000EA
:10047300203F202020100F0008F88888E80810008B
:10048300203F20202320180008F88888E80810005F
:10049300203F200003000000C03008080838000097
:1004A30007182020221E020008F808000008F80898
:1004B300203F210101213F20000808F8080800001F
:1004C3000020203F2020000000000808F808080052
:1004D300C08080807F00000008F888C028180800CA
:1004E300203F20012638200008F808000000000003
:1004F300203F20202020300008F8F800F8F80800FA
:10050300203F003F003F200008F830C00008F808F3
:10051300203F200007183F00E01008080810E00003
:100523000F10202020100F0008F808080808F0001A
:10053300203F210101010000E01008080810E0003D
:100543000F18242438504F0008F8888888887000D2
:10055300203F2000030C3020007088080808380072
:100563000038202121221C00180808F80808180068
:100573000000203F2000000008F808000008F808E9
:10058300001F202020201F000878880000C838089A
:10059300000007380E010000F80800F80008F80012
:1005A300033C0700073C03000818688080681808AC
:1005B30020302C03032C30200838C800C83808002A
:1005C3000000203F2000000010080808C838080079
:1005D3002038262120201800000000FE020202001D
:1005E3000000007F40404000000C30C000000000CD
:1005F300000000010638C00000020202FE000000F5
:10060300004040407F00000000000402020204009A
:1006130000000000000000000000000000000000D7
:1006230080808080808080800002020400000000BF
:1006330000000000000000000000808080800000B7
:100643000019242222223F2008F8008080000000A5
:10065300003F112020110E00000000808080000068
:10066300000E112020201100000000808088F80077
:10067300000E112020103F200000808080800000A9
:10068300001F222222221300008080F0888888180D
:100693000020203F20200000000080808080800018
:1006A300006B94949493600008F8008080800000AD
:1006B300203F210000203F20008098980000000088
:1006C3000020203F202000000000008098980000B8
:1006D30000C08080807F000008F8000080808000D8
:1006E300203F24022D302000000808F800000000FD
:1006F3000020203F202000008080808080808000B8
:10070300203F20003F20003F808000808080000049
:10071300203F210000203F200000808080800000D7
:10072300001F202020201F00808000808000000008
:1007330080FFA12020110E00000000808080800037
:10074300000E112020A0FF80808080008080800028
:1007530020203F2120000100000080808080800055
:100763000033242424241900008080E080800000CA
:100773000000001F20200000808000000080800017
:10078300001F202020103F20808080000080808078
:1007930000010E3008060100808000800080808008
:1007A3000F300C030C300F0000808000808080002D
:1007B3000020312E0E312000808080000080808058
:1007C30080818E7018060100008080808080800008
:1007D3000021302C2221300000000000807C020226
:1007E30000000000003F404000000000FF00000048
:1007F30000000000FF0000000002027C80000000F7
:100803000040403F00000000000601010202040412
:1008130000000000000000000000FC0404040405C4
:10082300060404040406040040300F000000000026
:1008330000000000000000000808088868180FE89E
:1008430008080888080C0800004021110D41817F29
:100853000105093161000000807000FF209840F815
:1008630007407FA090C80000806018070834040583
:1008730004FF0404040604004448D07FD04C48A677
:10088300623AA2223226020040300F003F100809CC
:100893000909FF09090D0800242424A4FEA322004A
:1008A300244800FF0080000010080601FF00010239
:1008B300020202FF01010100101010FF10900888CE
:1008C3008888FF88888808000444827F01808040EC
:1008D300432C10284681800004040484E43C27242C
:1008E300242424F42406040004020100FF09090956
:1008F3000949897F0000000000FE0222DA0600FE9B
:1009030092929292FF02000000FF0810080700FF76
:10091300422408142261200000008040300C00C0F3
:100923000618204080808000010100302824232005
:10093300202830600001000010109292929292924F
:10094300D29A1202FF02000000003F101010101094
:080953003F0040807F0000001E
:0319B50001260008
:10191600EF4E60157D087C07ED1DAA0470011C4A78
:0919260070F6EF1F70EA1E80E765
:01192F002295
:101930008F09E5097006FD7FA612182DE509B4018F
:0919400007E4FD7FA712182D2217
:101887008F09E509700DFD7FC812182DE4FD7FA1B2
:1018970012182DE509B4010EE4FD7FC012182DE4DE
:0718A700FD7FA012182D22A5
:0819AC007F01AE071FEE70FA87
:0119B4002210
:0F197600D2B7D2B61219ACC2B71219ACC2B62290
:0A19A200C2B7D2B61219ACD2B722B8
:0F198500D2B71219ACD2B61219ACC2B60219AC55
:0218AE00AD0784
:1018B000E4FCC2B6ED30E704D2B78002C2B7121919
:1018C000ACD2B61219ACC2B6ED25E0FD0CBC08E2F4
:0118D00022F5
:0D18200012182DE4FDFF12182DE4FD7F10BD
:10182D00AB05AA071219767F781218AE121985EB3F
:10183D0060047F408002E4FF1218AE121985AF02DA
:09184D001218AE1219850219A24D
:1018F400A907ED24B0FFE4FD12182DE954F0C454F7
:101904000F4410FFE4FD12182DE9540FFFE4FD020B
:02191400182D8C
:10196100E4FD7F8D12182DE4FD7F1412182DE4FD86
:051971007FAF02182DFC
:0E199400E4FD7F8D121826E4FD7FAE02182DB3
:1018D100E4F9E924B0FFE4FD121820E4F5097D01E3
:1018E100E4FF12182D0509E509C3948040F009B9F8
:0218F10008E00D
:0118F30022D2
:04136B008F108D1141
:10136F00E4F514E513C313FDF515E4F516F517E5CC
:10137F0013B408087518007519068029E51313139F
:10138F0013541FFF7E00E513540760059000018082
:10139F0003900000E5822FFFE5833EFE7C001215CF
:1013AF00288E188F19EB24E0F514AD11AF10121819
:1013BF00F4E4F516F517C3E5179519E516951850CA
:1013CF0067E515FD7C00AE16AF1712153AED4C70A0
:1013DF000FE51364086009AD110511AF101218F471
:1013EF00E513B4081075F006E514A42403F582E59F
:1013FF00F034008013E513B4102E75F010E514A42B
:10140F00242BF582E5F03402F583E5822517F5826A
:10141F00E5833516F583E493FF7D0112182D05172B
:08142F00E51770920516808E8E
:011437002292
:041949008F29A90534
:10194D007F017E00AD0119ED6009AD297C001215F6
:03195D002880F1EE
:011960002264
:0816A7008F1A8D1B8A1C8B1D9C
:1016AF00E4F522F523E51FB40803752202E4F520C3
:1016BF00E520C3951E5069C3E51E952014FD7F0AD2
:1016CF00121949AC1CAD1DCFCDCFCECCCE12153AD1
:1016DF007C007D0A12153A8D21E5237025E51E1435
:1016EF00FFE520C39F501BE5217014E51FC3132591
:1016FF00228520F0A4251AFF851F137B20801875E3
:10170F002301E51FC31325228520F0A4251AFFE529
:10171F00212430FB851F13AD1B12136B0520809006
:01172F002297
:0A1798008F098D0A8B0B8A0C890D56
:1017A200E4F50FAB0BAA0CA90D850F82758300120D
:1017B20014FB602AAF0F050F8F827583001214FB92
:1017C200FB850E13AD0AAF0912136BE50EB40804C4
:0E17D20074068004E50EC3132509F50980C5D1
:0117E00022E6
:06161B008F098D0A8B0B04
:10162100E50C131313541FFF7E00E50C54077C00D7
:1016310060047D0180027D00ED2FFFEC3EFEAD0CCC
:101641007C001215288E0F8F10E4F50DF50EC3E501
:101651000E9510E50D950F504CE50CFD7C00AE0D7F
:10166100AF0E12153AED4C7009AD0A050AAF091219
:1016710018F4E50CB4102E75F020E50BA4241BF52D
:1016810082E5F03408F583E582250EF582E58335A0
:101691000DF583E493FF7D0112182D050EE50E7003
:0516A100AD050D80A95C
:0116A6002221
:061730008F098D0A8B0BEE
:10173600E4F510F511E50C131313541FFFE50C54D3
:101746000760047E0180027E00EF2EF50CE4F512A0
:10175600E512C3950C503AE512250AFDAF09121899
:10176600F4E4F513E513C3950B5022AB0DAA0EA9AD
:101776000F0511E511AE107002051014F5828E8367
:101786001214FBFF7D0112182D051380D705128058
:01179600BF93
:01179700222F
:10143800C2927F027E00121916D292E4FD7FAE128C
:101448001820E4FD7F4012182DE4FD7F8112182D2D
:10145800E4FD7FCF12182DE4FD7FA112182DE4FDC5
:101468007FC812182DE4FD7FA612182DE4FD7FA871
:1014780012182DE4FD7F3F12182DE4FD7FD31218BA
:101488002DE4FDFF12182DE4FD7FD512182DE4FD83
:101498007F8012182DE4FD7FD912182DE4FD7FF10D
:1014A80012182DE4FD7FDA12182DE4FD7F121218B0
:1014B8002DE4FD7FDB12182DE4FD7F4012182DE48A
:1014C800FD7F2012182DE4FD7F0212182DE4FD7F08
:1014D8008D12182DE4FD7F1412182DE4FD7FA4123F
:1014E800182DE4FD7FA612182D1218D1E4FD7FAF48
:0314F80002182DAA
:1017E1008F828E83E4F527F528AD28E4FF1218F4E3
:1017F100E4F524F525AF827D0112182D0525E52597
:1018010070020524C39480E524940040E80528E58E
:0F1811002870020527C39408E527940040CB22D6
:081856008E098F0A8D828C833C
:10185E00E4F50BAD0BE4FF1218F4E4F9E920E00413
:10186E00AF0A8002AF827D0112182D09B980ED05F5
:08187E000BE50BC3940840DBED
:01188600223F
:10159B00021173E493A3F8E493A34003F68001F2E2
:1015AB0008DFF48029E493A3F85407240CC8C33351
:1015BB00C4540F4420C8834004F456800146F6DF20
:1015CB00E4800B01020408102040809019B5E47EE2
:1015DB00019360BCA3FF543F30E509541FFEE49315
:1015EB00A360010ECF54C025E060A840B8E493A3DC
:1015FB00FAE493A3F8E493A3C8C582C8CAC583CA07
:10160B00F0A3C8C582C8CAC583CADFE9DEE780BEBE
:0119B800002E
:1014FB00BB010CE58229F582E5833AF583E02250A6
:10150B0006E92582F8E622BBFE06E92582F8E222EF
:0D151B00E58229F582E5833AF583E4932209
:10152800EF8DF0A4A8F0CF8CF0A428CE8DF0A42ED7
:02153800FE2291
:10153A00BC000BBE0029EF8DF084FFADF022E4CC95
:10154A00F875F008EF2FFFEE33FEEC33FCEE9DEC5E
:10155A00984005FCEE9DFE0FD5F0E9E4CEFD22EDA4
:10156A00F8F5F0EE8420D21CFEADF075F008EF2FEE
:10157A00FFED33FD4007985006D5F0F222C398FDDF
:05158A000FD5F0EA227C
:00000001FF
