:1003A6001203591203F212038DEF4E600512014A31
:0703B60080F412000380EF48
:100373004C434D31363032480059654875694469FC
:0A03830073706C61792E636F6D00DA
:1001BE00080B150A150A150A150008130A150A1553
:1001CE000A150A00081B1515151515151515082302
:1001DE000A0A0A0A0A0A0A0A082B1F001F001F0031
:1001EE001F000833001F001F001F001F083B0015D3
:0A01FE0000150015001502080000AE
:10038D0020A0127F017E0012031F20A00830A0FDC7
:09039D007E007F0122E4FEFF2234
:09031600C2B18E90D2B2E4FFFEE8
:0A031F00EF1FAC0670011E4C600ECB
:0C03290075470C7548A9D548FDD547FA6A
:0303350080E8223B
:1003BD007590FFC2B0D2B1D2B2AF90C2B2EF20E70A
:0103CD00F639
:0103CE00220C
:0D040000AE071203BDC2B0120316C2B22235
:0D040D00AE071203BDD2B0120316C2B22218
:1003E100AD071203BDD2B0D2B112031A8D90C2B2C1
:0103F10022E9
:100359007F381204007F0C1204007F061204007F0C
:0A03690001120400E4FFFE02031F6E
:0E03F2001203BD7F01120400E4FFFE02031F90
:10033800C3ED9414EC94004003E4FCFD5307017EE4
:1003480000EF7005ED44808003ED44C0FF12040007
:010358002282
:1003CF001203BD7590FFD2B0D2B112031AAF90C213
:0103DF00B26B
:0103E00022FA
:0C041A007E007C00120338AF0302040DCA
:0602CB008B438A448945C3
:1002D1007E007C00120338E4FDAB43AA44A9458D9E
:1002E10082758300120275FF600612040D0D80E90C
:0102F10022EA
:02020900AD073F
:10020B007F021204007F017E0012031F7F80120405
:10021B0000E4FBAF0512040D0D0BBB28F67FC012DB
:10022B000400E4FBAF0512040D0D0BBB28F67F0198
:05023B007E0002031F1C
:02024000AD0708
:100242007F021204007F017E0012031F7F801204CE
:1002520000E4FBAF0512040D0BBB14F77FC01204C0
:1002620000E4FBAF0512040D0BBB14F77F017E0007
:0302720002031F65
:0602F2008B448A45894699
:1002F8007F40120400E4FDAB44AA45A9468D8275EF
:0D0308008300120275FF12040D0DBD40EAC6
:0103150022C5
:0702A2001202F2E4FDE4FB8F
:1002A900ED7007EB2480F5438005EB24C0F543AFDF
:0902B90043120400E4FF12040DDD
:0802C2000BBB14E30DBD02DDCE
:0102CA002211
:10014A0012038DEF4E606C1203F2050A530A07E59B
:10015A000AB40800505D900167F828287302017FED
:10016A0002018702018F02019702019F0201A70281
:10017A0001AF0201B87B007A00790B802E7B007AEE
:10018A0000791380267B007A00791B801E7B007A17
:10019A0000792380167B007A00792B800E7B007A07
:1001AA0000793380067B007A00793B0202A27F2124
:0401BA001202092202
:10000300E50860030200A5E509B40A004003020005
:10001300A590001BF8282873020039020041020052
:100023004902005102005902006102006902007492
:1000330002007B0200827B007A00790B802E7B001A
:100043007A00791380267B007A00791B801E7B005F
:100053007A00792380167B007A00792B800E7B004F
:100063007A00793380067B007A00793B1202A28002
:100073002A7F2112020980237FA1120240801C12D1
:1000830003F27BFF7A0379737D047F011202CB7B3A
:10009300FF7A03797CE4FDFF1202CB7F507E0012CE
:1000A300031F0509E50970020508D39409E50864EF
:0A00B3008094804005E4F508F5098B
:0100BD002220
:030000000200BE3D
:0C00BE00787FE4F6D8FD7581480201054A
:10027500BB010CE58229F582E5833AF583E022503E
:1002850006E92582F8E622BBFE06E92582F8E22288
:0D029500E58229F582E5833AF583E49322A2
:1000CA000203A6E493A3F8E493A34003F68001F2A3
:1000DA0008DFF48029E493A3F85407240CC8C33337
:1000EA00C4540F4420C8834004F456800146F6DF06
:1000FA00E4800B01020408102040809001BEE47ED7
:10010A00019360BCA3FF543F30E509541FFEE493FA
:10011A00A360010ECF54C025E060A840B8E493A3C1
:10012A00FAE493A3F8E493A3C8C582C8CAC583CAEC
:10013A00F0A3C8C582C8CAC583CADFE9DEE780BEA4
:0102080000F5
:00000001FF
