:03000000021BAC34
:0C1BAC00787FE4F6D8FD758107021BF37A
:101C38007F057E0012201B121B18E4FDFF121A8379
:101C480012148A7FA07E0F12201B1213177FA07E0A
:101C58000F12201B7BFF7A0979631216B37FA07ECF
:101C68000F12201B7D0F7FF01217887FA07E0F12A6
:101C7800201B7DCC7F331218617FA07E0F12201BA2
:101C88007DAA7F55121A837FA07E0F12201B7D55D7
:101C98007F55121A837FA07E0F12201BE4FD7FFF61
:101CA800121A837FA07E0F12201B7DFFE4FF121AF9
:0A1CB800837FA07E0F12201B8086A0
:100003000000FF0505F55D5555555555F5050500EA
:1000130040300F80A097BD555555B595878080001A
:1000230000FC0102060002020202020202FF0200B9
:1000330000FF00000000000000000040807F00007F
:10004300101010FF905004E49C84848484C68400C0
:100053000242817F040201FF4040404040FF000014
:100063008084444424544CF74C54242446C4400014
:10007300000484443F0404050404FF040604000050
:10008300242424A4FEA32200244800FF00800000AF
:1000930010080601FF000102020202FF0101010034
:1000A300101010FF1010888888FF88888C080000C3
:1000B3000444827F018081462810282641C04000E5
:1000C30004040484E43C2724242424F424060400A4
:1000D30004020100FF0909090949897F00000000A2
:1000E30000FE0222DA0600FE92929292FF020000C4
:1000F30000FF0810080700FF4224081422612000B3
:1001030000008040300C00C0061820408080800032
:100113000101003028242320202830600001000042
:100123001010929292929292D29A1202FF020000BF
:1001330000003F10101010103F0040807F000000AF
:1001430000000808FC000000000010101F10100041
:1001530000380404048478000018141211101800E5
:100163000018048484443800000C101010110E0091
:100173000000C02018FC000000030212121F12121C
:1001830000FC444444840400000C101010080700D1
:1001930000F08844444880000007081010100F0046
:1001A300000C0404C4340C000000001F0000000015
:1001B3000038448484443800000E111010110E00DE
:1001C30000F804040488F000000009111108070076
:1001D3002020C0F8C0202000010100070001010019
:1001E30000808080F0808080000000000700000015
:1001F3000000E01C70800000101E110101131C1090
:100203000080404040800000000C1212091F1000C3
:1002130004FC444444B80000101F101010080700E9
:1002230008F8804040800000001F081010080700F5
:10023300E018040404041C00030C1010100804004C
:1002430004FC04040408F000101F10101008070039
:1002530004FC4444F4040800101F101011100C0097
:100263000080404040408000000F121212120B0029
:1002730004FC4444F4040800101F100001000000B3
:10028300E0180404041C0000030C1010110F0100FB
:100293000080404040C0400000354A4A4A4930008F
:1002A30004FC84808084FC04101F100000101F10C5
:1002B30008F8804040408000101F100000101F10FD
:1002C300000404FC040400000010101F10100000C0
:1002D30000404CCC000000000010101F1010000064
:1002E30000000404FC040400604040403F000000A0
:1002F30004FC44E0140C0400101F1000131C100035
:1003030004FC040000000000101F1010101018005F
:10031300000808FC000000000010101F101000006F
:1003230004FCFC00FCFC0400101F001F001F100055
:1003330040C04040C0404080101F10001F10001FED
:1003430004FC18608004FC04101F1000030C1F0041
:1003530040C0804040408000101F100000101F105C
:10036300F00804040408F000070810101008070040
:100373000080404040408000000F101010100F001C
:1003830004FC848484847800101F100000000000A3
:1003930040C0804040800000407F481010080700A4
:1003A300F00804040408F0000708141418282700B0
:1003B30004FC4444C4443800101F10000106181004
:1003C3000038448484041C00001C101010110E001B
:1003D3000C0404FC04040C000000101F10000000B7
:1003E300004040F0404000000000000F10100800E3
:1003F30004FC04000004FC04000F101010100F0094
:1004030040C000000040C000000F101010081F1073
:10041300043CC40000E41C040000031C07000000AB
:1004230004FC00FC00FC040000011F001F0100008D
:10043300040C34C0C0340C04101816010116181033
:10044300041C6480641C04000000101F10000000E2
:1004530040C040000040C0400040433C0C0300004B
:1004630008040484641C0400101C131010100C00F6
:100473000000000000000000000000000000000079
:1004830000000000000000000048380000000000E9
:100493000000000000000000001818000000000029
:1004A300000708101008070000F008040408F00013
:1004B3000008081F00000000000404FC04040000FE
:1004C300000E101010110E00000C142444840C00B4
:1004D300000C101111120C000018040404887000A1
:1004E30000000304081F000000E0202424FC240073
:1004F300001F10111110100000988404048870006C
:10050300000708111118000000F088040488700027
:10051300001C1010131C1000000000FC0000000061
:10052300000E111010110E0000384484844438006A
:10053300000708101008070000008C444488F000EE
:10054300FF0101010101010101010101010101019A
:100553000101010101010101010101010101010188
:100563000101010101010101010101010101010178
:100573000101010101010101010101010101010168
:100583000101010101010101010101010101010158
:100593000101010101010101010101010101010148
:1005A3000101010101010101010101010101010138
:1005B3000101010101010101010101010101010128
:1005C300010101FFFF000000000000000000000027
:1005D3000000000000000000000000000000000018
:1005E3000000000000000000000000000000000008
:1005F30000000000000000000000000000000000F8
:1006030000000000000000000000000000000000E7
:1006130000000000000000000000000000000000D7
:1006230000000000000000000000000000000000C7
:1006330000000000000000000000000000000000B7
:1006430000000000000000FFFF00000000000000A9
:100653000000000000000000000000000000000097
:100663000000000000000000000000000000000087
:100673000000000000000000000000000000000077
:100683000000000000000000000000000000000067
:100693000000000000000000000000000000000057
:1006A3000000000000000000000000000000000047
:1006B3000000000000000000000000000000000037
:1006C3000000000000000000000000FFFF00000029
:1006D3000000000000000000000000000000000017
:1006E3000000000000000000000000000000000007
:1006F30000000000000000000000000000000000F7
:1007030000000000000000000000000000000000E6
:1007130000000000000000000000000000000000D6
:1007230000000000000000000000000000000000C6
:1007330000000000000000000000000000000000B6
:10074300000000000000000000000000000000FFA7
:10075300FF00000000000000000000000000000097
:100763000000000000000000000000000000000086
:100773000000000000000000000000000000000076
:100783000000000000000000000000000000000066
:100793000000000000000000000000000000000056
:1007A3000000000000000000000000000000000046
:1007B3000000000000000000000000000000000036
:1007C3000000000000000000000000000000000026
:1007D300000000FFFF000000000000000000000018
:1007E3000000000000000000000000000000000006
:1007F30000000000000000000000000000000000F6
:1008030000000000000000000000000000000000E5
:1008130000000000000000000000000000000000D5
:1008230000000000000000000000000000000000C5
:1008330000000000000000000000000000000000B5
:1008430000000000000000000000000000000000A5
:1008530000000000000000FFFF0000000000000097
:100863000000000000000000000000000000000085
:100873000000000000000000000000000000000075
:100883000000000000000000000000000000000065
:100893000000000000000000000000000000000055
:1008A3000000000000000000000000000000000045
:1008B3000000000000000000000000000000000035
:1008C3000000000000000000000000000000000025
:1008D3000000000000000000000000FFFF80808097
:1008E3008080808080808080808080808080808005
:1008F30080808080808080808080808080808080F5
:1009030080808080808080808080808080808080E4
:1009130080808080808080808080808080808080D4
:1009230080808080808080808080808080808080C4
:1009330080808080808080808080808080808080B4
:1009430080808080808080808080808080808080A4
:10095300808080808080808080808080808080FF15
:100963000000000000000000000000000000000084
:100973000000000000000000000000000000000074
:100983000000000000000080C0C0E0E0F0F0F0F8DC
:10099300F8F8FCFCFCFEFEFEFEFEFEFEFEFE7C7C8A
:1009A300380000000000000000800000404000000C
:1009B30000002020000000000000001010101010A4
:1009C3001010101010100010000000000000202074
:1009D30020000000404000008000000000000000F4
:1009E3000000000000000000000000000000000004
:1009F30000000000000000000000000000000000F4
:100A03000080C0E0F0F8FCFEFEFFFFFFFFFFFFFFEA
:100A1300FFFFFF7F7F3F1F0F0F0707030301210125
:100A230010000800040082004000000000001000D5
:100A330000000800000004040000000000000000A3
:100A4300000000000000000000000000000000049F
:100A5300000000000000080808080004000100006E
:100A63000000000000000000000000C0F0F0F8F8F3
:100A7300FCFCFCFCFCFCFCFCF8F8F8F8F0F0E000F3
:100A83000000E0FCFFFFFFFFFFFFFFFFFFFFFFFF93
:100A9300FF7F1F0F0301000000000000040201009C
:100AA30000000008000000000100000000303030AA
:100AB30030303030303030F0F0F0F0F0F0F0F0F073
:100AC300F0F0303030303030303030000000000093
:100AD300F0F0F0F0F0F0F0F0F03030303030303053
:100AE300F0F0F0F0F0F0F0F0E0A0000000F8FFFF0D
:100AF300FFFFFFFFFFFFFFFFFFFFFFFFFFFFFFFF03
:100B0300FFFF010000001FFFFFFFFFFFFFFFFFFFCD
:100B1300FFFFFFFF030000000000000020000000B3
:100B230000000000000000000000000000000000C2
:100B33000000000000000000000000FFFFFFFFFFB7
:100B4300FFFFFFFFFFFF00000000000000000000A8
:100B530000000000FFFFFFFFFFFFFFFFFF404040DB
:100B630040404040FFFFFFFFFFFFFFBF1F0F00009C
:100B730000031F7FFFFFFFFFFFFFFFFFFFFFFFFFDD
:100B8300FFFFFFFFFFFFFCE0C0000001030F1F3F5B
:100B93007FFFFFFFFFFFFFFFFFFCF0C080000000AF
:100BA3000002001020408000000000000000000050
:100BB300000000000000000000000000000000FF33
:100BC300FFFFFFFFFFFFFFFFFFFF0000000000002C
:100BD3000000000000000000FFFFFFFFFFFFFFFF1A
:100BE300FF80808080808080FFFFFFFFFFFFFFFF8B
:100BF300FF7F0000000000000003070F1F3F3F7F3F
:100C0300FFFFFFFFFFFFFFFFFFFFFFFFFFFFFEFCF5
:100C1300F8F0E0E0C08081010307070F1F1F3F3F8B
:100C23007F7FFEFCFCF8F0F0E0C0C0818000000094
:100C330000000000000000000000000000000000B1
:100C43000000000101010101010101010101000096
:100C53000000000000000000000000000000000091
:100C63000000000000000000000000000000000081
:100C73000000000000000000000000000000000071
:100C8300000000000001010307070F0F1F1F3F3F74
:100C93007F7F7FFFFFFFFFFFFFFFFFFFFEFEFCFCE9
:100CA300F8F8F0F0E0E0E0C0C1C1818383030707F7
:100CB30007070F0E0E0E0C1C1C18181818303030B6
:100CC3003020202020202020202040404000000011
:100CD3000000000000000000000000000000000011
:100CE300000000000000000000000080808080C041
:100CF30040406020201010080800000000000000A1
:100D030000000000000000000000000000000000E0
:100D130000000000000000000001010103030307BD
:100D23000707070F0F0F0F1F1F1F1F1F3F3F3F3FD8
:100D33003F3F3F7F7F7F7E7E7E7E7E7C7C7C7C7C94
:100D43007CFCF8F8F8F8F8F8787878787878787898
:100D530078787878787878383838383838181818B0
:100D63001C1C0C0C0C0C0C060606060303030101E9
:100D7300010000000000000000000000000000006F
:100D830000E010080810E000000708101008070032
:100D9300001010F8000000000010101F10100000D9
:100DA3000030080808887000001814121110180089
:100DB3000030088888483000000C101010110E0015
:100DC30000804020F8000000000302121F121200EE
:100DD30000F8884848488800000C101010100F00D5
:100DE30000E0108888980000000F111010100F0009
:100DF30000380808C83808000000001F0000000081
:100E03000070888888887000000E111010110E0081
:100E130000F008080890E00000001911110807000D
:100E2300101E110000131C100000E01C7080000055
:100E33000708101010080700F00804040408F00065
:100E4300101F101010100F0004FC8480808000001D
:100E530002020202020202002020202020202000A1
:100E63000000000000000000000C0C000000000067
:100E7300101E110000131C100000E01C7080000005
:10193A007F49494949490000FF0003FF0023FF008E
:10194A0043FF0063FF0083FF00A3FF00C3FF00E320
:10195A00FF0103FF0123FF0233FF0363FF0283FF3B
:10196A000143FF0163FF0153FF01D3FF0193FF010D
:10197A0073FF0433FF02D3FF0203FF0333FF026343
:10198A00FF0353FF03D3FF0403FF0373FF0223FF85
:10199A000263FF0353FF03D3FF0263FF02B3FF0394
:1019AA0053FF0373FF0313FF0373FF0293FF0453F1
:1019BA00FF0473FF0233FF0373FF0493FF0483FFE3
:1019CA000303FF03E3FF0243FF0233FF0363FF0442
:0D19DA0093FF0483FF0303FF03E3FF0243B9
:0420AA0041007B3244
:10203B0020A5127F057E0012201B20A50830A5FDD0
:09204B007E007F0122E4FEFF2269
:1020540020A6127F057E0012201B20A60830A6FDB4
:092064007E007F0122E4FEFF2250
:10206D0020A7127F057E0012201B20A70830A7FD98
:09207D007E007F0122E4FEFF2237
:0C209500C2907F0A7E0012201BD2902215
:0F208600800330A5097F647E0012201B80F422A6
:042017007F027E00C6
:10201B00E4FDFCC3ED9FEC9E5015E4FBFA0BBB00FB
:0F202B00010AEB64644A70F50DBD00010C80E4FE
:01203A002283
:0920A100E4F5A87F32FE02201BC9
:101B18007F0A7E0012201BC2907F1412201BD290D5
:101B28007F0A12201B7FE2121F387F0A7E001220D4
:101B38001B7FA2121F381220177FA0121F381220F5
:101B4800177FC8121F381220177F27121F3812203C
:101B5800177F81121F3890007BE0FF121F38122078
:101B6800177F2C121F381220177F2E121F381220B1
:101B7800177F2F121F381220177FF1121F381220DB
:101B8800170F121F381220177F40121F3812201704
:101B98007FA4121F381220177FAF121F387F027ED2
:041BA8000002201BFC
:0F16A4007D017BFF7E001212797BFF7A0579436F
:0B16B300900070EBF0A3EAF0A3E9F058
:1016BE00E4900075F0A3F090007474B0F090007494
:1016CE00E0FFC394B45051121F387F10121F38E43C
:1016DE00FF121F38E4900073F0900070E0FBA3E05F
:1016EE00FAA3E0F9900075E0FEA3E0F5828E831276
:1016FE00129FFF121FDD900076E004F0700690003E
:10170E0075E004F0900073E004F0E0C3948440C9E7
:10171E00900074E004F080A590007474B4F0900012
:10172E0074E0FFC394B85051121F387F10121F3847
:10173E00E4FF121F38E4900073F0900070E0FBA3FA
:10174E00E0FAA3E0F9900075E0FEA3E0F5828E8347
:10175E0012129FFF121FDD900076E004F0700690CB
:10176E000075E004F0900073E004F0E0C394844050
:09177E00C9900074E004F080A59C
:01178700223F
:0B19E700900088EBF0A3EAF0A3E9F009
:1019F200E490008DF0A3F090008C74B4F090008C11
:101A0200E0FFC394B85032121F387F10121F38E41F
:101A120090008BF0121F7290008EE004F07006901E
:101A2200008DE004F090008BE004F0E0C39480406D
:101A3200E390008CE004F080C490008C74B0F090CD
:101A4200008CE0FFC394B45037121F387F10121F6E
:101A520038E4FF121F38E490008BF0121F729000DE
:101A62008EE004F0700690008DE004F090008BE0B0
:101A720004F0E0C3948040E390008CE004F080BF67
:011A82002241
:081A8300900001EFF0A3EDF06B
:101A8B0090000474B0F0900004E0FFC394B450369F
:101A9B00121F387F10121F38E4FF121F38E490001A
:101AAB0003F0900001E0FF121FDD900002E0FF1237
:101ABB001FDD900003E004F0E0C3948040E490004D
:101ACB0004E004F080C090000474B4F0900004E0D3
:101ADB00FFC394B85036121F387F10121F38E4FF23
:101AEB00121F38E4900003F0900001E0FF121FDD9D
:101AFB00900002E0FF121FDD900003E004F0E0C352
:0C1B0B00948040E4900004E004F080C0EE
:011B170022AB
:08178800900001EFF0A3EDF069
:1017900090000574B0F0900005E0FFC394B4505879
:1017A000121F387F10121F38E4FF121F38E4900018
:1017B00003F0E4900004F0900001E0FF121FDD90C0
:1017C0000004E004F0E0C3940440ECE4900004F072
:1017D000900002E0FF121FDD900004E004F0E0C37F
:1017E000940440EC900003E004F0E0C3941140C284
:1017F000900005E004F0809E90000574B4F0900025
:1018000005E0FFC394B85058121F387F10121F38DC
:10181000E4FF121F38E4900003F0E4900004F0901D
:101820000001E0FF121FDD900004E004F0E0C3942B
:101830000440ECE4900004F0900002E0FF121FDD91
:10184000900004E004F0E0C3940440EC900003E056
:1018500004F0E0C3941140C2900005E004F0809EC3
:011860002265
:08186100900001EFF0A3EDF08F
:1018690090000574B0F0900005E0FFC394B450589F
:10187900121F387F10121F38E4FF121F38E490003E
:1018890003F0E4900004F0900001E0FF121FDD90E6
:101899000004E004F0E0C3940240ECE4900004F09A
:1018A900900002E0FF121FDD900004E004F0E0C3A5
:1018B900940240EC900003E004F0E0C3942140C29C
:1018C900900005E004F0809E90000574B4F090004B
:1018D90005E0FFC394B85058121F387F10121F3803
:1018E900E4FF121F38E4900003F0E4900004F09044
:1018F9000001E0FF121FDD900004E004F0E0C39452
:101909000240ECE4900004F0900002E0FF121FDDB9
:10191900900004E004F0E0C3940240EC900003E07E
:1019290004F0E0C3942140C2900005E004F0809ED9
:01193900228B
:0B1DC800900080EFF0A3EDF0A3EBF023
:101DD300E4900085F0A3F0A3F0900086F0900086D5
:101DE300E0FFC39404504B900080E024B0FEEF2E3C
:101DF300FF121F38900082E02410FF121F3890005A
:101E030081E0FF121F38E4900087F0900087E0FD27
:101E1300C394205015900086E075F0209000831243
:101E23001FC6900087E004F080E1900086E004F094
:021E330080AB82
:011E3500228A
:0B1E360090003EEFF0A3EDF0A3EBF0F6
:101E4100E4900043F0A3F0A3F0900044F09000442C
:101E5100E0FFC39402504B90003EE024B0FEEF2E11
:101E6100FF121F38900040E02410FF121F3890002D
:101E71003FE0FF121F38E4900045F0900045E0FD7F
:101E8100C394105015900044E075F0109000411279
:101E91001FC6900045E004F080E1900044E004F0AA
:021EA10080AB14
:011EA300221C
:071D4C00540FFDAB077F05FA
:0B1D5300900070EFF0A3EDF0A3EBF0A8
:101D5E00E4900075F0A3F0900075F0900075E0FF30
:101D6E00C394025054900070E024B0FEEF2EFF1288
:101D7E001F38900072E02410FF121F38900071E09F
:101D8E00FF121F38E4900076F0900076E0FDC394C9
:101D9E0008501E900075E075F008A47C002DFFEC35
:101DAE0035F0FE900073121FCF900076E004F080A5
:091DBE00D8900075E004F080A249
:011DC70022F9
:101F12002420FFEF54F0FFE4C4F854F0C8EFC45497
:101F22000F484410FF121F38900091A3E075F0088B
:061F3200A42420540FFF5F
:101F3800C291C292C2B6E4FEEF30E704D2B7800283
:101F4800C2B70000000000000000D2B60000000088
:101F580000000000C2B60000000000000000EF25ED
:091F6800E0FF0EEEB408D1D291A5
:011F7100224D
:101FC600A47C002DFFEC35F0FEE0FCA3E02FF582AB
:071FD600EC3EF583E493FFEC
:101FDD00C291D292C2B6E4FEEF30E704D2B78002CE
:101FED00C2B70000000000000000D2B600000000E3
:101FFD0000000000C2B60000000000000000EF2548
:09200D00E0FF0EEEB408D1D291FF
:0120160022A7
:101F7200900088E0FBA3E0FAA3E0F990008DE0FE78
:0A1F8200A3E0F5828E8312129FFF88
:101F8C00D291D292C2B6E4FEEF30E704D2B780020F
:101F9C00C2B70000000000000000D2B60000000034
:101FAC0000000000C2B60000000000000000EF2599
:091FBC00E0FF0EEEB408D1D29151
:011FC50022F9
:101CC200900091ECF0A3EDF0A3EBF0A3EAF0A3E90E
:091CD200F090008FEEF0A3EFF09A
:101CDB0044B0FF121F38A3E0FEA3E07803C333CE5A
:101CEB0033CED8F9121F12E4FD900093E0FBA3E072
:101CFB00FAA3E0F98D8275830012129FFF121FDD8C
:101D0B000DEDB408E490008FA3E01444B0FF121F54
:101D1B0038A3E0FEA3E07803C333CE33CED8F91259
:101D2B001F127D08900093E0FBA3E0FAA3E0F98D6E
:101D3B008275830012129FFF121FDD0DEDB410E4AC
:011D4B002275
:1015A5009000771212E640D000007F81121F38901C
:1015B500007BE0FF121F38E0FCE412112BA804A900
:1015C50005AA06AB07E4FFFE7D7C7C42120E86E48D
:1015D500FBFA79227843121084A804A905AA06AB60
:1015E50007E4FFFE7D807C3F120E86900077E0F8D1
:1015F500A3E0F9A3E0FAA3E0FB120F7B7B667A6612
:1016050079067840120F7B7BCD7ACC794C783D12E8
:101615000E8A90007C1212DA90007BE075F06484EB
:101625007E00C4F8540FC868FFEEC454F048FE7439
:10163500A32FF974043EFA7BFFE4FDFC7F03FE1241
:101645001CC290007BE075F06484E5F075F00A84B7
:101655007E00C4F8540FC868FFEEC454F048FE7409
:10166500A32FF974043EFA7BFF7D017F037E0012F0
:101675001CC290007BE075F00A84AFF07E00EFC4D9
:10168500F8540FC868FFEEC454F048FE74A32FF950
:0F16950074043EFA7BFF7D027F037E00021CC2BD
:101EA4002085047F0180027F003084047E0180024B
:101EB4007E00EE5F603C30871A7F647E0012201B38
:101EC4007F81121F3890007BE0FF121F38E004F07E
:101ED4001215A53086CA7F647E0012201B7F8112F2
:101EE4001F3890007BE0FF121F38E014F01215A594
:101EF40080AE30850E80032084137F507E00122034
:0E1F04001B80F43084077F507E0012201B22C9
:10148A0078037C007D017BFF7A1979427E007F0F09
:10149A0012127978127C007D017BFF7A1979517ECC
:1014AA00007F0F12127978217C007A1979607F1BEC
:1014BA001216A4E4900001F0900001E0FFC3940525
:1014CA005031E0FE75F003A42403F582E43400F5FC
:1014DA0083A3E0FAA3E0FD900041EAF0A3EDF0EE69
:1014EA002408FDEF04FB7F01121E36900001E00480
:1014FA00F080C5E4900001F0900001E0FFC394057C
:10150A005031E0FE75F003A42412F582E43400F5AC
:10151A0083A3E0FAA3E0FD900041EAF0A3EDF0EE28
:10152A002408FDEF04FB7F03121E36900001E0043D
:08153A00F080C5E4900002F00E
:1015420090003C741CF0A37408F0E0FF900002E0ED
:10155200FD8FF0A4FF90003CE07A002FFFEA35F007
:10156200FEEF7804CEA2E713CE13D8F8FFED75F0A4
:1015720003A42421F582E43400F583A3E0FAA3E076
:10158200FD900073EAF0A3EDF0900002E075F00820
:06159200A4241C121D4CF4
:0C159800900002E004F0E0C39409409EC3
:0115A4002224
:1013170078027C007D017BFF7A19797B7E007F2A2A
:10132700121279782C7C007D017BFF7A1979A57ED2
:10133700007F2D12127978597C007A1979D27F159E
:081347001216A4E4900001F06D
:10134F0090006E7408F0A3F0E0FF900001E0FD8FB5
:10135F00F0A4FF90006EE07A002FFFEA35F0FEEF69
:10136F007804CEA2E713CE13D8F8FFED75F003A4DF
:10137F002402F582E43400F583A3E0FAA3E0FD90A4
:10138F000073EAF0A3EDF0900001E075F008A424DB
:0B139F0008540FFDAB077F01121D5327
:1013AA00900001E004F0E0C3940E4099E49000013B
:0113BA00F042
:1013BB0090006E7408F0A3F0E0FF900001E0FD8F49
:1013CB00F0A4FF90006EE07A002FFFEA35F0FEEFFD
:1013DB007804CEA2E713CE13D8F8FFED75F003A473
:1013EB00242CF582E43400F583A3E0FAA3E0FD900E
:1013FB000073EAF0A3EDF0900001E075F008A4246F
:0B140B0008540FFDAB077F03121D53B8
:10141600900001E004F0E0C3940E4099E4900001CE
:01142600F0D5
:1014270090006E7414F0A37408F0E0FF900001E0E0
:10143700FD8FF0A4FF90006EE07A002FFFEA35F0F1
:10144700FEEF7804CEA2E713CE13D8F8FFED75F0C0
:1014570003A42459F582E43400F583A3E0FAA3E05A
:10146700FD900073EAF0A3EDF0900001E075F0083D
:06147700A42414121D4C18
:0C147D00900001E004F0E0C39407409EE2
:011489002240
:100E8300021194E86480F8E933E83360110460F0F8
:100E9300ED33EC337009E8FCE9FDEAFEEBFF2204D5
:100EA30060DED3EB9FEA9EE99DE8C2E78CF0C2F7D0
:100EB30095F0400CE8CCF8E9CDF9EACEFAEBCFFB9C
:100EC30012115F85D0F05804700320D5B3E8047085
:100ED300075002B2D502119E92D5EC0460F7E4CC20
:100EE300C0E0C398F8603B94186008400DD0E0FB65
:100EF300021176E4FBFAC9FC8028E830E406E4C971
:100F0300FBE4CAFCE830E305E4C9CACBFCE85407B8
:100F13006010F8C3E913F9EA13FAEB13FBEC13FCC3
:100F2300D8F130F52FC3E49CFCEF9BFFEE9AFEED66
:100F330099FDD0E0FBEF4E4D4C701222DB03021102
:100F43009BEC2CFCEF33FFEE33FEED33FDED30E78E
:100F5300EB021176EF2BFFEE3AFEED39FDD0E0FB0D
:100F630050130BBB000302119EED13FDEE13FEEFB6
:080F730013FFEC13FC021176E0
:100F7B00EC4D6011E8497017ED33EC3304600DE470
:100F8B00FCFFFEFD22E933E8330470F802119412E2
:100F9B00115F58046009E4CC2481500628500902E3
:100FAB00119E28400302119BC0E0EB4A7044B980AC
:100FBB0006D0E0FB02118AEF4E701CBD8008EBFFE0
:100FCB00EAFEE9FD80EBE98DF0A4FEE5F00210648A
:100FDB00E9CDF9EAFEEBFFEF89F0A4FCE5F0CE8951
:100FEB00F0A42EFFE435F0CD89F0A42DFEE435F00E
:100FFB008067EF4E7005BD80D780C3EF8BF0A4AC3C
:10100B00F0EE8BF0A42CFCE435F0F8EF8AF0A42C76
:10101B00E5F038FCE433CB8DF0A42CFCE5F03BF889
:10102B00EE8AF0A42CFCE5F038F8E433CF89F0A479
:10103B002CFCE5F038CF3400CE89F0A42FFFE5F07F
:10104B003EFEE433C98DF0A42EFEE5F039CD8AF0D7
:10105B00A42FFFE5F03EFEE43DFD33D0E0FB50074F
:10106B000BBB000F02119EEC2CFCEF33FFEE33FE9B
:06107B00ED33FD021176C9
:1010810002119EEC5D046005E8590470030211949D
:1010910012115F580460F6EC4860F2EC7004FDFE3A
:1010A100FF22C860DB2481C85009C3986002500642
:1010B10002119B9850CAF582E9294B4A7005AB820F
:1010C10002118A75F0007C1A7880C3EF9BEE9AEDCD
:1010D10099400DC3EF9BFFEE9AFEED99FDE842F0BA
:1010E100DC23ACF0D0E0FFD0E0FED0E0FDAB82200D
:1010F100E7101BEB60BAEC2CFCEF33FFEE33FEED97
:1011010033FD021176E803F830E705C0F075F00011
:10111100EF2FFFEE33FEED33FD40B830E7C280AA7A
:1011210075F020800E75F010800575F0087D007E49
:10113100007F003392D530D5031212CCEC3340102E
:10114100EF33FFEE33FEED33FDEC33FCD5F0ED2252
:0E115100E5F0247EA2D513CC92E7CDCEFF228E
:10115F00E9D2E7C933E833F892D5EDD2E7CD33ECD6
:07116F0033FC5002B2D5224F
:10117600EC30E7100FBF000C0EBE00080DBD0004DA
:101186000BEB6014A2D5EB13FCED92E7FD2274FF86
:10119600FCFDFEFF22E480F8A2D574FF13FC7D80DF
:0311A600E480EFF3
:101BB800021C38E493A3F8E493A34003F68001F2EF
:101BC80008DFF48029E493A3F85407240CC8C3332E
:101BD800C4540F4420C8834004F456800146F6DFFD
:101BE800E4800B01020408102040809020AAE47EC3
:101BF800019360BCA3FF543F30E509541FFEE493F2
:101C0800A360010ECF54C025E060A840B8E493A3B8
:101C1800FAE493A3F8E493A3C8C582C8CAC583CAE3
:101C2800F0A3C8C582C8CAC583CADFE9DEE780BE9B
:0120AE000031
:1011A900E709F608DFFA8046E709F208DFFA803E28
:1011B90088828C83E709F0A3DFFA8032E309F60815
:1011C900DFFA8078E309F208DFFA807088828C837D
:1011D900E309F0A3DFFA806489828A83E0A3F60831
:1011E900DFFA805889828A83E0A3F208DFFA804C0B
:1011F90080D280FA80C680D4806980F280338010E2
:1012090080A680EA809A80A880DA80E280CA80334A
:1012190089828A83ECFAE493A3C8C582C8CCC583C2
:10122900CCF0A3C8C582C8CCC583CCDFE9DEE78092
:101239000D89828A83E493A3F608DFF9ECFAA9F011
:10124900EDFB2289828A83ECFAE0A3C8C582C8CC67
:10125900C583CCF0A3C8C582C8CCC583CCDFEADE80
:10126900E880DB89828A83E493A3F208DFF980CCE2
:1012790088F0EF60010E4E60C388F0ED2402B404DB
:101289000050B9F582EB2402B4040050AF23234582
:0612990082239011F9739D
:10129F00BB010CE58229F582E5833AF583E0225004
:1012AF0006E92582F8E622BBFE06E92582F8E2224E
:0D12BF00E58229F582E5833AF583E4932268
:0E12CC00C3E49FFFE49EFEE49DFDE49CFC2233
:0C12DA00ECF0A3EDF0A3EEF0A3EFF02287
:1012E600A8828583F0D083D0821212FD1212FD12DD
:1012F60012FD1212FDE473E493A3C583C5F0C58302
:10130600C8C582C8F0A3C583C5F0C583C8C582C851
:0113160022B4
:00000001FF
