:100A8700120BC47F32120D86E4FDFF120C97750B13
:100A97000DE4FB7D01FF120CCB7F40120D86750B19
:100AA700087B0D7D037F02120CCB7F40120D867DE4
:100AB700AA7F55120C977FD0120D867D557FAA12FB
:100AC7000C977FD0120D867DFFE4FF120C977FD025
:100AD700120D86E4FD7FFF120C977FD0120D867DE5
:100AE700557F55120C977FD0120D867DAA7FAA12CB
:090AF7000C977FD0120D86808758
:060E0100C100021D00000B
:060D8600AE071FEE600E37
:0C0D8C0075080C7509A9D509FDD508FAF9
:030D980080EC22CA
:100D590020A0107F01120D8620A00830A0FD7E0082
:070D69007F0122E4FEFF22DE
:060DC500AD077F057E0072
:0B0DCB00EF1FAC0670011E4C70F622FA
:0F0DE600EF4E600AEF1F70011E3000F480FB22F9
:100C6300FF120D77E51C2486FF120DDFAB18AA19BE
:100C7300A91A75F020E517A4251BF582E435F0F5D4
:050C830083120D2CFF9F
:0F0C8800120DC5D2B0C2B48D90D2B300C2B32248
:100CFC00E51C24C3FF120DFAAB18AA19A91A75F03A
:100D0C0020E517A4251BF582E435F0F583120D2C94
:010D1C00FFD7
:0F0D1D00120DC5D2B0C2B48D90D2B500C2B522AE
:100D9B00AD077F147E00120DCBC2B0C2B48D90D2C2
:050DAB00B300C2B322F9
:100DB000AD077F147E00120DCBC2B0C2B48D90D2AD
:050DC000B500C2B522E0
:070D700085161CE51504FFC8
:0F0D7700AB074303B8AF03120D9BAF03020DB0E0
:090DD600FF120D77E5142486FFDD
:070DDF00EF547FFF020D9BA2
:050DF500E51424C3FF1A
:070DFA00EF547FFF020DB072
:100BC400D2B17F0A120D86C2B17F02120D86D2B154
:100BD4007F0A120D867FE2120D9B7FE2120DB07F19
:100BE400A4120D9B7FA4120DB07FA9120D9B7FA9A7
:100BF400120DB07FA0120D9B7FA0120DB07FC0120A
:100C04000D9B7FC0120DB07FAF120D9B7FAF020D05
:010C1400B02F
:040C97008F08AA0513
:100C9B00E4F9AF01120D77E4FF120DDFE4FF120D43
:100CAB00FAE4FBAF08120C88AF02120C88AF0212E9
:0F0CBB000D1DAF08120D1D0BBB20E809B904D3A6
:010CCA002207
:0608CD008F158D168B173C
:1008D30085161C120D77E516C3943D5042E4F51BB3
:1008E300E51CC3943D5007AF1C120C6C8003120C23
:1008F300FC051C051BE51BC3941040E4120D707529
:100903001B10E51CC3943D5007AF1C120C6C8003F5
:10091300120CFC051C051BE51BC3942040E422E4D8
:10092300F51BE51CC3947A5005120CFC800EE515EB
:10093300D394015007E5152402120C63051C051B13
:10094300E51BC3941040DB120D70751B10E51CC32F
:10095300947A5005120CFC800EE515D394015007D0
:10096300E5152403120C63051C051BE51BC394202A
:0209730040DB67
:01097500225F
:06078B008F0D8D0E8B0F97
:10079100850E14120D77E50EC3943D400302082E19
:1007A100E4F513E514C3943D5018AF14120DDFABFB
:1007B10010AA11A91275F010E50FA42513120C7DD2
:1007C1008014120DF5AB10AA11A91275F010E50FE6
:1007D100A42513120D1205140513E513C394084043
:1007E100C2850E14E50D04FF120D77751308E5148B
:1007F100C3943D5018AF14120DDFAB10AA11A9120A
:1008010075F010E50FA42513120C7D8014120DF55F
:10081100AB10AA11A91275F010E50FA42513120D42
:100821001205140513E513C3941040C222E4F51315
:10083100E514C3947A5016120DF5AB10AA11A91242
:1008410075F010E50FA42513120D12801FE50DD3CD
:1008510094015018E50D2402120DD6AB10AA11A96E
:100861001275F010E50FA42513120C7D0514051364
:10087100E513C3940840B9850E14E50D04FF120D6C
:1008810077751308E514C3947A5016120DF5AB1061
:10089100AA11A91275F010E50FA42513120D1280EB
:1008A1001FE50DD394015018E50D2403120DD6ABAD
:1008B10010AA11A91275F010E50FA42513120C7DD1
:0B08C10005140513E513C3941040B9A3
:0108CC002209
:060CCB008F088D098B0A61
:100CD100E4F50CE50CC3950B5020E509250C75F0E6
:100CE10008A4FDE50A250CFB7510FF7511007512AE
:0A0CF10083AF0812078B050C80D9B1
:010CFB0022D6
:100C1500E4FDFF120C97751F02E51FC454F0FD7526
:100C250018FF751900751A03AB1F7F021208CD0551
:100C35001FE51FC3940740E1E4F51FE51FC454F009
:100C4500FDE51F2407FB7518FF751900751A03E4E8
:0E0C5500FF1208CD051FE51FC3940340DE22E9
:060B66008B218A22892385
:100B6C00E4F526F524AF24120D77E4FF120DDFE433
:100B7C00FF120DFAE4F525AB21AA22A92375F07A10
:100B8C00E524A42525120C7D0525E525C3943D40BF
:100B9C00E675253DAB21AA22A92375F07AE524A49C
:100BAC002525120D120525E525C3947A40E605246A
:070BBC00E524C3940440AEE0
:010BC300220F
:100B0000120D59EF4E605E0528532807E528B408FA
:100B1000005052900B1AF8282873020B32020B3641
:100B2000020B3A020B40020B46020B4C020B520224
:100B30000B5D7DAA80067DAA80147D557FAA801654
:100B40007DFFE4FF8010E4FD7FFF800A7D557F5527
:100B500080047DFF7FFF120C977FD08005120C155B
:050B60007F40120D862C
:010B6500226D
:100A0200E51D7068E51EB408005061900A14F828CC
:100A12002873020A2C020A32020A38020A3E020A29
:100A220044020A4A020A50020A607DFFE4FF802261
:100A32007DAA7F55801C7DAA7FAA80167D557FAA3C
:100A420080107D557F55800AE4FD7FFF80047DFF85
:100A52007FFF120C977FD0120D867F50800BE4FD32
:100A6200FF120C97120C157F2C120D86051EE51E27
:100A72007002051DD39407E51D648094804005E44F
:040A8200F51DF51E4B
:010A8600224D
:1000030000F80808080808FF0808080808FC0800A2
:1000130000030101010101FF0101010101030000CE
:1000230000FE020A8A8A8AFA8ACA8E0A02FF02003C
:1000330000FF40505050505F5052545040FF00005A
:1000430040605E4848FF484C6840F80000FF0000ED
:1000530000003F0101FF11211F000740807F0000C6
:10006300404244CC00504E48487F484CC860400052
:100073000040201F20405F51515151515F612000CA
:1000830004FCFC00FCFC0400101F001F001F1000F8
:100093000080404040800000000C1212091F100035
:1000A300008040404048F800000F101010081F1057
:1000B3000080404040408000000F121212120B00DB
:1000C300000000000000000000000000000000002D
:1000D30000404CCC000000000010101F1010000066
:1000E30040C0804040408000101F100000101F10CF
:1000F30000000000000000000000000000000000FD
:10010300E018040404041C00030C1010100804007D
:1001130008F8804040408000101F100000101F109E
:1001230000404CCC000000000010101F1010000015
:1001330040C0804040408000101F100000101F107E
:100143000080404040800000000C1212091F100084
:1001530000000808FC000000000010101F10100031
:1001630000380404048478000018141211101800D5
:1001730000380404048478000018141211101800C5
:100183000018048484443800000C101010110E0071
:1001930000380404048478000018141211101800A5
:1001A300008080808080800000000000000000004C
:1001B30000F008040408F000000708101008070006
:1001C3000038448484443800000E111010110E00CE
:1001D300FFFFFFFFFFFFFFFFFFFFFFFFFFFFFFFF2C
:1001E300FFFFFFFFFFFFFFFFFFFFFFFFFFFFFFFF1C
:1001F300FFFFFFFFFFFFFFFFFFFFFFFFFFFFFFFF0C
:10020300FFFFFFFFFFFFFFFFFFFFFFFFFFFFFFFFFB
:1002130000000000000000000000000000000000DB
:1002230000000000000000000000000000000000CB
:1002330000000000000000000000000000000000BB
:1002430000000000000000000000000000000000AB
:10025300000000000000000000000000000000009B
:10026300000000000000000000000000000000008B
:10027300000000000000000000000000000000007B
:10028300000000000000000000000000000000006B
:10029300000000000000000000000000000000005B
:1002A300000000000000000000000000000000004B
:1002B300000000000000000000000000000000003B
:1002C300000000000000000000000000000000002B
:1002D300000000000000000000000000000000001B
:1002E300000000000000000000000000000000000B
:1002F30000000000000000000000000000000000FB
:1003030000000000000000000000000000000000EA
:1003130000000000000000000000000000000000DA
:1003230000000000000000000000000000000000CA
:1003330000000000000000000000000000000000BA
:1003430000000000000000000000000000000000AA
:10035300000000000000000000000000000000009A
:10036300000000000000000000000000000000008A
:10037300000000000000000000000000000000007A
:10038300000000000000000000000000000000006A
:10039300000000000000000000000000000000005A
:1003A300000000000000000000000000000000004A
:1003B3000000000000000000070101000000000031
:1003C30000000010FE10F000FC242424FC000000B8
:1003D30000FE222222222222FE0000044464544C06
:1003E300F644C44444040008080808F82A2C28E802
:1003F3000C080000000000000000000080E0787E90
:10040300FEC0000000000000000000E0F0F8FCFC6B
:10041300FEFE7C7C30F82800040606020404040473
:1004230004044CDC60808000C0C0E0E0C0800001B8
:1004330001070000000000C0C0404040000C030062
:100443000F080B0909090B0C000080CF0404C4C476
:100453004444CF800044440201080F0000010244D9
:100463004008080403000808080700000000000013
:10047300000018183C3E3F383330383F3EC0000080
:10048300000000000003C73F0F0F1F3F7FFFFDF970
:10049300FBFB62240C0C3C7CFCFCFEFAFAF7F44CEC
:1004A30038030F7FFF7F7F3F1F0000000000000025
:1004B300003F3F222222001A3D253F3E0016372DE2
:1004C3002D3B1A011F3F21003F3F040C1F33203FE8
:1004D3003F0016372D2D3B1A003F3F003F3F0101E0
:1004E3003F3E005EBFA1A1FF7F00000000000000AF
:1004F300000000000000E091FEA42424C43C180680
:10050300F1F8FCFE0F2727376F3E1800000000604C
:10051300584CCC9CFCFCFCF8F0E000000000FF0011
:10052300000000000000F08080007F444444380055
:100533003C4040407C000438C03804384444447F85
:10054300007D00004854542400FC44444438007F98
:10055300000024545478000438C0380400400038A4
:10056300444428003844444438007C040478040498
:100573007800000001010FFCB060C1830707070684
:100583008287464400400000000002060E0E1F1F33
:100593001F1F0F070080C0701F000000008080E055
:1005A3000000000000000000000000000000000048
:1005B300000000000000F80808F80808F000F888B8
:1005C3008870004482926C00000000F80808F80864
:1005D30008F00070A8A8B000708888FE00FA00C870
:1005E300A8A8F800000000F888887000FE00C8A8DA
:1005F300A8F80008708070080070A8A8B000F80878
:1006030008000000000000000000000000000000DF
:1006130000000000000000000000000000000000D7
:1006230000000000000000000000000000E0008067
:100633008080000000000080838080808000008034
:100643000000008000000000E08080000000808047
:1006530000008080808000808080C08000000000D7
:100663000003000000008080808080800000028101
:10067300800000E080800000800000008000000017
:100683000000000000000000000000000000000067
:100693000000000000000000000000000000000057
:1006A300000000000000000F000F00000F0000001A
:1006B300000F00000F00000F0000271807000000C4
:1006C30000000F00000F00070A0A0B000C0A0A0FB4
:1006D300000F00000F0800000000000000000000F1
:1006E3000F00000F00000F0007080807000F08089D
:1006F30007000027180700000000000000000000AA
:100703000000000000000000000000000000FEFEEA
:10071300387CFE10387CFE00000000FEFE00FEFE6A
:100723000000000000FE7C3810FE7C38FEFE000056
:100733000000000000000000FC82827C000004FE38
:100743000000008800588E8A720084C2B28C00C0F8
:1007530038064482926C00008800588E8A72006CBE
:1007630092926C00000000007C7C7C7C7C7C7C7C16
:100773007C7C7C7C7C7C7C7C444444444444444476
:08078300444444444444447C16
:030000000209767C
:0C097600787FE4F6D8FD7581280209BDE9
:100D2C00BB010CE58229F582E5833AF583E022507C
:100D3C0006E92582F8E622BBFE06E92582F8E222C6
:0D0D4C00E58229F582E5833AF583E49322E0
:10098200020A87E493A3F8E493A34003F68001F2FA
:1009920008DFF48029E493A3F85407240CC8C33376
:1009A200C4540F4420C8834004F456800146F6DF45
:1009B200E4800B0102040810204080900E01E47EC6
:1009C200019360BCA3FF543F30E509541FFEE4933A
:1009D200A360010ECF54C025E060A840B8E493A301
:1009E200FAE493A3F8E493A3C8C582C8CAC583CA2C
:1009F200F0A3C8C582C8CAC583CADFE9DEE780BEE4
:010E070000EA
:00000001FF
