:100003004C434D31323836344100496E74656C6C63
:100013006967656E74204F70746F656C6563747285
:100023006F6E69637320436F2E2C204C74642E0013
:100033004F5249454E54414C2D4C43442E434F4D52
:10004300000020002D002E00310032003400360065
:100053003800410043004400450049004C004D0076
:100063004E004F0052005300540057005A006100E5
:100073006500680069006C006E00720074A1A10045
:10008300000000000000000000000000000000006D
:100093000000010001000100010001000100000057
:1000A30000003000300000000000000000000000ED
:1000B30000000010201020F83F0020002000000066
:1000C3000070300828082408220821F030000000BE
:1000D300000006800540243024F83F00240000007F
:1000E30000E00F1011882088209020001F000000DE
:1000F30000701C8822082108218822701C0000003F
:1001030020003CC0233802E002002700380000C072
:1001130007301808200820082008103808000008B5
:1001230020F83F0820082008201010E00F000008E6
:1001330020F83F88208820E82308201018000000BA
:100143000008200820F83F082008200000000008CD
:1001530020F83F0820002000200020003000000885
:1001630020F83FF801003EF801F83F08200000089E
:1001730020F83F3020C00000070818F83F0000E0D7
:100183000F10100820082008201010E00F000008AE
:1001930020F83F882088008803880C703000000016
:1001A3000070388820082108210822381C00001814
:1001B3000008000820F83F08200800180000000885
:1001C30000F803003EF801003EF8030800000010A9
:1001D30020083808260821C8203820081800000005
:1001E300000019802480248012003F0020000000BA
:1001F30000001F8024802480248024001700001026
:1002030020F03F0021800080008020003F0000009C
:100213000080209820983F0020002000000000006C
:100223000010201020F83F00200020000000008074
:1002330020803F0021800080008020003F0000805C
:10024300208020803F00218020800080010000006A
:100253000080008000E01F8020802000100000004C
:10026300000000000000000000000000000000008B
:10027300000000000000000000000000000000205B
:100283002000F00F0000FE7F00800FF601C003C6C0
:1002930003E0700E07707C3E0E387FFE1C9C7FFED1
:1002A30039CC7FFE33CE7FFE73E67FFE67E607E041
:1002B30067F307E0CFF3CFFFCF739EFFCF333CFF4E
:1002C300CF333CFFCF739EFFCFF3CFFFCFF307E0D6
:1002D300CFE607E067E67FFE67CE7FFE73CC7FFE47
:1002E300339C7FFE39387FFE1C707C3E0EE0700E1F
:1002F30007C063C003806FF00100FE7F0000F00FB2
:0103030000F9
:080A9300120A2C12064180F842
:10064100C203E4FF120822751B28E4F51C7E007F1B
:10065100031207CD120A40751B24751C107E007F02
:100661000D1207CD120A40751B01751C207E007FFB
:10067100331207CD120A40751B01751C20D2037E6F
:10068100007F331207CDC203120A40750B3FD2001F
:100691007B7FE4FDFF12086A120A40751B06751C78
:1006A10032D2021208AE120A40750F3FD2017B3FCF
:1006B1007D327F06120304120A40D2007D327F7A16
:1006C100120A78120A40D2007D327F06120A78128D
:0A06D1000A407FFF120822020A40CF
:100A4000E4FFE4FEE4FD0DBD33FC0EBE40F60FBF37
:020A50003CF078
:010A52002281
:100915008E0C8F0DD3E50D9480E50C9400400D12DF
:100925000576AA06AB077D107F10800DAF0D120668
:0D093500DBAA06AB077D107F0812044222EA
:0407CD008E088F09FA
:1007D100850982850883E493750A00F50B0509E50F
:1007E1000970020508E50B450A6035C3E50B9480E5
:1007F100E50A94005009AF0BAE0A12091580D185A4
:100801000982850883E493FD7C00E50BFEE42DFF5E
:10081100EC3EFE1209150509E50970B4050880B022
:0108210022B4
:040576008E0E8F0F47
:10057A00E4F510F511FBFAC3EB9511FFEA9510FEAD
:10058A00C3EF9402EE9400504BE51125E0FFE5100D
:10059A0033FE74802FF58274003EF583740193B59F
:1005AA000F0BE493B50E06AC10AD118073EB25E08A
:1005BA00FFEA33FE74802FF58274003EF5837401DE
:1005CA0093B50F0BE493B50E06AC02AD038051E46C
:1005DA00FCFD804CE5112BFFE5103AC313FCEF1329
:1005EA00FD25E0FFEC33FE74802FF58274003EF5A2
:1005FA0083E493FE740193FF650F7003EE650E604A
:10060A001FD3EF950FEE950EED400A24FFFBEC3455
:10061A00FFFA0205812401F511E43CF51002058177
:10062A00AE04ED7805C333CE33CED8F92462F58211
:06063A0074023EAF82FED7
:010640002297
:0206DB008F0E80
:1006DD00E4F97C1DC3EC99C39402503EE925E02456
:1006ED0044F582E43400F583AF0E7E00740193B5BA
:1006FD000709E493B50604AD01804DEC25E02444D3
:10070D00F582E43400F583740193B50709E493B5DC
:10071D000604AD048032E4FD802EE9FFEC2FFFE4EA
:10072D0033C313EF13FD25E02444F582E43400F5C3
:10073D0083740193FF650E600FEFD3950EED4004AA
:10074D0014FC809004F9808C75F010EDA42482F5D2
:08075D0082E5F03400AF82FEDA
:010765002271
:080442008F0E8D0F8A108B1143
:10044A00E51C5407F512250FF50F851C17E5111544
:10045A001170021510E4F513E513C3950E4003025B
:10046A00057285171C851214E514C3950F40030203
:02047A00054833
:10047C00851182851083E493F5150511E511700241
:10048C000510F582851083E493F516300306631589
:10049C00FF6316FFE4F518E518C39512501BE5161B
:1004AC00C313F516E51530E00674802516F516E530
:1004BC0015C313F515051880DEE5127026E5142416
:1004CC0008FFE433FEC3E50F9FEE6480F874809858
:1004DC0050111208E374082514F5147408251CF542
:1004EC001C80511208E31209428F151208E374089C
:1004FC002514F5147408251CF51C7FFFE50F540713
:10050C00F518E518D394004009EF13FF151C1518C6
:10051C0080F07518FFE50FC39514500C1514151CBD
:10052C00E51825E0F51880EDE5185207EF5216F4A2
:09053C0055154216AF16120A66AD
:10054500020472E512601FE50F30E01AE512C3954B
:100555000F40047F0180027F00EF54076008E5111A
:100565001511700215100513051B02046285171C71
:010575002263
:040A53008F828E837D
:0F0A5700E493FFA3E493FDA3AB82AA83020442BE
:0408AA00A201920213
:1008AE00751401E51C5407FFEFD394004009E514BD
:1008BE0025E0F5141F80F11208E31209428F15127C
:1008CE0008E3300206E51545148005E514F45515C8
:0408DE00FF120A6695
:0108E20022F3
:060304008F0C8D0D8B0E25
:10030A00850C1B850D1C1208AAE50EC3950C400727
:10031A00E50E950CFF8006C3E50C950EFF8F10E5E0
:10032A000FC3950D4007E50F950DFF8006C3E50D38
:10033A00950FFF8F11E51065117028E51B650E708A
:10034A0003020441E50ED3950C4004051B800215F7
:10035A001BE50FD3950D4004051C8002151C1208DD
:10036A00AA80D8E510D3951140687512008511133B
:10037A00E4F511E51B650E7003020441E50ED39501
:10038A000C4004051B8002151B0511E50FD3950DC2
:10039A00AF117E00AC12AD13401A120766E510C306
:1003AA00137C002FFFEC3EFEAD10120778E50D2FEF
:1003BA00F51C8019120766E510C3137C002FFFECA9
:1003CA003EFEAD10120778C3E50D9FF51C1208AA70
:1003DA0080A1751200851013E4F510E51C650F6005
:1003EA0056E50FD3950D4004051C8002151C051017
:1003FA00E50ED3950CAF107E00AC12AD13401A1265
:10040A000766E511C3137C002FFFEC3EFEAD111207
:10041A000778E50C2FF51B8019120766E511C3133F
:10042A007C002FFFEC3EFEAD11120778C3E50C9F4E
:07043A00F51B1208AA80A4C3
:010441002298
:0F0A7800AB078D0FA2009201AD1CAF1B02030450
:10086A008F088D098B0A85090FA2009201120304D1
:10087A00850B0FA2009201AB0AAD09AF0A1203045D
:10088A00850B0FA2009201AB08AD0BAF0A1203044D
:10089A0085090FA2009201AB08AD0BAF0802030451
:020822008F083D
:10082400E4F51CE51CC394405036E4F51B1208E3C0
:10083400E4F509AF0812099C0509E509C394404091
:10084400F2751B401208E3E4F509AF081209B40578
:1008540009E509C3944040F27408251CF51C80C3C3
:05086400E4F51BF51C8A
:01086900226C
:1008E300E51BC39440E51C5013131313540744B87A
:1008F300FF1209FCE51B4440FF0209FC13131354C8
:100903000744B8FF120A14E51B543F4440FF120A80
:0109130014CF
:0109140022C0
:100A2C007FC01209FC7FC0120A147F3F1209FC7FA1
:040A3C003F020A1457
:10094200E51BC39440500C1209CC8F191209CC8FAD
:0F09520019800A1209E48F191209E48F19AF19DD
:010961002273
:100A66008F19E51BC39440500302099CAF19120964
:020A7600B422A8
:10099C008F1A120962851A90D2B0C2B3D2B1C2B208
:0809AC00D2B400C2B4C2B122B2
:1009B4008F1A12097F851A90D2B0C2B3C2B1D2B2D3
:0809C400D2B400C2B4C2B22299
:1009CC001209627590FFD2B0D2B3D2B1C2B2D2B416
:0709DC0000AF90C2B4C2B1EC
:0109E30022F1
:1009E40012097F7590FFD2B0D2B3C2B1D2B2D2B4E1
:0709F40000AF90C2B4C2B2D3
:0109FB0022D9
:1009FC008F1A120962851A90C2B0C2B3D2B1C2B2B8
:080A0C00D2B400C2B4C2B12251
:100A14008F1A12097F851A90C2B0C2B3C2B1D2B282
:080A2400D2B400C2B4C2B22238
:100962007590FFC2B0D2B3D2B1C2B2D2B4E4FFE545
:0C0972009030E7040FBF14F7C2B4C2B10C
:01097E002256
:10097F007590FFC2B0D2B3C2B1D2B2D2B4E4FFE528
:0C098F009030E7040FBF14F7C2B4C2B2EE
:01099B002239
:03000000020A876A
:0C0A8700787FE4F6D8FD758120020A9308
:10076600EF8DF0A4A8F0CF8CF0A428CE8DF0A42EA7
:02077600FE2261
:10077800BC000BBE0029EF8DF084FFADF022E4CC65
:10078800F875F008EF2FFFEE33FEEC33FCEE9DEC2E
:10079800984005FCEE9DFE0FD5F0E9E4CEFD22ED74
:1007A800F8F5F0EE8420D21CFEADF075F008EF2FBE
:1007B800FFED33FD4007985006D5F0F222C398FDAF
:0507C8000FD5F0EA224C
:00000001FF
