:100003004C434D3234303132384200496E74656CA2
:100013006C6967656E74204F70746F656C6563748B
:10002300726F6E6963730020436F2E2C4C74442EE1
:1000330000444653544E3A3234302A313238204445
:100043004F545320446973706C6179000020002A77
:10005300002D002E00300031003200340038003A09
:100063000041004200430044004500460049004C63
:10007300004D004E004F0052005300540057005AE9
:10008300006100630065006700680069006C006E32
:10009300006F00700072007300740079A1A100006A
:1000A300000000000000000000000000000000004D
:1000B30000001010D63838D61010000000000000E1
:1000C3000000000000007E000000000000000000AF
:1000D300000000000000000000006060000000005D
:1000E30000182442424242424242241800000000C7
:1000F30000083808080808080808083E000000003F
:10010300003C4242420204081020427E00000000EC
:1001130000040C0C142424447F04041F000000007A
:10012300003C4242422418244242423C0000000068
:10013300000000001818000000001818000000005C
:10014300001010182828243C444242E70000000015
:1001530000F8444444784442424244F8000000001A
:10016300003E42428080808080424438000000008C
:1001730000F8444242424242424244F80000000036
:1001830000FC424848784848404242FC00000000D6
:1001930000FC424848784848404040E000000000E6
:1001A300007C1010101010101010107C00000000C4
:1001B30000E0404040404040404042FE000000001C
:1001C30000EE6C6C6C6C6C54545454D600000000FC
:1001D30000C7626252524A4A4A4646E200000000A1
:1001E3000038448282828282828244380000000086
:1001F30000FC4242427C4848444442E30000000081
:10020300003E4242402018040242427C00000000AB
:1002130000FE921010101010101010380000000093
:1002230000D654545454546C282828280000000045
:10023300007E840408081020204242FC00000000D5
:10024300000000000038440C34444C360000000029
:1002530000000000001C22404040221C000000005F
:1002630000000000003C42427E40423C000000008F
:1002730000000000003E444438403C42423C000041
:100283000000C040405C6242424242E7000000007E
:1002930000303000007010101010107C00000000BF
:1002A30000107010101010101010107C00000000CF
:1002B3000000000000DC6242424242E7000000000E
:1002C30000000000003C42424242423C0000000069
:1002D3000000000000D864424242645840E000003D
:1002E3000000000000EE3220202020F80000000073
:1002F30000000000003E42403C02427C000000003F
:1003030000000010107C10101010120C00000000F0
:100313000000000000E742242418181010600000B9
:1003230000000000000000000000000000000000CA
:10033300000000000000000000000000000020207A
:10034300000FF000007FFE0001F00F8003C003C028
:10035300070FF0E00E3FFC701CFE7F3839FC3F9C1A
:1003630033FC3FCC73FE7FCE67FFFFE667E7E7E62C
:10037300CFE3C7F3CFE187FFCFE427FFC0066003D6
:10038300C007E003FFE7E7F3FFE7E7F3CFE7E7F3B0
:1003930067E7E7E667FFFFE673FFFFCE33FFFFCCB8
:1003A30039FFFF9C1CFFFF380E3FFC70070FF0E086
:1003B30003C003C001F00F80007FFE00000FF000B8
:080ACA00120A0F12071780F851
:10071700C203E4FF1209AA751C58751D067E007FE7
:10072700031208B0120A7B751C0C751D207E007F12
:100737000E1208B0751C0C751D307E007F2A12083A
:10074700B0120A7B751C10751D487E007F34120895
:10075700B0120A7B751C10751D48D2037E007F34CA
:100767001208B0C203120A7B750B7FD2007BEFE43D
:10077700FDFF120905120A7B751C0F751D5CD2025D
:10078700120949120A7B750F7DD2017B777D5C7F49
:100797000F12050E120A7BD2007D5C7FE0120AA1C0
:1007A700120A7BD2007D5C7F0F120AA1120A7BE43A
:0707B700FF1209AA020A7BF0
:100A7B00E4FFE4FEE4FD0DBD33FC0EBE40F60FBFFC
:020A8B003CF03D
:010A8D002246
:10097D008E0C8F0DD3E50D9480E50C9400400D1277
:10098D00064CAA06AB077D107F10800DAF0D120728
:0D099D00BEAA06AB077D107F081203C3221F
:0408B0008E088F0916
:1008B400850982850883E493750A00F50B0509E52B
:1008C4000970020508E50B450A6035C3E50B948001
:1008D400E50A94005009AF0BAE0A12097D80D18558
:1008E4000982850883E493FD7C00E50BFEE42DFF7B
:1008F400EC3EFE12097D0509E50970B4050880B0D7
:0109040022D0
:04064C008E0E8F0F70
:10065000E4F510F511FBFAC3EB9511FFEA9510FED6
:10066000C3EF9402EE9400504BE51125E0FFE51036
:1006700033FE749F2FF58274003EF583740193B5A9
:100680000F0BE493B50E06AC10AD118073EB25E0B3
:10069000FFEA33FE749F2FF58274003EF5837401E8
:1006A00093B50F0BE493B50E06AC02AD038051E495
:1006B000FCFD804CE5112BFFE5103AC313FCEF1352
:1006C000FD25E0FFEC33FE749F2FF58274003EF5AC
:1006D00083E493FE740193FF650F7003EE650E6073
:1006E0001FD3EF950FEE950EED400A24FFFBEC347F
:1006F000FFFA0206572401F511E43CF510020657F3
:10070000AE04ED7805C333CE33CED8F92421F5827B
:0607100074033EAF82FEFF
:0107160022C0
:0207BE008F0E9C
:1007C000E4F97C27C3EC99C39402503EE925E02468
:1007D0004FF582E43400F583AF0E7E00740193B5CB
:1007E0000709E493B50604AD01804DEC25E0244FE4
:1007F000F582E43400F583740193B50709E493B5F9
:100800000604AD048032E4FD802EE9FFEC2FFFE406
:1008100033C313EF13FD25E0244FF582E43400F5D4
:1008200083740193FF650E600FEFD3950EED4004C6
:1008300014FC809004F9808C75F010EDA424A1F5CF
:0808400082E5F03400AF82FEF6
:01084800228D
:0803C3008F0E8D0F8A108B11C3
:1003CB00E51C5407F512250EF50E851C17E51115C6
:1003DB001170021510E4F514E514C3950F400302D8
:1003EB0004F385171C851213E513C3950E40030206
:0203FB0004C933
:1003FD00851182851083E493F5150511E5117002C1
:10040D000510F582851083E493F516300306631508
:10041D00FF6316FFE4F518E518C39512501BE5169A
:10042D00C313F516E51530E00674802516F516E5AF
:10043D0015C313F515051880DEE5127026E5132496
:10044D0008FFE433FEC3E50E9FEE6480F8748098D8
:10045D0050111209D274082513F5137408251CF5D3
:10046D001C80511209D2120AD28F151209D27408AA
:10047D002513F5137408251CF51C7FFFE50E540795
:10048D00F518E518D394004009EF13FF151C151846
:10049D0080F07518FFE50EC39513500C1513151C40
:1004AD00E51825E0F51880EDE5185207EF5216F422
:0904BD0055154216AF16120ADAB9
:1004C6000203F3E512601FE50E30E01AE512C3954C
:1004D6000E40047F0180027F00EF54076008E5119B
:1004E6001511700215100514051D0203E3C3E50E70
:1004F6009512FFC374F09517C39F5004E4F51C22B0
:07050600C3E51D950FF51D73
:01050D0022CB
:040A8E008F828E8342
:0F0A9200E493FFA3E493FDA3AB82AA830203C303
:04094500A201920277
:10094900751480E51C5407FFEFD394004008E514A3
:1009590013F5141F80F21209D2120AD28F15120947
:10096900D2300206E51545148005E514F45515FF46
:03097900120ADA85
:01097C002258
:06050E008F0C8D0D8B0E19
:10051400850C1C850D1D120945E50EC3950C40077D
:10052400E50E950CFF8006C3E50C950EFF8F10E5D4
:100534000FC3950D4007E50F950DFF8006C3E50D2C
:10054400950FFF8F11E51065117028E51C650E707D
:100554000302064BE50ED3950C4004051C800215DE
:100564001CE50FD3950D4004051D8002151D1209CD
:100574004580D8E510D39511406875120085111394
:10058400E4F511E51C650E700302064BE50ED395E8
:100594000C4004051C8002151C0511E50FD3950DB4
:1005A400AF117E00AC12AD13401A120849E510C316
:1005B400137C002FFFEC3EFEAD1012085BE50D2FFF
:1005C400F51D8019120849E510C3137C002FFFECB8
:1005D4003EFEAD1012085BC3E50D9FF51D120945E3
:1005E40080A1751200851013E4F510E51D650F60F8
:1005F40056E50FD3950D4004051D8002151D051009
:10060400E50ED3950CAF107E00AC12AD13401A1258
:100614000849E511C3137C002FFFEC3EFEAD111217
:10062400085BE50C2FF51C8019120849E511C3136A
:100634007C002FFFEC3EFEAD1112085BC3E50C9F5E
:07064400F51C12094580A41A
:01064B00228C
:0F0AA100AB078D0FA2009201AD1DAF1C02050E19
:100905008F088D098B0A85090FA200920112050E29
:10091500850B0FA2009201AB0AAD09AF0A12050EB5
:10092500850B0FA2009201AB08AD0BAF0A12050EA5
:1009350085090FA2009201AB08AD0BAF0802050EA9
:0209AA008F08B4
:1009AC00E4FBFD7F24120A2AE4F509E4F50AAF08FA
:1009BC00120ADA050AE50AC3941E40F20509E50994
:0509CC00C3948040E629
:0109D1002203
:1009D200E51D75F01EA4FFAEF0E51C131313541FA2
:0F09E2002FFFE43EFEAD07EFAB067F24020A2A8B
:100A0F007F80120A3F7F98120A3FE4FBFD7F42125C
:0B0A1F000A2AE4FB7D1E7F43020A2A26
:070ADA00AD077FC0020AB066
:080AD2007FC1120A3F020A5322
:100A3F008F1B1209F1851B90D2B0C2B3C2B100D285
:040A4F00B1D2B3224B
:0E0AB0008F19AE05AF06120A67AF19020A3F92
:100A2A008F198B1AAE05AF06120A67AF1A120A6738
:050A3A00AF19020A3FA4
:100A53001209F17590FFC2B0C2B3C2B200AF90D217
:030A6300B2D2B359
:010A6600226D
:100A67008F1B1209F1851B90C2B0C2B3C2B100D26D
:040A7700B1D2B32223
:1009F1007590FFD2B0C2B3E4FFC2B200AE90D2B2E2
:0D0A0100EE5403640360040FBF14EED2B383
:010A0E0022C5
:03000000020ABE33
:0C0ABE00787FE4F6D8FD758120020ACA9A
:10084900EF8DF0A4A8F0CF8CF0A428CE8DF0A42EC3
:02085900FE227D
:10085B00BC000BBE0029EF8DF084FFADF022E4CC81
:10086B00F875F008EF2FFFEE33FEEC33FCEE9DEC4A
:10087B00984005FCEE9DFE0FD5F0E9E4CEFD22ED90
:10088B00F8F5F0EE8420D21CFEADF075F008EF2FDA
:10089B00FFED33FD4007985006D5F0F222C398FDCB
:0508AB000FD5F0EA2268
:00000001FF
