:100259001203437FF47E011203231202FF1202DA12
:100269007FB87E0B120323E4F51CF51DAF1D7D013C
:100279001200F9AF1D7D021200F97FB87E0B12033F
:1002890023051DE51D7002051CD39409E51C940086
:0402990040DA80BC0B
:10035C0014080D0F000E0E0B0A0F030E0B0D0F0DD4
:06036C00000F0F0F030F4C
:100343007F0112029D7F0312029D7F2912029D7F6E
:090353004012029D7F0902029D87
:1002FF00752040E4F51CF51DE4FDFCAF201202143F
:10030F000520051DE51D7002051CC3942CE51C94EA
:03031F000040E5B6
:0103220022B8
:1002DA00752040E4F51CF51D7DFF7C00AF2012025D
:1002EA00140520051DE51D7002051CC3942CE51C90
:0402FA00940040E448
:0102FE0022DD
:10029D00C292D291D2900000C290E4FEC291D2904F
:1002AD000000C2900EBE02F4E4FEEF30E704D291DE
:1002BD008002C291D2900000C290EF25E0FF0EBEE9
:0C02CD0008E8D291D2900000C290D292BA
:0102D9002202
:10021400C292C291D2900000C290E4FEEF30E70493
:10022400D2918002C291D2900000C290EF25E0FFEB
:100234000EBE08E8E4FBED30E004D2918002C291E6
:10024400D2900000C290ECA2E713FCED13FD0BBBAF
:0402540004E4D2925A
:010258002283
:10032300E4FDFCC3ED9FEC9E5015E4FBFA0BBB0010
:0F033300010AEB646E4A70F50DBD00010C80E409
:010342002298
:0200F9008D2058
:1000FB00EFD394094003020187E52064016006E514
:10010B002064027077EF75F002A42408F9E4FAFB7F
:10011B0078247C00FDFE7F021200D3E52064017081
:10012B002D752140752209F523E523C39522504CEB
:10013B00E524FD7C00AF21120214E52104FFE52527
:10014B00FD7C0012021405210521052380DB75219E
:10015B0052752207E4F523E523C39522501EE525AE
:10016B00FD7C00AF21120214E52104FFE524FD7C88
:0C017B000012021405210521052380DB81
:010187002255
:0300000002018872
:0C018800787FE4F6D8FD7581250201CFD8
:10000300E709F608DFFA8046E709F208DFFA803EDF
:1000130088828C83E709F0A3DFFA8032E309F608CC
:10002300DFFA8078E309F208DFFA807088828C8334
:10003300E309F0A3DFFA806489828A83E0A3F608E8
:10004300DFFA805889828A83E0A3F208DFFA804CC2
:1000530080D280FA80C680D4806980F28033801099
:1000630080A680EA809A80A880DA80E280CA803302
:1000730089828A83ECFAE493A3C8C582C8CCC5837A
:10008300CCF0A3C8C582C8CCC583CCDFE9DEE7804A
:100093000D89828A83E493A3F608DFF9ECFAA9F0C9
:1000A300EDFB2289828A83ECFAE0A3C8C582C8CC1F
:1000B300C583CCF0A3C8C582C8CCC583CCDFEADE38
:1000C300E880DB89828A83E493A3F208DFF980CC9A
:1000D30088F0EF60010E4E60C388F0ED2402B40493
:1000E3000050B9F582EB2402B4040050AF2323453A
:0600F3008223900053730C
:10019400020259E493A3F8E493A34003F68001F226
:1001A40008DFF48029E493A3F85407240CC8C3336C
:1001B400C4540F4420C8834004F456800146F6DF3B
:1001C400E4800B010204081020408090035CE47E6C
:1001D400019360BCA3FF543F30E509541FFEE49330
:1001E400A360010ECF54C025E060A840B8E493A3F7
:1001F400FAE493A3F8E493A3C8C582C8CAC583CA22
:10020400F0A3C8C582C8CAC583CADFE9DEE780BED9
:01037200008A
:00000001FF
